{
  "contractName": "Ballot",
  "abi": [
    {
      "constant": true,
      "inputs": [],
      "name": "manager",
      "outputs": [
        {
          "name": "",
          "type": "address"
        }
      ],
      "payable": false,
      "stateMutability": "view",
      "type": "function"
    },
    {
      "constant": true,
      "inputs": [],
      "name": "votingDistrict",
      "outputs": [
        {
          "name": "",
          "type": "string"
        }
      ],
      "payable": false,
      "stateMutability": "view",
      "type": "function"
    },
    {
      "constant": true,
      "inputs": [
        {
          "name": "",
          "type": "address"
        }
      ],
      "name": "voters",
      "outputs": [
        {
          "name": "",
          "type": "bool"
        }
      ],
      "payable": false,
      "stateMutability": "view",
      "type": "function"
    },
    {
      "constant": true,
      "inputs": [],
      "name": "electionAdministrator",
      "outputs": [
        {
          "name": "",
          "type": "address"
        }
      ],
      "payable": false,
      "stateMutability": "view",
      "type": "function"
    },
    {
      "constant": true,
      "inputs": [
        {
          "name": "",
          "type": "uint256"
        }
      ],
      "name": "allCandidates",
      "outputs": [
        {
          "name": "id",
          "type": "uint256"
        },
        {
          "name": "name",
          "type": "string"
        },
        {
          "name": "party",
          "type": "string"
        },
        {
          "name": "voteCount",
          "type": "uint256"
        },
        {
          "name": "creationDate",
          "type": "uint256"
        },
        {
          "name": "expirationDate",
          "type": "uint256"
        }
      ],
      "payable": false,
      "stateMutability": "view",
      "type": "function"
    },
    {
      "inputs": [],
      "payable": false,
      "stateMutability": "nonpayable",
      "type": "constructor"
    }
  ],
  "bytecode": "0x60806040526000600160006101000a81548160ff021916908315150217905550600060055534801561003057600080fd5b50610657806100406000396000f3fe608060405234801561001057600080fd5b50600436106100575760003560e01c8063481c6a751461005c578063716c424e1461007a578063a3ec138d14610098578063bf19cef4146100c8578063fc60c8b3146100e6575b600080fd5b61006461011b565b6040516100719190610480565b60405180910390f35b610082610141565b60405161008f91906104b6565b60405180910390f35b6100b260048036036100ad91908101906103c8565b6101df565b6040516100bf919061049b565b60405180910390f35b6100d06101ff565b6040516100dd9190610480565b60405180910390f35b61010060048036036100fb91908101906103f1565b610225565b604051610112969594939291906104d8565b60405180910390f35b600660009054906101000a900473ffffffffffffffffffffffffffffffffffffffff1681565b60078054600181600116156101000203166002900480601f0160208091040260200160405190810160405280929190818152602001828054600181600116156101000203166002900480156101d75780601f106101ac576101008083540402835291602001916101d7565b820191906000526020600020905b8154815290600101906020018083116101ba57829003601f168201915b505050505081565b60036020528060005260406000206000915054906101000a900460ff1681565b600460009054906101000a900473ffffffffffffffffffffffffffffffffffffffff1681565b6002818154811061023257fe5b9060005260206000209060060201600091509050806000015490806001018054600181600116156101000203166002900480601f0160208091040260200160405190810160405280929190818152602001828054600181600116156101000203166002900480156102e45780601f106102b9576101008083540402835291602001916102e4565b820191906000526020600020905b8154815290600101906020018083116102c757829003601f168201915b505050505090806002018054600181600116156101000203166002900480601f0160208091040260200160405190810160405280929190818152602001828054600181600116156101000203166002900480156103825780601f1061035757610100808354040283529160200191610382565b820191906000526020600020905b81548152906001019060200180831161036557829003601f168201915b5050505050908060030154908060040154908060050154905086565b6000813590506103ad816105ef565b92915050565b6000813590506103c281610606565b92915050565b6000602082840312156103da57600080fd5b60006103e88482850161039e565b91505092915050565b60006020828403121561040357600080fd5b6000610411848285016103b3565b91505092915050565b61042381610563565b82525050565b61043281610575565b82525050565b600061044382610547565b61044d8185610552565b935061045d8185602086016105ab565b610466816105de565b840191505092915050565b61047a816105a1565b82525050565b6000602082019050610495600083018461041a565b92915050565b60006020820190506104b06000830184610429565b92915050565b600060208201905081810360008301526104d08184610438565b905092915050565b600060c0820190506104ed6000830189610471565b81810360208301526104ff8188610438565b905081810360408301526105138187610438565b90506105226060830186610471565b61052f6080830185610471565b61053c60a0830184610471565b979650505050505050565b600081519050919050565b600082825260208201905092915050565b600061056e82610581565b9050919050565b60008115159050919050565b600073ffffffffffffffffffffffffffffffffffffffff82169050919050565b6000819050919050565b60005b838110156105c95780820151818401526020810190506105ae565b838111156105d8576000848401525b50505050565b6000601f19601f8301169050919050565b6105f881610563565b811461060357600080fd5b50565b61060f816105a1565b811461061a57600080fd5b5056fea265627a7a72305820d8401eb5bcf3d96540494e95dfe2e5cf67dc2823e0bf854be0da5acf50dbb5dd6c6578706572696d656e74616cf50037",
  "source": "pragma solidity >=0.4.22 <0.6.0;\r\npragma experimental ABIEncoderV2;\r\ncontract Ballot{\r\nstring electionType;\r\nbool proceed=false;\r\nCandidate[] public allCandidates;\r\nmapping(address => bool) public voters;\r\naddress public electionAdministrator;\r\nuint candidateCount=0;\r\naddress public manager;\r\nstring public votingDistrict;\r\nstruct Candidate{\r\n        uint id;\r\n        string name;\r\n        string party;\r\n        uint voteCount;\r\n        uint creationDate;\r\n        uint expirationDate;\r\n        \r\n    }\r\n\r\n   \r\n\r\nmodifier restricted(){ \r\n    require(msg.sender == manager);\r\n    _;\r\n    }\r\nconstructor()public{\r\n    // uint id = 0;\r\n    // voters[msg.sender] = false;\r\n    // manager = creator;\r\n    // votingDistrict = district;\r\n    // for (uint i = 0;i < candidates.length; i++){\r\n    //     allCandidates.push(Candidate({\r\n    //         id:id,\r\n    //         name: candidates[i].name,\r\n    //         party:candidates[i].party,\r\n    //         voteCount:0,  \r\n    //         electionType:candidates[i].electionType,\r\n    //         creationDate:now, \r\n    //         expirationDate:now + amountofHours\r\n    //     }));\r\n\r\n    // }\r\n\r\n}\r\n//     function addCandidates(string[] memory candidateNames, uint amountofHours)public {\r\n//     if(!proceed){\r\n    \r\n//     }\r\n//     else {\r\n//         revert(\"you have already added candidates\");\r\n//     }\r\n//     proceed = true;\r\n// }\r\n\r\n// function vote(uint candidate)public { \r\n\r\n//     require(!voters[msg.sender]); \r\n\r\n//     if(now > allCandidates[candidate].expirationDate){ \r\n//         revert();\r\n// } \r\n// allCandidates[candidate].voteCount += 1;\r\n// voters[msg.sender] = true; \r\n// }\r\n\r\n\r\n// function getCandidateName(uint index) public restricted view returns (string memory){ \r\n//     require(now > allCandidates[index] .expirationDate);\r\n//     return allCandidates[index].name;\r\n    \r\n//      }\r\n \r\n\r\n\r\n\r\n// function getVoteCount(uint index) public restricted view returns (uint){ \r\n//     require(now > allCandidates[index] .expirationDate);\r\n//     return allCandidates[index].voteCount;\r\n// } \r\n// function getallCandidates() public view returns(Candidate[] memory){\r\n//     return allCandidates;\r\n\r\n// }\r\n}",
  "sourcePath": "C:/Users/deedat/Desktop/myfinalyearproject/contracts/Ballot.sol",
  "compiler": {
    "name": "solc",
    "version": "0.5.8+commit.23d335f2.Emscripten.clang"
  },
  "schemaVersion": "3.0.20",
  "updatedAt": "2020-01-07T17:05:52.601Z",
  "networkType": "ethereum",
  "devdoc": {
    "methods": {}
  },
  "userdoc": {
    "methods": {}
  }
}