{
  "contractName": "ElectionCreation",
  "abi": [
    {
      "inputs": [],
      "payable": false,
      "stateMutability": "nonpayable",
      "type": "constructor"
    },
    {
      "constant": true,
      "inputs": [
        {
          "internalType": "uint256",
          "name": "",
          "type": "uint256"
        }
      ],
      "name": "deployedBallots",
      "outputs": [
        {
          "internalType": "uint256",
          "name": "ballotid",
          "type": "uint256"
        },
        {
          "internalType": "uint256",
          "name": "creationDate",
          "type": "uint256"
        },
        {
          "internalType": "uint256",
          "name": "expirationDate",
          "type": "uint256"
        }
      ],
      "payable": false,
      "stateMutability": "view",
      "type": "function"
    },
    {
      "constant": true,
      "inputs": [
        {
          "internalType": "address",
          "name": "",
          "type": "address"
        }
      ],
      "name": "voters",
      "outputs": [
        {
          "internalType": "bool",
          "name": "",
          "type": "bool"
        }
      ],
      "payable": false,
      "stateMutability": "view",
      "type": "function"
    },
    {
      "constant": false,
      "inputs": [
        {
          "components": [
            {
              "internalType": "uint256",
              "name": "id",
              "type": "uint256"
            },
            {
              "internalType": "string",
              "name": "presname",
              "type": "string"
            },
            {
              "internalType": "string",
              "name": "party",
              "type": "string"
            },
            {
              "internalType": "uint256",
              "name": "voteCount",
              "type": "uint256"
            }
          ],
          "internalType": "struct ElectionCreation.Presidential[]",
          "name": "presCands",
          "type": "tuple[]"
        },
        {
          "components": [
            {
              "internalType": "uint256",
              "name": "id",
              "type": "uint256"
            },
            {
              "internalType": "string",
              "name": "parlname",
              "type": "string"
            },
            {
              "internalType": "string",
              "name": "party",
              "type": "string"
            },
            {
              "internalType": "string",
              "name": "districtname",
              "type": "string"
            },
            {
              "internalType": "uint256",
              "name": "voteCount",
              "type": "uint256"
            }
          ],
          "internalType": "struct ElectionCreation.Parliamentary[]",
          "name": "parlCands",
          "type": "tuple[]"
        },
        {
          "internalType": "uint256",
          "name": "amounthours",
          "type": "uint256"
        }
      ],
      "name": "CreateElection",
      "outputs": [],
      "payable": false,
      "stateMutability": "nonpayable",
      "type": "function"
    },
    {
      "constant": false,
      "inputs": [
        {
          "internalType": "uint256",
          "name": "candidateid",
          "type": "uint256"
        },
        {
          "internalType": "uint256",
          "name": "electionid",
          "type": "uint256"
        }
      ],
      "name": "voteForPresident",
      "outputs": [],
      "payable": false,
      "stateMutability": "nonpayable",
      "type": "function"
    },
    {
      "constant": true,
      "inputs": [
        {
          "internalType": "uint256",
          "name": "id",
          "type": "uint256"
        }
      ],
      "name": "getDeployedBallots",
      "outputs": [
        {
          "components": [
            {
              "internalType": "uint256",
              "name": "candidateid",
              "type": "uint256"
            },
            {
              "internalType": "string",
              "name": "districtname",
              "type": "string"
            },
            {
              "internalType": "uint256",
              "name": "voteCount",
              "type": "uint256"
            }
          ],
          "internalType": "struct ElectionCreation.district[]",
          "name": "",
          "type": "tuple[]"
        }
      ],
      "payable": false,
      "stateMutability": "view",
      "type": "function"
    }
  ],
  "bytecode": "0x608060405234801561001057600080fd5b506000600160003373ffffffffffffffffffffffffffffffffffffffff1673ffffffffffffffffffffffffffffffffffffffff16815260200190815260200160002060006101000a81548160ff021916908315150217905550610fcc806100786000396000f3fe608060405234801561001057600080fd5b50600436106100575760003560e01c80634854c3b81461005c5780636abfe4c914610078578063a3ec138d146100a8578063cdf74c3e146100d8578063d9635e0c1461010a575b600080fd5b61007660048036036100719190810190610b2b565b610126565b005b610092600480360361008d9190810190610baa565b6104fb565b60405161009f9190610d4e565b60405180910390f35b6100c260048036036100bd9190810190610b02565b610625565b6040516100cf9190610d70565b60405180910390f35b6100f260048036036100ed9190810190610baa565b610645565b60405161010193929190610d8b565b60405180910390f35b610124600480360361011f9190810190610bd3565b61066f565b005b60008090506000809050816000808381526020019081526020016000206000018190555042600080838152602001908152602001600020600401819055508242016000808381526020019081526020016000206005018190555060008090505b85518110156104f35760008083815260200190815260200160002060010160405180608001604052808884815181106101bb57fe5b60200260200101516000015181526020018884815181106101d857fe5b60200260200101516020015181526020018884815181106101f557fe5b602002602001015160400151815260200188848151811061021257fe5b60200260200101516060015181525090806001815401808255809150509060018203906000526020600020906004020160009091929091909150600082015181600001556020820151816001019080519060200190610272929190610783565b50604082015181600201908051906020019061028f929190610783565b506060820151816003015550505060008090505b85518110156104d5576000808481526020019081526020016000206002016040518060a001604052808884815181106102d857fe5b60200260200101516000015181526020018884815181106102f557fe5b602002602001015160200151815260200188848151811061031257fe5b602002602001015160400151815260200188848151811061032f57fe5b602002602001015160600151815260200188848151811061034c57fe5b602002602001015160800151815250908060018154018082558091505090600182039060005260206000209060050201600090919290919091506000820151816000015560208201518160010190805190602001906103ac929190610783565b5060408201518160020190805190602001906103c9929190610783565b5060608201518160030190805190602001906103e6929190610783565b5060808201518160040155505050600080848152602001908152602001600020600301604051806060016040528088848151811061042057fe5b602002602001015160000151815260200188848151811061043d57fe5b602002602001015160600151815260200188848151811061045a57fe5b602002602001015160800151815250908060018154018082558091505090600182039060005260206000209060030201600090919290919091506000820151816000015560208201518160010190805190602001906104ba929190610783565b506040820151816002015550505080806001019150506102a3565b50818060010192505082806001019350508080600101915050610186565b505050505050565b6060600080838152602001908152602001600020600301805480602002602001604051908101604052809291908181526020016000905b8282101561061a578382906000526020600020906003020160405180606001604052908160008201548152602001600182018054600181600116156101000203166002900480601f0160208091040260200160405190810160405280929190818152602001828054600181600116156101000203166002900480156105f85780601f106105cd576101008083540402835291602001916105f8565b820191906000526020600020905b8154815290600101906020018083116105db57829003601f168201915b5050505050815260200160028201548152505081526020019060010190610532565b505050509050919050565b60016020528060005260406000206000915054906101000a900460ff1681565b60006020528060005260406000206000915090508060000154908060040154908060050154905083565b600160003373ffffffffffffffffffffffffffffffffffffffff1673ffffffffffffffffffffffffffffffffffffffff16815260200190815260200160002060009054906101000a900460ff16156106c657600080fd5b600080828152602001908152602001600020600501544211156106e857600080fd5b6001600080838152602001908152602001600020600101838154811061070a57fe5b90600052602060002090600402016003016000828254019250508190555060018060003373ffffffffffffffffffffffffffffffffffffffff1673ffffffffffffffffffffffffffffffffffffffff16815260200190815260200160002060006101000a81548160ff0219169083151502179055505050565b828054600181600116156101000203166002900490600052602060002090601f016020900481019282601f106107c457805160ff19168380011785556107f2565b828001600101855582156107f2579182015b828111156107f15782518255916020019190600101906107d6565b5b5090506107ff9190610803565b5090565b61082591905b80821115610821576000816000905550600101610809565b5090565b90565b60008135905061083781610f5b565b92915050565b600082601f83011261084e57600080fd5b813561086161085c82610def565b610dc2565b9150818183526020840193506020810190508360005b838110156108a7578135860161088d8882610979565b845260208401935060208301925050600181019050610877565b5050505092915050565b600082601f8301126108c257600080fd5b81356108d56108d082610e17565b610dc2565b9150818183526020840193506020810190508360005b8381101561091b57813586016109018882610a49565b8452602084019350602083019250506001810190506108eb565b5050505092915050565b600082601f83011261093657600080fd5b813561094961094482610e3f565b610dc2565b9150808252602083016020830185838301111561096557600080fd5b610970838284610f08565b50505092915050565b600060a0828403121561098b57600080fd5b61099560a0610dc2565b905060006109a584828501610aed565b600083015250602082013567ffffffffffffffff8111156109c557600080fd5b6109d184828501610925565b602083015250604082013567ffffffffffffffff8111156109f157600080fd5b6109fd84828501610925565b604083015250606082013567ffffffffffffffff811115610a1d57600080fd5b610a2984828501610925565b6060830152506080610a3d84828501610aed565b60808301525092915050565b600060808284031215610a5b57600080fd5b610a656080610dc2565b90506000610a7584828501610aed565b600083015250602082013567ffffffffffffffff811115610a9557600080fd5b610aa184828501610925565b602083015250604082013567ffffffffffffffff811115610ac157600080fd5b610acd84828501610925565b6040830152506060610ae184828501610aed565b60608301525092915050565b600081359050610afc81610f72565b92915050565b600060208284031215610b1457600080fd5b6000610b2284828501610828565b91505092915050565b600080600060608486031215610b4057600080fd5b600084013567ffffffffffffffff811115610b5a57600080fd5b610b66868287016108b1565b935050602084013567ffffffffffffffff811115610b8357600080fd5b610b8f8682870161083d565b9250506040610ba086828701610aed565b9150509250925092565b600060208284031215610bbc57600080fd5b6000610bca84828501610aed565b91505092915050565b60008060408385031215610be657600080fd5b6000610bf485828601610aed565b9250506020610c0585828601610aed565b9150509250929050565b6000610c1b8383610ce0565b905092915050565b6000610c2e82610e7b565b610c388185610e9e565b935083602082028501610c4a85610e6b565b8060005b85811015610c865784840389528151610c678582610c0f565b9450610c7283610e91565b925060208a01995050600181019050610c4e565b50829750879550505050505092915050565b610ca181610ed2565b82525050565b6000610cb282610e86565b610cbc8185610eaf565b9350610ccc818560208601610f17565b610cd581610f4a565b840191505092915050565b6000606083016000830151610cf86000860182610d30565b5060208301518482036020860152610d108282610ca7565b9150506040830151610d256040860182610d30565b508091505092915050565b610d3981610efe565b82525050565b610d4881610efe565b82525050565b60006020820190508181036000830152610d688184610c23565b905092915050565b6000602082019050610d856000830184610c98565b92915050565b6000606082019050610da06000830186610d3f565b610dad6020830185610d3f565b610dba6040830184610d3f565b949350505050565b6000604051905081810181811067ffffffffffffffff82111715610de557600080fd5b8060405250919050565b600067ffffffffffffffff821115610e0657600080fd5b602082029050602081019050919050565b600067ffffffffffffffff821115610e2e57600080fd5b602082029050602081019050919050565b600067ffffffffffffffff821115610e5657600080fd5b601f19601f8301169050602081019050919050565b6000819050602082019050919050565b600081519050919050565b600081519050919050565b6000602082019050919050565b600082825260208201905092915050565b600082825260208201905092915050565b6000610ecb82610ede565b9050919050565b60008115159050919050565b600073ffffffffffffffffffffffffffffffffffffffff82169050919050565b6000819050919050565b82818337600083830152505050565b60005b83811015610f35578082015181840152602081019050610f1a565b83811115610f44576000848401525b50505050565b6000601f19601f8301169050919050565b610f6481610ec0565b8114610f6f57600080fd5b50565b610f7b81610efe565b8114610f8657600080fd5b5056fea365627a7a72315820418211785bd8290c230c2969ac4c95f58e73dc263a02c5d0c5ae5f7cfa10b7156c6578706572696d656e74616cf564736f6c634300050c0040",
  "source": "pragma solidity >=0.4.22 <0.6.0;\r\npragma experimental ABIEncoderV2;\r\n\r\n\r\ncontract ElectionCreation {\r\n\r\nmapping(uint=>Ballot) public deployedBallots;\r\nmapping(address=>bool) public voters;\r\ndistrict[] temp;\r\nstruct Ballot{\r\n        uint ballotid;\r\n        Presidential[] presidentialCandidates;\r\n        Parliamentary[] parliamentaryCandidates;\r\n        district[] districts;\r\n        uint creationDate;\r\n        uint expirationDate;\r\n}\r\n struct Presidential{\r\n     uint id;\r\n     string presname;\r\n     string party;\r\n     uint voteCount;\r\n\r\n }\r\n\r\n struct Parliamentary{\r\n     uint id;\r\n     string parlname;\r\n     string party;\r\n     string districtname;\r\n     uint voteCount;\r\n     \r\n }\r\nstruct district{\r\n    uint candidateid;\r\n    string districtname;\r\n    uint voteCount;\r\n}\r\nconstructor () public { \r\n   voters[msg.sender] = false;\r\n}\r\n\r\nfunction CreateElection(Presidential[] memory presCands,Parliamentary[] memory parlCands,\r\nuint amounthours)public {\r\n    uint ballotid = 0;\r\n    uint ballotCount = 0;\r\n    \r\n    \r\n    deployedBallots[ballotCount].ballotid = ballotid;\r\n    deployedBallots[ballotCount].creationDate = now;\r\n    deployedBallots[ballotCount].expirationDate = now + amounthours;\r\n    for (uint i = 0;i < presCands.length; i++){\r\n    deployedBallots[ballotCount].presidentialCandidates.push(Presidential(\r\n        {\r\n            id:presCands[i].id,\r\n            presname:presCands[i].presname,\r\n            party: presCands[i].party,\r\n            voteCount: presCands[i].voteCount\r\n        }\r\n    ));\r\n\r\n    for (uint i = 0;i < parlCands.length; i++){\r\n    deployedBallots[ballotCount].parliamentaryCandidates.push(Parliamentary(\r\n        {\r\n            id:parlCands[i].id,\r\n            parlname:parlCands[i].parlname,\r\n            party: parlCands[i].party,\r\n            districtname:parlCands[i].districtname,\r\n            voteCount:parlCands[i].voteCount\r\n           \r\n        }\r\n    ));\r\n    deployedBallots[ballotCount].districts.push(district({\r\n            candidateid:parlCands[i].id,\r\n            districtname:parlCands[i].districtname,\r\n            voteCount:parlCands[i].voteCount\r\n    }));\r\n    \r\n    \r\n    }\r\n\r\n    ballotCount++;\r\n    ballotid++;\r\n     \r\n}\r\n\r\n\r\n\r\n}\r\n\r\nfunction voteForPresident(uint candidateid, uint electionid)public { \r\n\r\n    require(!voters[msg.sender]); \r\n\r\n    if(now > deployedBallots[electionid].expirationDate){ \r\n        revert();\r\n} \r\ndeployedBallots[electionid].presidentialCandidates[candidateid].voteCount += 1;\r\nvoters[msg.sender] = true; \r\n}\r\n\r\n\r\n\r\n function getDeployedBallots(uint id) public view returns(district[] memory) { \r\n     return deployedBallots[id].districts;\r\n }\r\n// function getallCandidates() public view returns(Candidate[] memory){\r\n//      return allCandidates;\r\n\r\n//  }\r\n\r\n}\r\n",
  "sourcePath": "C:/Users/deedat/Desktop/myfinalyearproject/contracts/ElectionCreation.sol",
  "compiler": {
    "name": "solc",
    "version": "0.5.12+commit.7709ece9.Emscripten.clang"
  },
  "schemaVersion": "3.0.20",
  "updatedAt": "2020-01-07T11:25:56.995Z",
  "networkType": "ethereum",
  "devdoc": {
    "methods": {}
  },
  "userdoc": {
    "methods": {}
  }
}