{
  "contractName": "ElectionCreation",
  "abi": [
    {
      "inputs": [],
      "payable": false,
      "stateMutability": "nonpayable",
      "type": "constructor"
    },
    {
      "constant": true,
      "inputs": [],
      "name": "candidateCount",
      "outputs": [
        {
          "internalType": "uint256",
          "name": "",
          "type": "uint256"
        }
      ],
      "payable": false,
      "stateMutability": "view",
      "type": "function"
    },
    {
      "constant": true,
      "inputs": [
        {
          "internalType": "uint256",
          "name": "",
          "type": "uint256"
        }
      ],
      "name": "deployedBallots",
      "outputs": [
        {
          "internalType": "uint256",
          "name": "ballotid",
          "type": "uint256"
        },
        {
          "internalType": "uint256",
          "name": "creationDate",
          "type": "uint256"
        },
        {
          "internalType": "uint256",
          "name": "expirationDate",
          "type": "uint256"
        }
      ],
      "payable": false,
      "stateMutability": "view",
      "type": "function"
    },
    {
      "constant": true,
      "inputs": [],
      "name": "manager",
      "outputs": [
        {
          "internalType": "address",
          "name": "",
          "type": "address"
        }
      ],
      "payable": false,
      "stateMutability": "view",
      "type": "function"
    },
    {
      "constant": true,
      "inputs": [],
      "name": "parl_candidateCount",
      "outputs": [
        {
          "internalType": "uint256",
          "name": "",
          "type": "uint256"
        }
      ],
      "payable": false,
      "stateMutability": "view",
      "type": "function"
    },
    {
      "constant": true,
      "inputs": [
        {
          "internalType": "address",
          "name": "",
          "type": "address"
        }
      ],
      "name": "voters",
      "outputs": [
        {
          "internalType": "bool",
          "name": "pres",
          "type": "bool"
        },
        {
          "internalType": "bool",
          "name": "parl",
          "type": "bool"
        }
      ],
      "payable": false,
      "stateMutability": "view",
      "type": "function"
    },
    {
      "constant": false,
      "inputs": [
        {
          "components": [
            {
              "internalType": "uint256",
              "name": "id",
              "type": "uint256"
            },
            {
              "internalType": "string",
              "name": "name",
              "type": "string"
            },
            {
              "internalType": "string",
              "name": "party",
              "type": "string"
            },
            {
              "internalType": "string",
              "name": "manifesto",
              "type": "string"
            },
            {
              "internalType": "uint256",
              "name": "voteCount",
              "type": "uint256"
            },
            {
              "internalType": "string",
              "name": "imgURL",
              "type": "string"
            }
          ],
          "internalType": "struct ElectionCreation.Presidential[]",
          "name": "presCands",
          "type": "tuple[]"
        },
        {
          "components": [
            {
              "internalType": "uint256",
              "name": "id",
              "type": "uint256"
            },
            {
              "internalType": "string",
              "name": "manifesto",
              "type": "string"
            },
            {
              "internalType": "string",
              "name": "name",
              "type": "string"
            },
            {
              "internalType": "string",
              "name": "party",
              "type": "string"
            },
            {
              "internalType": "string",
              "name": "district",
              "type": "string"
            },
            {
              "internalType": "uint256",
              "name": "voteCount",
              "type": "uint256"
            },
            {
              "internalType": "string",
              "name": "imgURL",
              "type": "string"
            }
          ],
          "internalType": "struct ElectionCreation.Parliamentary[]",
          "name": "parlCands",
          "type": "tuple[]"
        },
        {
          "internalType": "uint256",
          "name": "amounthours",
          "type": "uint256"
        },
        {
          "internalType": "address",
          "name": "creator",
          "type": "address"
        }
      ],
      "name": "CreateElection",
      "outputs": [],
      "payable": false,
      "stateMutability": "nonpayable",
      "type": "function"
    },
    {
      "constant": false,
      "inputs": [
        {
          "internalType": "uint256",
          "name": "candidateid",
          "type": "uint256"
        },
        {
          "internalType": "uint256",
          "name": "electionid",
          "type": "uint256"
        }
      ],
      "name": "voteForPresident",
      "outputs": [],
      "payable": false,
      "stateMutability": "nonpayable",
      "type": "function"
    },
    {
      "constant": false,
      "inputs": [
        {
          "internalType": "uint256",
          "name": "candidateid",
          "type": "uint256"
        },
        {
          "internalType": "uint256",
          "name": "electionid",
          "type": "uint256"
        }
      ],
      "name": "voteForParliament",
      "outputs": [],
      "payable": false,
      "stateMutability": "nonpayable",
      "type": "function"
    },
    {
      "constant": true,
      "inputs": [
        {
          "internalType": "uint256",
          "name": "id",
          "type": "uint256"
        }
      ],
      "name": "getDeployedBallots",
      "outputs": [
        {
          "internalType": "uint256",
          "name": "ballotid",
          "type": "uint256"
        },
        {
          "internalType": "uint256",
          "name": "creationDate",
          "type": "uint256"
        },
        {
          "internalType": "uint256",
          "name": "expirationDate",
          "type": "uint256"
        }
      ],
      "payable": false,
      "stateMutability": "view",
      "type": "function"
    },
    {
      "constant": true,
      "inputs": [],
      "name": "getPresidentialCount",
      "outputs": [
        {
          "internalType": "uint256",
          "name": "count",
          "type": "uint256"
        }
      ],
      "payable": false,
      "stateMutability": "view",
      "type": "function"
    },
    {
      "constant": true,
      "inputs": [],
      "name": "getParliamentaryCount",
      "outputs": [
        {
          "internalType": "uint256",
          "name": "count",
          "type": "uint256"
        }
      ],
      "payable": false,
      "stateMutability": "view",
      "type": "function"
    },
    {
      "constant": true,
      "inputs": [
        {
          "internalType": "uint256",
          "name": "candidateid",
          "type": "uint256"
        },
        {
          "internalType": "uint256",
          "name": "electionid",
          "type": "uint256"
        }
      ],
      "name": "getPresidentialVoteCount",
      "outputs": [
        {
          "internalType": "uint256",
          "name": "",
          "type": "uint256"
        }
      ],
      "payable": false,
      "stateMutability": "view",
      "type": "function"
    },
    {
      "constant": true,
      "inputs": [
        {
          "internalType": "uint256",
          "name": "candidateid",
          "type": "uint256"
        },
        {
          "internalType": "uint256",
          "name": "electionid",
          "type": "uint256"
        }
      ],
      "name": "getParliamentaryVoteCount",
      "outputs": [
        {
          "internalType": "uint256",
          "name": "",
          "type": "uint256"
        }
      ],
      "payable": false,
      "stateMutability": "view",
      "type": "function"
    },
    {
      "constant": true,
      "inputs": [
        {
          "internalType": "uint256",
          "name": "electionid",
          "type": "uint256"
        },
        {
          "internalType": "uint256",
          "name": "i",
          "type": "uint256"
        }
      ],
      "name": "getPresidentialCandidates",
      "outputs": [
        {
          "internalType": "uint256",
          "name": "id",
          "type": "uint256"
        },
        {
          "internalType": "string",
          "name": "name",
          "type": "string"
        },
        {
          "internalType": "string",
          "name": "party",
          "type": "string"
        },
        {
          "internalType": "string",
          "name": "manifesto",
          "type": "string"
        },
        {
          "internalType": "uint256",
          "name": "count",
          "type": "uint256"
        },
        {
          "internalType": "string",
          "name": "imgURL",
          "type": "string"
        }
      ],
      "payable": false,
      "stateMutability": "view",
      "type": "function"
    },
    {
      "constant": true,
      "inputs": [
        {
          "internalType": "uint256",
          "name": "electionid",
          "type": "uint256"
        },
        {
          "internalType": "uint256",
          "name": "i",
          "type": "uint256"
        }
      ],
      "name": "getParliamentaryCandidates",
      "outputs": [
        {
          "internalType": "uint256",
          "name": "id",
          "type": "uint256"
        },
        {
          "internalType": "string",
          "name": "name",
          "type": "string"
        },
        {
          "internalType": "string",
          "name": "party",
          "type": "string"
        },
        {
          "internalType": "string",
          "name": "manifesto",
          "type": "string"
        },
        {
          "internalType": "uint256",
          "name": "count",
          "type": "uint256"
        },
        {
          "internalType": "string",
          "name": "imgURL",
          "type": "string"
        },
        {
          "internalType": "string",
          "name": "district",
          "type": "string"
        }
      ],
      "payable": false,
      "stateMutability": "view",
      "type": "function"
    }
  ],
  "bytecode": "0x608060405260008055600060015534801561001957600080fd5b506000600360003373ffffffffffffffffffffffffffffffffffffffff1673ffffffffffffffffffffffffffffffffffffffff16815260200190815260200160002060000160006101000a81548160ff0219169083151502179055506000600360003373ffffffffffffffffffffffffffffffffffffffff1673ffffffffffffffffffffffffffffffffffffffff16815260200190815260200160002060000160016101000a81548160ff021916908315150217905550611ee5806100df6000396000f3fe608060405234801561001057600080fd5b50600436106100f55760003560e01c8063a9a981a311610097578063d927e9d411610066578063d927e9d4146102bb578063d9635e0c146102d7578063db3ad35a146102f3578063de257af314610328576100f5565b8063a9a981a31461021d578063b0473a2b1461023b578063c00341891461026b578063cdf74c3e14610289576100f5565b80636abfe4c9116100d35780636abfe4c9146101665780637b63b77a1461019857806392205600146101b6578063a3ec138d146101ec576100f5565b80630267830c146100fa578063481c6a7514610118578063484cb1a814610136575b600080fd5b610102610344565b60405161010f9190611bb3565b60405180910390f35b61012061034a565b60405161012d9190611b6f565b60405180910390f35b610150600480360361014b9190810190611acd565b610370565b60405161015d9190611bb3565b60405180910390f35b610180600480360361017b9190810190611aa4565b6103a5565b60405161018f93929190611cdd565b60405180910390f35b6101a06103fc565b6040516101ad9190611bb3565b60405180910390f35b6101d060048036036101cb9190810190611acd565b610406565b6040516101e39796959493929190611c4b565b60405180910390f35b610206600480360361020191908101906119e8565b6107d9565b604051610214929190611b8a565b60405180910390f35b610225610817565b6040516102329190611bb3565b60405180910390f35b61025560048036036102509190810190611acd565b61081d565b6040516102629190611bb3565b60405180910390f35b610273610852565b6040516102809190611bb3565b60405180910390f35b6102a3600480360361029e9190810190611aa4565b61085b565b6040516102b293929190611cdd565b60405180910390f35b6102d560048036036102d09190810190611a11565b610885565b005b6102f160048036036102ec9190810190611acd565b610fab565b005b61030d60048036036103089190810190611acd565b6110c0565b60405161031f96959493929190611bce565b60405180910390f35b610342600480360361033d9190810190611acd565b611467565b005b60015481565b600460009054906101000a900473ffffffffffffffffffffffffffffffffffffffff1681565b600060026000838152602001908152602001600020600301600084815260200190815260200160002060010154905092915050565b60008060006002600085815260200190815260200160002060000154600260008681526020019081526020016000206004015460026000878152602001908152602001600020600501549250925092509193909250565b6000600154905090565b60006060806060600060608061041a61157c565b600260008b815260200190815260200160002060020160008a81526020019081526020016000206040518060e001604052908160008201548152602001600182018054600181600116156101000203166002900480601f0160208091040260200160405190810160405280929190818152602001828054600181600116156101000203166002900480156104ef5780601f106104c4576101008083540402835291602001916104ef565b820191906000526020600020905b8154815290600101906020018083116104d257829003601f168201915b50505050508152602001600282018054600181600116156101000203166002900480601f0160208091040260200160405190810160405280929190818152602001828054600181600116156101000203166002900480156105915780601f1061056657610100808354040283529160200191610591565b820191906000526020600020905b81548152906001019060200180831161057457829003601f168201915b50505050508152602001600382018054600181600116156101000203166002900480601f0160208091040260200160405190810160405280929190818152602001828054600181600116156101000203166002900480156106335780601f1061060857610100808354040283529160200191610633565b820191906000526020600020905b81548152906001019060200180831161061657829003601f168201915b50505050508152602001600482018054600181600116156101000203166002900480601f0160208091040260200160405190810160405280929190818152602001828054600181600116156101000203166002900480156106d55780601f106106aa576101008083540402835291602001916106d5565b820191906000526020600020905b8154815290600101906020018083116106b857829003601f168201915b5050505050815260200160058201548152602001600682018054600181600116156101000203166002900480601f0160208091040260200160405190810160405280929190818152602001828054600181600116156101000203166002900480156107815780601f1061075657610100808354040283529160200191610781565b820191906000526020600020905b81548152906001019060200180831161076457829003601f168201915b505050505081525050905080600001518160400151826060015183602001518460a001518560c00151866080015185955084945083935081915080905097509750975097509750975097505092959891949750929550565b60036020528060005260406000206000915090508060000160009054906101000a900460ff16908060000160019054906101000a900460ff16905082565b60005481565b600060026000838152602001908152602001600020600101600084815260200190815260200160002060040154905092915050565b60008054905090565b60026020528060005260406000206000915090508060000154908060040154908060050154905083565b6000809050600080905082600460006101000a81548173ffffffffffffffffffffffffffffffffffffffff021916908373ffffffffffffffffffffffffffffffffffffffff160217905550816002600083815260200190815260200160002060000181905550426002600083815260200190815260200160002060040181905550834201600260008381526020019081526020016000206005018190555060008090505b8651811015610bbe5786818151811061093e57fe5b60200260200101516000015160026000848152602001908152602001600020600101600089848151811061096e57fe5b60200260200101516000015181526020019081526020016000206000018190555086818151811061099b57fe5b6020026020010151602001516002600084815260200190815260200160002060010160008984815181106109cb57fe5b602002602001015160000151815260200190815260200160002060010190805190602001906109fb9291906115b9565b50868181518110610a0857fe5b602002602001015160400151600260008481526020019081526020016000206001016000898481518110610a3857fe5b60200260200101516000015181526020019081526020016000206002019080519060200190610a689291906115b9565b50868181518110610a7557fe5b602002602001015160600151600260008481526020019081526020016000206001016000898481518110610aa557fe5b60200260200101516000015181526020019081526020016000206003019080519060200190610ad59291906115b9565b50868181518110610ae257fe5b602002602001015160800151600260008481526020019081526020016000206001016000898481518110610b1257fe5b602002602001015160000151815260200190815260200160002060040181905550868181518110610b3f57fe5b602002602001015160a00151600260008481526020019081526020016000206001016000898481518110610b6f57fe5b60200260200101516000015181526020019081526020016000206005019080519060200190610b9f9291906115b9565b5060008081548092919060010191905055508080600101915050610929565b5060008090505b8551811015610f9257858181518110610bda57fe5b602002602001015160000151600260008481526020019081526020016000206002016000888481518110610c0a57fe5b602002602001015160000151815260200190815260200160002060000181905550858181518110610c3757fe5b602002602001015160400151600260008481526020019081526020016000206002016000888481518110610c6757fe5b60200260200101516000015181526020019081526020016000206002019080519060200190610c979291906115b9565b50858181518110610ca457fe5b602002602001015160200151600260008481526020019081526020016000206002016000888481518110610cd457fe5b60200260200101516000015181526020019081526020016000206001019080519060200190610d049291906115b9565b50858181518110610d1157fe5b602002602001015160600151600260008481526020019081526020016000206002016000888481518110610d4157fe5b60200260200101516000015181526020019081526020016000206003019080519060200190610d719291906115b9565b50858181518110610d7e57fe5b602002602001015160800151600260008481526020019081526020016000206002016000888481518110610dae57fe5b60200260200101516000015181526020019081526020016000206004019080519060200190610dde9291906115b9565b50858181518110610deb57fe5b602002602001015160a00151600260008481526020019081526020016000206002016000888481518110610e1b57fe5b602002602001015160000151815260200190815260200160002060050181905550858181518110610e4857fe5b602002602001015160800151600260008481526020019081526020016000206003016000888481518110610e7857fe5b60200260200101516000015181526020019081526020016000206000019080519060200190610ea89291906115b9565b50868181518110610eb557fe5b602002602001015160a00151600260008481526020019081526020016000206001016000898481518110610ee557fe5b60200260200101516000015181526020019081526020016000206005019080519060200190610f159291906115b9565b50858181518110610f2257fe5b602002602001015160a00151600260008481526020019081526020016000206003016000888481518110610f5257fe5b6020026020010151600001518152602001908152602001600020600101819055506001600081548092919060010191905055508080600101915050610bc5565b5080806001019150508180600101925050505050505050565b600360003373ffffffffffffffffffffffffffffffffffffffff1673ffffffffffffffffffffffffffffffffffffffff16815260200190815260200160002060000160009054906101000a900460ff161561100557600080fd5b600260008281526020019081526020016000206005015442111561102857600080fd5b6001600260008381526020019081526020016000206001016000848152602001908152602001600020600401600082825401925050819055506001600360003373ffffffffffffffffffffffffffffffffffffffff1673ffffffffffffffffffffffffffffffffffffffff16815260200190815260200160002060000160006101000a81548160ff0219169083151502179055505050565b60006060806060600060606000600260008a815260200190815260200160002060010160008981526020019081526020016000206000015490506060600260008b815260200190815260200160002060010160008a81526020019081526020016000206001018054600181600116156101000203166002900480601f0160208091040260200160405190810160405280929190818152602001828054600181600116156101000203166002900480156111ba5780601f1061118f576101008083540402835291602001916111ba565b820191906000526020600020905b81548152906001019060200180831161119d57829003601f168201915b505050505090506060600260008c815260200190815260200160002060010160008b81526020019081526020016000206003018054600181600116156101000203166002900480601f0160208091040260200160405190810160405280929190818152602001828054600181600116156101000203166002900480156112815780601f1061125657610100808354040283529160200191611281565b820191906000526020600020905b81548152906001019060200180831161126457829003601f168201915b505050505090506060600260008d815260200190815260200160002060010160008c81526020019081526020016000206002018054600181600116156101000203166002900480601f0160208091040260200160405190810160405280929190818152602001828054600181600116156101000203166002900480156113485780601f1061131d57610100808354040283529160200191611348565b820191906000526020600020905b81548152906001019060200180831161132b57829003601f168201915b505050505090506060600260008e815260200190815260200160002060010160008d81526020019081526020016000206005018054600181600116156101000203166002900480601f01602080910402602001604051908101604052809291908181526020018280546001816001161561010002031660029004801561140f5780601f106113e45761010080835404028352916020019161140f565b820191906000526020600020905b8154815290600101906020018083116113f257829003601f168201915b505050505090506000600260008f815260200190815260200160002060010160008e81526020019081526020016000206004015490508585848684869b509b509b509b509b509b505050505050509295509295509295565b600360003373ffffffffffffffffffffffffffffffffffffffff1673ffffffffffffffffffffffffffffffffffffffff16815260200190815260200160002060000160019054906101000a900460ff16156114c157600080fd5b60026000828152602001908152602001600020600501544211156114e457600080fd5b6001600260008381526020019081526020016000206003016000848152602001908152602001600020600101600082825401925050819055506001600360003373ffffffffffffffffffffffffffffffffffffffff1673ffffffffffffffffffffffffffffffffffffffff16815260200190815260200160002060000160016101000a81548160ff0219169083151502179055505050565b6040518060e00160405280600081526020016060815260200160608152602001606081526020016060815260200160008152602001606081525090565b828054600181600116156101000203166002900490600052602060002090601f016020900481019282601f106115fa57805160ff1916838001178555611628565b82800160010185558215611628579182015b8281111561162757825182559160200191906001019061160c565b5b5090506116359190611639565b5090565b61165b91905b8082111561165757600081600090555060010161163f565b5090565b90565b60008135905061166d81611e74565b92915050565b600082601f83011261168457600080fd5b813561169761169282611d41565b611d14565b9150818183526020840193506020810190508360005b838110156116dd57813586016116c388826117af565b8452602084019350602083019250506001810190506116ad565b5050505092915050565b600082601f8301126116f857600080fd5b813561170b61170682611d69565b611d14565b9150818183526020840193506020810190508360005b83811015611751578135860161173788826118d7565b845260208401935060208301925050600181019050611721565b5050505092915050565b600082601f83011261176c57600080fd5b813561177f61177a82611d91565b611d14565b9150808252602083016020830185838301111561179b57600080fd5b6117a6838284611e21565b50505092915050565b600060e082840312156117c157600080fd5b6117cb60e0611d14565b905060006117db848285016119d3565b600083015250602082013567ffffffffffffffff8111156117fb57600080fd5b6118078482850161175b565b602083015250604082013567ffffffffffffffff81111561182757600080fd5b6118338482850161175b565b604083015250606082013567ffffffffffffffff81111561185357600080fd5b61185f8482850161175b565b606083015250608082013567ffffffffffffffff81111561187f57600080fd5b61188b8482850161175b565b60808301525060a061189f848285016119d3565b60a08301525060c082013567ffffffffffffffff8111156118bf57600080fd5b6118cb8482850161175b565b60c08301525092915050565b600060c082840312156118e957600080fd5b6118f360c0611d14565b90506000611903848285016119d3565b600083015250602082013567ffffffffffffffff81111561192357600080fd5b61192f8482850161175b565b602083015250604082013567ffffffffffffffff81111561194f57600080fd5b61195b8482850161175b565b604083015250606082013567ffffffffffffffff81111561197b57600080fd5b6119878482850161175b565b606083015250608061199b848285016119d3565b60808301525060a082013567ffffffffffffffff8111156119bb57600080fd5b6119c78482850161175b565b60a08301525092915050565b6000813590506119e281611e8b565b92915050565b6000602082840312156119fa57600080fd5b6000611a088482850161165e565b91505092915050565b60008060008060808587031215611a2757600080fd5b600085013567ffffffffffffffff811115611a4157600080fd5b611a4d878288016116e7565b945050602085013567ffffffffffffffff811115611a6a57600080fd5b611a7687828801611673565b9350506040611a87878288016119d3565b9250506060611a988782880161165e565b91505092959194509250565b600060208284031215611ab657600080fd5b6000611ac4848285016119d3565b91505092915050565b60008060408385031215611ae057600080fd5b6000611aee858286016119d3565b9250506020611aff858286016119d3565b9150509250929050565b611b1281611dd9565b82525050565b611b2181611deb565b82525050565b6000611b3282611dbd565b611b3c8185611dc8565b9350611b4c818560208601611e30565b611b5581611e63565b840191505092915050565b611b6981611e17565b82525050565b6000602082019050611b846000830184611b09565b92915050565b6000604082019050611b9f6000830185611b18565b611bac6020830184611b18565b9392505050565b6000602082019050611bc86000830184611b60565b92915050565b600060c082019050611be36000830189611b60565b8181036020830152611bf58188611b27565b90508181036040830152611c098187611b27565b90508181036060830152611c1d8186611b27565b9050611c2c6080830185611b60565b81810360a0830152611c3e8184611b27565b9050979650505050505050565b600060e082019050611c60600083018a611b60565b8181036020830152611c728189611b27565b90508181036040830152611c868188611b27565b90508181036060830152611c9a8187611b27565b9050611ca96080830186611b60565b81810360a0830152611cbb8185611b27565b905081810360c0830152611ccf8184611b27565b905098975050505050505050565b6000606082019050611cf26000830186611b60565b611cff6020830185611b60565b611d0c6040830184611b60565b949350505050565b6000604051905081810181811067ffffffffffffffff82111715611d3757600080fd5b8060405250919050565b600067ffffffffffffffff821115611d5857600080fd5b602082029050602081019050919050565b600067ffffffffffffffff821115611d8057600080fd5b602082029050602081019050919050565b600067ffffffffffffffff821115611da857600080fd5b601f19601f8301169050602081019050919050565b600081519050919050565b600082825260208201905092915050565b6000611de482611df7565b9050919050565b60008115159050919050565b600073ffffffffffffffffffffffffffffffffffffffff82169050919050565b6000819050919050565b82818337600083830152505050565b60005b83811015611e4e578082015181840152602081019050611e33565b83811115611e5d576000848401525b50505050565b6000601f19601f8301169050919050565b611e7d81611dd9565b8114611e8857600080fd5b50565b611e9481611e17565b8114611e9f57600080fd5b5056fea365627a7a723158205617c82ab204dd109d9a04ab322c08dc5034ca6e27b3456b574bf4431a352ecf6c6578706572696d656e74616cf564736f6c634300050c0040",
  "source": "pragma solidity >=0.4.22 <0.6.0;\r\npragma experimental ABIEncoderV2;\r\n\r\n\r\ncontract ElectionCreation {\r\nuint public candidateCount = 0;\r\nuint public parl_candidateCount=0;\r\nmapping(uint=>Ballot) public deployedBallots;\r\nmapping(address=>vote_right) public voters;\r\naddress public manager;\r\n\r\nstruct vote_right{\r\n    bool pres;\r\n    bool parl;\r\n}\r\nstruct Ballot{\r\n        uint ballotid;\r\n        mapping(uint=>Presidential) presidentialCandidates;\r\n        mapping(uint=>Parliamentary) parliamentaryCandidates;\r\n        mapping(uint=>district) districts;\r\n        uint creationDate;\r\n        uint expirationDate;\r\n}\r\n struct Presidential{\r\n     uint id;\r\n     string name;\r\n     string party;\r\n     string manifesto;\r\n     uint voteCount;\r\n     string imgURL;\r\n\r\n }\r\n\r\n struct Parliamentary{\r\n     uint id;\r\n     string manifesto;\r\n     string name;\r\n     string party;\r\n     string district;\r\n     uint voteCount;\r\n     string imgURL;\r\n     \r\n }\r\nstruct district{\r\n    string district;\r\n    uint voteCount;\r\n}\r\nmodifier restricted() { \r\n    require(msg.sender == manager); _;\r\n}\r\nconstructor () public { \r\n    \r\n   voters[msg.sender].pres = false;\r\n   voters[msg.sender].parl = false;\r\n}\r\n\r\nfunction CreateElection(Presidential[] memory presCands,Parliamentary[] memory parlCands,\r\nuint amounthours, address creator)public {\r\n    uint ballotid = 0;\r\n    uint ballotCount = 0;\r\n    manager = creator;\r\n    \r\n    deployedBallots[ballotCount].ballotid = ballotid;\r\n    deployedBallots[ballotCount].creationDate = now;\r\n    deployedBallots[ballotCount].expirationDate = now + amounthours;\r\n    \r\n\r\n    for (uint i = 0;i < presCands.length; i++){\r\n        deployedBallots[ballotCount].presidentialCandidates[presCands[i].id].id = presCands[i].id;\r\n        deployedBallots[ballotCount].presidentialCandidates[presCands[i].id].name = presCands[i].name;\r\n        deployedBallots[ballotCount].presidentialCandidates[presCands[i].id].party = presCands[i].party;\r\n        deployedBallots[ballotCount].presidentialCandidates[presCands[i].id].manifesto = presCands[i].manifesto;\r\n        deployedBallots[ballotCount].presidentialCandidates[presCands[i].id].voteCount = presCands[i].voteCount;\r\n        deployedBallots[ballotCount].presidentialCandidates[presCands[i].id].imgURL = presCands[i].imgURL;\r\n        candidateCount++;\r\n\r\n    }\r\n\r\n    for (uint i = 0;i < parlCands.length; i++){\r\n        deployedBallots[ballotCount].parliamentaryCandidates[parlCands[i].id].id = parlCands[i].id;\r\n        deployedBallots[ballotCount].parliamentaryCandidates[parlCands[i].id].name = parlCands[i].name;\r\n        deployedBallots[ballotCount].parliamentaryCandidates[parlCands[i].id].manifesto = parlCands[i].manifesto;\r\n        deployedBallots[ballotCount].parliamentaryCandidates[parlCands[i].id].party = parlCands[i].party;\r\n        deployedBallots[ballotCount].parliamentaryCandidates[parlCands[i].id].district = parlCands[i].district;\r\n        deployedBallots[ballotCount].parliamentaryCandidates[parlCands[i].id].voteCount = parlCands[i].voteCount;\r\n        deployedBallots[ballotCount].districts[parlCands[i].id].district = parlCands[i].district;\r\n        deployedBallots[ballotCount].presidentialCandidates[presCands[i].id].imgURL = presCands[i].imgURL;\r\n        deployedBallots[ballotCount].districts[parlCands[i].id].voteCount = parlCands[i].voteCount;\r\n        parl_candidateCount++;\r\n    \r\n    }\r\n\r\n    \r\n\r\n\r\nballotCount++;\r\nballotid++;\r\n\r\n     \r\n\r\n}\r\n\r\n\r\nfunction voteForPresident(uint candidateid, uint electionid)public { \r\n\r\n   require(!voters[msg.sender].pres); \r\n\r\n    if(now > deployedBallots[electionid].expirationDate){ \r\n        revert();\r\n } \r\ndeployedBallots[electionid].presidentialCandidates[candidateid].voteCount += 1;\r\nvoters[msg.sender].pres = true; \r\n}\r\n\r\nfunction voteForParliament(uint candidateid, uint electionid)public { \r\n\r\n    require(!voters[msg.sender].parl); \r\n\r\n    if(now > deployedBallots[electionid].expirationDate){ \r\n        revert();\r\n} \r\ndeployedBallots[electionid].districts[candidateid].voteCount += 1;\r\nvoters[msg.sender].parl = true; \r\n}\r\n\r\n\r\n\r\n\r\n\r\n function getDeployedBallots(uint id) public view returns(uint ballotid,uint creationDate,uint expirationDate) { \r\n     return (deployedBallots[id].ballotid,deployedBallots[id].creationDate,deployedBallots[id].expirationDate);\r\n }\r\n\r\n function getPresidentialCount() public view returns(uint count){\r\n     return candidateCount;\r\n }\r\n function getParliamentaryCount() public view returns(uint count){\r\n     return parl_candidateCount;\r\n }\r\n function getPresidentialVoteCount(uint candidateid,uint electionid) public view returns(uint){\r\n    return deployedBallots[electionid].presidentialCandidates[candidateid].voteCount;\r\n}\r\n\r\nfunction getParliamentaryVoteCount(uint candidateid,uint electionid) public view returns(uint) {\r\n    return deployedBallots[electionid].districts[candidateid].voteCount;\r\n    \r\n}\r\nfunction getPresidentialCandidates(uint electionid,uint i) public view returns(uint id,string memory name,\r\n string memory party, string memory manifesto,uint count, string memory imgURL){\r\n uint cid = deployedBallots[electionid].presidentialCandidates[i].id;\r\n string memory cname = deployedBallots[electionid].presidentialCandidates[i].name;\r\n string memory manifesto = deployedBallots[electionid].presidentialCandidates[i].manifesto;\r\n string memory cparty = deployedBallots[electionid].presidentialCandidates[i].party;\r\n string memory img = deployedBallots[electionid].presidentialCandidates[i].imgURL;\r\n uint  votecount = deployedBallots[electionid].presidentialCandidates[i].voteCount;\r\n return(cid,cname,cparty,manifesto,votecount,img);\r\n    \r\n\r\n }\r\n\r\n function getParliamentaryCandidates(uint electionid,uint i) public view returns(uint id,string memory name,\r\n string memory party, string memory manifesto,uint count, string memory imgURL,string memory district){\r\n Parliamentary memory p = deployedBallots[electionid].parliamentaryCandidates[i];\r\n return(p.id,p.name,p.party,p.manifesto,p.voteCount,p.imgURL,p.district);\r\n    \r\n\r\n }\r\n\r\n}\r\n",
  "sourcePath": "C:/Users/deedat/Desktop/myfinalyearproject/contracts/ElectionCreation.sol",
  "compiler": {
    "name": "solc",
    "version": "0.5.12+commit.7709ece9.Emscripten.clang"
  },
  "schemaVersion": "3.0.20",
  "updatedAt": "2020-03-08T15:09:07.180Z",
  "networkType": "ethereum",
  "devdoc": {
    "methods": {}
  },
  "userdoc": {
    "methods": {}
  }
}