{
  "contractName": "ElectionCreation",
  "abi": [
    {
      "inputs": [],
      "payable": false,
      "stateMutability": "nonpayable",
      "type": "constructor"
    },
    {
      "constant": true,
      "inputs": [],
      "name": "candidateCount",
      "outputs": [
        {
          "internalType": "uint256",
          "name": "",
          "type": "uint256"
        }
      ],
      "payable": false,
      "stateMutability": "view",
      "type": "function"
    },
    {
      "constant": true,
      "inputs": [
        {
          "internalType": "uint256",
          "name": "",
          "type": "uint256"
        }
      ],
      "name": "deployedBallots",
      "outputs": [
        {
          "internalType": "uint256",
          "name": "ballotid",
          "type": "uint256"
        },
        {
          "internalType": "uint256",
          "name": "creationDate",
          "type": "uint256"
        },
        {
          "internalType": "uint256",
          "name": "expirationDate",
          "type": "uint256"
        }
      ],
      "payable": false,
      "stateMutability": "view",
      "type": "function"
    },
    {
      "constant": true,
      "inputs": [],
      "name": "manager",
      "outputs": [
        {
          "internalType": "address",
          "name": "",
          "type": "address"
        }
      ],
      "payable": false,
      "stateMutability": "view",
      "type": "function"
    },
    {
      "constant": true,
      "inputs": [
        {
          "internalType": "address",
          "name": "",
          "type": "address"
        }
      ],
      "name": "voters",
      "outputs": [
        {
          "internalType": "bool",
          "name": "pres",
          "type": "bool"
        },
        {
          "internalType": "bool",
          "name": "parl",
          "type": "bool"
        }
      ],
      "payable": false,
      "stateMutability": "view",
      "type": "function"
    },
    {
      "constant": false,
      "inputs": [
        {
          "components": [
            {
              "internalType": "uint256",
              "name": "id",
              "type": "uint256"
            },
            {
              "internalType": "string",
              "name": "name",
              "type": "string"
            },
            {
              "internalType": "string",
              "name": "party",
              "type": "string"
            },
            {
              "internalType": "string",
              "name": "manifesto",
              "type": "string"
            },
            {
              "internalType": "uint256",
              "name": "voteCount",
              "type": "uint256"
            },
            {
              "internalType": "string",
              "name": "imgURL",
              "type": "string"
            }
          ],
          "internalType": "struct ElectionCreation.Presidential[]",
          "name": "presCands",
          "type": "tuple[]"
        },
        {
          "components": [
            {
              "internalType": "uint256",
              "name": "id",
              "type": "uint256"
            },
            {
              "internalType": "string",
              "name": "manifesto",
              "type": "string"
            },
            {
              "internalType": "string",
              "name": "name",
              "type": "string"
            },
            {
              "internalType": "string",
              "name": "party",
              "type": "string"
            },
            {
              "internalType": "string",
              "name": "district",
              "type": "string"
            },
            {
              "internalType": "uint256",
              "name": "voteCount",
              "type": "uint256"
            },
            {
              "internalType": "string",
              "name": "imgURL",
              "type": "string"
            }
          ],
          "internalType": "struct ElectionCreation.Parliamentary[]",
          "name": "parlCands",
          "type": "tuple[]"
        },
        {
          "internalType": "uint256",
          "name": "amounthours",
          "type": "uint256"
        },
        {
          "internalType": "address",
          "name": "creator",
          "type": "address"
        }
      ],
      "name": "CreateElection",
      "outputs": [],
      "payable": false,
      "stateMutability": "nonpayable",
      "type": "function"
    },
    {
      "constant": false,
      "inputs": [
        {
          "internalType": "uint256",
          "name": "candidateid",
          "type": "uint256"
        },
        {
          "internalType": "uint256",
          "name": "electionid",
          "type": "uint256"
        }
      ],
      "name": "voteForPresident",
      "outputs": [],
      "payable": false,
      "stateMutability": "nonpayable",
      "type": "function"
    },
    {
      "constant": false,
      "inputs": [
        {
          "internalType": "uint256",
          "name": "candidateid",
          "type": "uint256"
        },
        {
          "internalType": "uint256",
          "name": "electionid",
          "type": "uint256"
        }
      ],
      "name": "voteForParliament",
      "outputs": [],
      "payable": false,
      "stateMutability": "nonpayable",
      "type": "function"
    },
    {
      "constant": true,
      "inputs": [
        {
          "internalType": "uint256",
          "name": "candidateid",
          "type": "uint256"
        },
        {
          "internalType": "uint256",
          "name": "electionid",
          "type": "uint256"
        }
      ],
      "name": "getPresidentialVoteCount",
      "outputs": [
        {
          "internalType": "uint256",
          "name": "",
          "type": "uint256"
        }
      ],
      "payable": false,
      "stateMutability": "view",
      "type": "function"
    },
    {
      "constant": true,
      "inputs": [
        {
          "internalType": "uint256",
          "name": "candidateid",
          "type": "uint256"
        },
        {
          "internalType": "uint256",
          "name": "electionid",
          "type": "uint256"
        }
      ],
      "name": "getParliamentaryVoteCount",
      "outputs": [
        {
          "internalType": "uint256",
          "name": "",
          "type": "uint256"
        }
      ],
      "payable": false,
      "stateMutability": "view",
      "type": "function"
    },
    {
      "constant": true,
      "inputs": [
        {
          "internalType": "uint256",
          "name": "id",
          "type": "uint256"
        }
      ],
      "name": "getDeployedBallots",
      "outputs": [
        {
          "internalType": "uint256",
          "name": "ballotid",
          "type": "uint256"
        },
        {
          "internalType": "uint256",
          "name": "creationDate",
          "type": "uint256"
        },
        {
          "internalType": "uint256",
          "name": "expirationDate",
          "type": "uint256"
        }
      ],
      "payable": false,
      "stateMutability": "view",
      "type": "function"
    },
    {
      "constant": true,
      "inputs": [],
      "name": "getPresidentialCount",
      "outputs": [
        {
          "internalType": "uint256",
          "name": "count",
          "type": "uint256"
        }
      ],
      "payable": false,
      "stateMutability": "view",
      "type": "function"
    },
    {
      "constant": true,
      "inputs": [
        {
          "internalType": "uint256",
          "name": "electionid",
          "type": "uint256"
        },
        {
          "internalType": "uint256",
          "name": "i",
          "type": "uint256"
        }
      ],
      "name": "getPresidentialCandidates",
      "outputs": [
        {
          "internalType": "uint256",
          "name": "id",
          "type": "uint256"
        },
        {
          "internalType": "string",
          "name": "name",
          "type": "string"
        },
        {
          "internalType": "string",
          "name": "party",
          "type": "string"
        },
        {
          "internalType": "string",
          "name": "manifesto",
          "type": "string"
        },
        {
          "internalType": "uint256",
          "name": "count",
          "type": "uint256"
        },
        {
          "internalType": "string",
          "name": "imgURL",
          "type": "string"
        }
      ],
      "payable": false,
      "stateMutability": "view",
      "type": "function"
    }
  ],
  "bytecode": "0x60806040526000805534801561001457600080fd5b506000600260003373ffffffffffffffffffffffffffffffffffffffff1673ffffffffffffffffffffffffffffffffffffffff16815260200190815260200160002060000160006101000a81548160ff0219169083151502179055506000600260003373ffffffffffffffffffffffffffffffffffffffff1673ffffffffffffffffffffffffffffffffffffffff16815260200190815260200160002060000160016101000a81548160ff02191690831515021790555061196c806100da6000396000f3fe608060405234801561001057600080fd5b50600436106100b45760003560e01c8063c003418911610071578063c0034189146101b8578063cdf74c3e146101d6578063d927e9d414610208578063d9635e0c14610224578063db3ad35a14610240578063de257af314610275576100b4565b8063481c6a75146100b9578063484cb1a8146100d75780636abfe4c914610107578063a3ec138d14610139578063a9a981a31461016a578063b0473a2b14610188575b600080fd5b6100c1610291565b6040516100ce9190611688565b60405180910390f35b6100f160048036036100ec91908101906115e6565b6102b7565b6040516100fe91906116cc565b60405180910390f35b610121600480360361011c91908101906115bd565b6102ec565b60405161013093929190611764565b60405180910390f35b610153600480360361014e9190810190611501565b610343565b6040516101619291906116a3565b60405180910390f35b610172610381565b60405161017f91906116cc565b60405180910390f35b6101a2600480360361019d91908101906115e6565b610387565b6040516101af91906116cc565b60405180910390f35b6101c06103bc565b6040516101cd91906116cc565b60405180910390f35b6101f060048036036101eb91908101906115bd565b6103c5565b6040516101ff93929190611764565b60405180910390f35b610222600480360361021d919081019061152a565b6103ef565b005b61023e600480360361023991908101906115e6565b610b03565b005b61025a600480360361025591908101906115e6565b610c17565b60405161026c969594939291906116e7565b60405180910390f35b61028f600480360361028a91908101906115e6565b610fbe565b005b600360009054906101000a900473ffffffffffffffffffffffffffffffffffffffff1681565b600060016000838152602001908152602001600020600301600084815260200190815260200160002060010154905092915050565b60008060006001600085815260200190815260200160002060000154600160008681526020019081526020016000206004015460016000878152602001908152602001600020600501549250925092509193909250565b60026020528060005260406000206000915090508060000160009054906101000a900460ff16908060000160019054906101000a900460ff16905082565b60005481565b600060016000838152602001908152602001600020600101600084815260200190815260200160002060040154905092915050565b60008054905090565b60016020528060005260406000206000915090508060000154908060040154908060050154905083565b6000809050600080905082600360006101000a81548173ffffffffffffffffffffffffffffffffffffffff021916908373ffffffffffffffffffffffffffffffffffffffff160217905550816001600083815260200190815260200160002060000181905550426001600083815260200190815260200160002060040181905550834201600160008381526020019081526020016000206005018190555060008090505b8651811015610728578681815181106104a857fe5b6020026020010151600001516001600084815260200190815260200160002060010160008984815181106104d857fe5b60200260200101516000015181526020019081526020016000206000018190555086818151811061050557fe5b60200260200101516020015160016000848152602001908152602001600020600101600089848151811061053557fe5b602002602001015160000151815260200190815260200160002060010190805190602001906105659291906110d2565b5086818151811061057257fe5b6020026020010151604001516001600084815260200190815260200160002060010160008984815181106105a257fe5b602002602001015160000151815260200190815260200160002060020190805190602001906105d29291906110d2565b508681815181106105df57fe5b60200260200101516060015160016000848152602001908152602001600020600101600089848151811061060f57fe5b6020026020010151600001518152602001908152602001600020600301908051906020019061063f9291906110d2565b5086818151811061064c57fe5b60200260200101516080015160016000848152602001908152602001600020600101600089848151811061067c57fe5b6020026020010151600001518152602001908152602001600020600401819055508681815181106106a957fe5b602002602001015160a001516001600084815260200190815260200160002060010160008984815181106106d957fe5b602002602001015160000151815260200190815260200160002060050190805190602001906107099291906110d2565b5060008081548092919060010191905055508080600101915050610493565b5060008090505b8551811015610aea5785818151811061074457fe5b60200260200101516000015160016000848152602001908152602001600020600201600088848151811061077457fe5b6020026020010151600001518152602001908152602001600020600001819055508581815181106107a157fe5b6020026020010151604001516001600084815260200190815260200160002060020160008884815181106107d157fe5b602002602001015160000151815260200190815260200160002060020190805190602001906108019291906110d2565b5085818151811061080e57fe5b60200260200101516020015160016000848152602001908152602001600020600201600088848151811061083e57fe5b6020026020010151600001518152602001908152602001600020600101908051906020019061086e9291906110d2565b5085818151811061087b57fe5b6020026020010151606001516001600084815260200190815260200160002060020160008884815181106108ab57fe5b602002602001015160000151815260200190815260200160002060030190805190602001906108db9291906110d2565b508581815181106108e857fe5b60200260200101516080015160016000848152602001908152602001600020600201600088848151811061091857fe5b602002602001015160000151815260200190815260200160002060040190805190602001906109489291906110d2565b5085818151811061095557fe5b602002602001015160a0015160016000848152602001908152602001600020600201600088848151811061098557fe5b6020026020010151600001518152602001908152602001600020600501819055508581815181106109b257fe5b6020026020010151608001516001600084815260200190815260200160002060030160008884815181106109e257fe5b60200260200101516000015181526020019081526020016000206000019080519060200190610a129291906110d2565b50868181518110610a1f57fe5b602002602001015160a00151600160008481526020019081526020016000206001016000898481518110610a4f57fe5b60200260200101516000015181526020019081526020016000206005019080519060200190610a7f9291906110d2565b50858181518110610a8c57fe5b602002602001015160a00151600160008481526020019081526020016000206003016000888481518110610abc57fe5b602002602001015160000151815260200190815260200160002060010181905550808060010191505061072f565b5080806001019150508180600101925050505050505050565b600260003373ffffffffffffffffffffffffffffffffffffffff1673ffffffffffffffffffffffffffffffffffffffff16815260200190815260200160002060000160009054906101000a900460ff1615610b5d57600080fd5b6001600082815260200190815260200160002060050154421115610b8057600080fd5b60018060008381526020019081526020016000206001016000848152602001908152602001600020600401600082825401925050819055506001600260003373ffffffffffffffffffffffffffffffffffffffff1673ffffffffffffffffffffffffffffffffffffffff16815260200190815260200160002060000160006101000a81548160ff0219169083151502179055505050565b60006060806060600060606000600160008a815260200190815260200160002060010160008981526020019081526020016000206000015490506060600160008b815260200190815260200160002060010160008a81526020019081526020016000206001018054600181600116156101000203166002900480601f016020809104026020016040519081016040528092919081815260200182805460018160011615610100020316600290048015610d115780601f10610ce657610100808354040283529160200191610d11565b820191906000526020600020905b815481529060010190602001808311610cf457829003601f168201915b505050505090506060600160008c815260200190815260200160002060010160008b81526020019081526020016000206003018054600181600116156101000203166002900480601f016020809104026020016040519081016040528092919081815260200182805460018160011615610100020316600290048015610dd85780601f10610dad57610100808354040283529160200191610dd8565b820191906000526020600020905b815481529060010190602001808311610dbb57829003601f168201915b505050505090506060600160008d815260200190815260200160002060010160008c81526020019081526020016000206002018054600181600116156101000203166002900480601f016020809104026020016040519081016040528092919081815260200182805460018160011615610100020316600290048015610e9f5780601f10610e7457610100808354040283529160200191610e9f565b820191906000526020600020905b815481529060010190602001808311610e8257829003601f168201915b505050505090506060600160008e815260200190815260200160002060010160008d81526020019081526020016000206005018054600181600116156101000203166002900480601f016020809104026020016040519081016040528092919081815260200182805460018160011615610100020316600290048015610f665780601f10610f3b57610100808354040283529160200191610f66565b820191906000526020600020905b815481529060010190602001808311610f4957829003601f168201915b505050505090506000600160008f815260200190815260200160002060010160008e81526020019081526020016000206004015490508585848684869b509b509b509b509b509b505050505050509295509295509295565b600260003373ffffffffffffffffffffffffffffffffffffffff1673ffffffffffffffffffffffffffffffffffffffff16815260200190815260200160002060000160019054906101000a900460ff161561101857600080fd5b600160008281526020019081526020016000206005015442111561103b57600080fd5b60018060008381526020019081526020016000206003016000848152602001908152602001600020600101600082825401925050819055506001600260003373ffffffffffffffffffffffffffffffffffffffff1673ffffffffffffffffffffffffffffffffffffffff16815260200190815260200160002060000160016101000a81548160ff0219169083151502179055505050565b828054600181600116156101000203166002900490600052602060002090601f016020900481019282601f1061111357805160ff1916838001178555611141565b82800160010185558215611141579182015b82811115611140578251825591602001919060010190611125565b5b50905061114e9190611152565b5090565b61117491905b80821115611170576000816000905550600101611158565b5090565b90565b600081359050611186816118fb565b92915050565b600082601f83011261119d57600080fd5b81356111b06111ab826117c8565b61179b565b9150818183526020840193506020810190508360005b838110156111f657813586016111dc88826112c8565b8452602084019350602083019250506001810190506111c6565b5050505092915050565b600082601f83011261121157600080fd5b813561122461121f826117f0565b61179b565b9150818183526020840193506020810190508360005b8381101561126a578135860161125088826113f0565b84526020840193506020830192505060018101905061123a565b5050505092915050565b600082601f83011261128557600080fd5b813561129861129382611818565b61179b565b915080825260208301602083018583830111156112b457600080fd5b6112bf8382846118a8565b50505092915050565b600060e082840312156112da57600080fd5b6112e460e061179b565b905060006112f4848285016114ec565b600083015250602082013567ffffffffffffffff81111561131457600080fd5b61132084828501611274565b602083015250604082013567ffffffffffffffff81111561134057600080fd5b61134c84828501611274565b604083015250606082013567ffffffffffffffff81111561136c57600080fd5b61137884828501611274565b606083015250608082013567ffffffffffffffff81111561139857600080fd5b6113a484828501611274565b60808301525060a06113b8848285016114ec565b60a08301525060c082013567ffffffffffffffff8111156113d857600080fd5b6113e484828501611274565b60c08301525092915050565b600060c0828403121561140257600080fd5b61140c60c061179b565b9050600061141c848285016114ec565b600083015250602082013567ffffffffffffffff81111561143c57600080fd5b61144884828501611274565b602083015250604082013567ffffffffffffffff81111561146857600080fd5b61147484828501611274565b604083015250606082013567ffffffffffffffff81111561149457600080fd5b6114a084828501611274565b60608301525060806114b4848285016114ec565b60808301525060a082013567ffffffffffffffff8111156114d457600080fd5b6114e084828501611274565b60a08301525092915050565b6000813590506114fb81611912565b92915050565b60006020828403121561151357600080fd5b600061152184828501611177565b91505092915050565b6000806000806080858703121561154057600080fd5b600085013567ffffffffffffffff81111561155a57600080fd5b61156687828801611200565b945050602085013567ffffffffffffffff81111561158357600080fd5b61158f8782880161118c565b93505060406115a0878288016114ec565b92505060606115b187828801611177565b91505092959194509250565b6000602082840312156115cf57600080fd5b60006115dd848285016114ec565b91505092915050565b600080604083850312156115f957600080fd5b6000611607858286016114ec565b9250506020611618858286016114ec565b9150509250929050565b61162b81611860565b82525050565b61163a81611872565b82525050565b600061164b82611844565b611655818561184f565b93506116658185602086016118b7565b61166e816118ea565b840191505092915050565b6116828161189e565b82525050565b600060208201905061169d6000830184611622565b92915050565b60006040820190506116b86000830185611631565b6116c56020830184611631565b9392505050565b60006020820190506116e16000830184611679565b92915050565b600060c0820190506116fc6000830189611679565b818103602083015261170e8188611640565b905081810360408301526117228187611640565b905081810360608301526117368186611640565b90506117456080830185611679565b81810360a08301526117578184611640565b9050979650505050505050565b60006060820190506117796000830186611679565b6117866020830185611679565b6117936040830184611679565b949350505050565b6000604051905081810181811067ffffffffffffffff821117156117be57600080fd5b8060405250919050565b600067ffffffffffffffff8211156117df57600080fd5b602082029050602081019050919050565b600067ffffffffffffffff82111561180757600080fd5b602082029050602081019050919050565b600067ffffffffffffffff82111561182f57600080fd5b601f19601f8301169050602081019050919050565b600081519050919050565b600082825260208201905092915050565b600061186b8261187e565b9050919050565b60008115159050919050565b600073ffffffffffffffffffffffffffffffffffffffff82169050919050565b6000819050919050565b82818337600083830152505050565b60005b838110156118d55780820151818401526020810190506118ba565b838111156118e4576000848401525b50505050565b6000601f19601f8301169050919050565b61190481611860565b811461190f57600080fd5b50565b61191b8161189e565b811461192657600080fd5b5056fea365627a7a72315820324318eb409786dca2945e6c629bf7dca59fbae3689d4bdef88a6e5e9f0ad7346c6578706572696d656e74616cf564736f6c634300050c0040",
  "source": "pragma solidity >=0.4.22 <0.6.0;\r\npragma experimental ABIEncoderV2;\r\n\r\n\r\ncontract ElectionCreation {\r\nuint public candidateCount = 0;\r\nmapping(uint=>Ballot) public deployedBallots;\r\nmapping(address=>vote_right) public voters;\r\naddress public manager;\r\n\r\nstruct vote_right{\r\n    bool pres;\r\n    bool parl;\r\n}\r\nstruct Ballot{\r\n        uint ballotid;\r\n        mapping(uint=>Presidential) presidentialCandidates;\r\n        mapping(uint=>Parliamentary) parliamentaryCandidates;\r\n        mapping(uint=>district) districts;\r\n        uint creationDate;\r\n        uint expirationDate;\r\n}\r\n struct Presidential{\r\n     uint id;\r\n     string name;\r\n     string party;\r\n     string manifesto;\r\n     uint voteCount;\r\n     string imgURL;\r\n\r\n }\r\n\r\n struct Parliamentary{\r\n     uint id;\r\n     string manifesto;\r\n     string name;\r\n     string party;\r\n     string district;\r\n     uint voteCount;\r\n     string imgURL;\r\n     \r\n }\r\nstruct district{\r\n    string district;\r\n    uint voteCount;\r\n}\r\nmodifier restricted() { \r\n    require(msg.sender == manager); _;\r\n}\r\nconstructor () public { \r\n    \r\n   voters[msg.sender].pres = false;\r\n   voters[msg.sender].parl = false;\r\n}\r\n\r\nfunction CreateElection(Presidential[] memory presCands,Parliamentary[] memory parlCands,\r\nuint amounthours, address creator)public {\r\n    uint ballotid = 0;\r\n    uint ballotCount = 0;\r\n    manager = creator;\r\n    \r\n    deployedBallots[ballotCount].ballotid = ballotid;\r\n    deployedBallots[ballotCount].creationDate = now;\r\n    deployedBallots[ballotCount].expirationDate = now + amounthours;\r\n    \r\n\r\n    for (uint i = 0;i < presCands.length; i++){\r\n        deployedBallots[ballotCount].presidentialCandidates[presCands[i].id].id = presCands[i].id;\r\n        deployedBallots[ballotCount].presidentialCandidates[presCands[i].id].name = presCands[i].name;\r\n        deployedBallots[ballotCount].presidentialCandidates[presCands[i].id].party = presCands[i].party;\r\n        deployedBallots[ballotCount].presidentialCandidates[presCands[i].id].manifesto = presCands[i].manifesto;\r\n        deployedBallots[ballotCount].presidentialCandidates[presCands[i].id].voteCount = presCands[i].voteCount;\r\n        deployedBallots[ballotCount].presidentialCandidates[presCands[i].id].imgURL = presCands[i].imgURL;\r\n        candidateCount++;\r\n\r\n    }\r\n\r\n    for (uint i = 0;i < parlCands.length; i++){\r\n        deployedBallots[ballotCount].parliamentaryCandidates[parlCands[i].id].id = parlCands[i].id;\r\n        deployedBallots[ballotCount].parliamentaryCandidates[parlCands[i].id].name = parlCands[i].name;\r\n        deployedBallots[ballotCount].parliamentaryCandidates[parlCands[i].id].manifesto = parlCands[i].manifesto;\r\n        deployedBallots[ballotCount].parliamentaryCandidates[parlCands[i].id].party = parlCands[i].party;\r\n        deployedBallots[ballotCount].parliamentaryCandidates[parlCands[i].id].district = parlCands[i].district;\r\n        deployedBallots[ballotCount].parliamentaryCandidates[parlCands[i].id].voteCount = parlCands[i].voteCount;\r\n        deployedBallots[ballotCount].districts[parlCands[i].id].district = parlCands[i].district;\r\n        deployedBallots[ballotCount].presidentialCandidates[presCands[i].id].imgURL = presCands[i].imgURL;\r\n        deployedBallots[ballotCount].districts[parlCands[i].id].voteCount = parlCands[i].voteCount;\r\n    \r\n    }\r\n\r\n    \r\n\r\n\r\nballotCount++;\r\nballotid++;\r\n\r\n     \r\n\r\n}\r\n\r\n\r\nfunction voteForPresident(uint candidateid, uint electionid)public { \r\n\r\n   require(!voters[msg.sender].pres); \r\n\r\n    if(now > deployedBallots[electionid].expirationDate){ \r\n        revert();\r\n } \r\ndeployedBallots[electionid].presidentialCandidates[candidateid].voteCount += 1;\r\nvoters[msg.sender].pres = true; \r\n}\r\n\r\nfunction voteForParliament(uint candidateid, uint electionid)public { \r\n\r\n    require(!voters[msg.sender].parl); \r\n\r\n    if(now > deployedBallots[electionid].expirationDate){ \r\n        revert();\r\n} \r\ndeployedBallots[electionid].districts[candidateid].voteCount += 1;\r\nvoters[msg.sender].parl = true; \r\n}\r\n\r\n\r\nfunction getPresidentialVoteCount(uint candidateid,uint electionid) public view returns(uint){\r\n    return deployedBallots[electionid].presidentialCandidates[candidateid].voteCount;\r\n}\r\n\r\nfunction getParliamentaryVoteCount(uint candidateid,uint electionid) public view returns(uint) {\r\n    return deployedBallots[electionid].districts[candidateid].voteCount;\r\n    \r\n}\r\n function getDeployedBallots(uint id) public view returns(uint ballotid,uint creationDate,uint expirationDate) { \r\n     return (deployedBallots[id].ballotid,deployedBallots[id].creationDate,deployedBallots[id].expirationDate);\r\n }\r\n\r\n function getPresidentialCount() public view returns(uint count){\r\n     return candidateCount;\r\n }\r\nfunction getPresidentialCandidates(uint electionid,uint i) public view returns(uint id,string memory name,\r\n string memory party, string memory manifesto,uint count, string memory imgURL){\r\n uint cid = deployedBallots[electionid].presidentialCandidates[i].id;\r\n string memory cname = deployedBallots[electionid].presidentialCandidates[i].name;\r\n string memory manifesto = deployedBallots[electionid].presidentialCandidates[i].manifesto;\r\n string memory cparty = deployedBallots[electionid].presidentialCandidates[i].party;\r\n string memory img = deployedBallots[electionid].presidentialCandidates[i].imgURL;\r\n uint  votecount = deployedBallots[electionid].presidentialCandidates[i].voteCount;\r\n return(cid,cname,cparty,manifesto,votecount,img);\r\n    \r\n\r\n }\r\n\r\n}\r\n",
  "sourcePath": "C:/Users/deedat/Desktop/myfinalyearproject/contracts/ElectionCreation.sol",
  "compiler": {
    "name": "solc",
    "version": "0.5.12+commit.7709ece9.Emscripten.clang"
  },
  "schemaVersion": "3.0.20",
  "updatedAt": "2020-03-08T07:44:25.069Z",
  "networkType": "ethereum",
  "devdoc": {
    "methods": {}
  },
  "userdoc": {
    "methods": {}
  }
}