{
  "contractName": "ElectionCreation",
  "abi": [
    {
      "inputs": [],
      "payable": false,
      "stateMutability": "nonpayable",
      "type": "constructor"
    },
    {
      "constant": true,
      "inputs": [],
      "name": "candidateCount",
      "outputs": [
        {
          "internalType": "uint256",
          "name": "",
          "type": "uint256"
        }
      ],
      "payable": false,
      "stateMutability": "view",
      "type": "function"
    },
    {
      "constant": true,
      "inputs": [
        {
          "internalType": "uint256",
          "name": "",
          "type": "uint256"
        }
      ],
      "name": "deployedBallots",
      "outputs": [
        {
          "internalType": "uint256",
          "name": "ballotid",
          "type": "uint256"
        },
        {
          "internalType": "uint256",
          "name": "creationDate",
          "type": "uint256"
        },
        {
          "internalType": "uint256",
          "name": "expirationDate",
          "type": "uint256"
        }
      ],
      "payable": false,
      "stateMutability": "view",
      "type": "function"
    },
    {
      "constant": true,
      "inputs": [],
      "name": "manager",
      "outputs": [
        {
          "internalType": "address",
          "name": "",
          "type": "address"
        }
      ],
      "payable": false,
      "stateMutability": "view",
      "type": "function"
    },
    {
      "constant": true,
      "inputs": [
        {
          "internalType": "address",
          "name": "",
          "type": "address"
        }
      ],
      "name": "voters",
      "outputs": [
        {
          "internalType": "bool",
          "name": "pres",
          "type": "bool"
        },
        {
          "internalType": "bool",
          "name": "parl",
          "type": "bool"
        }
      ],
      "payable": false,
      "stateMutability": "view",
      "type": "function"
    },
    {
      "constant": false,
      "inputs": [
        {
          "components": [
            {
              "internalType": "uint256",
              "name": "id",
              "type": "uint256"
            },
            {
              "internalType": "string",
              "name": "presname",
              "type": "string"
            },
            {
              "internalType": "string",
              "name": "party",
              "type": "string"
            },
            {
              "internalType": "uint256",
              "name": "voteCount",
              "type": "uint256"
            }
          ],
          "internalType": "struct ElectionCreation.Presidential[]",
          "name": "presCands",
          "type": "tuple[]"
        },
        {
          "components": [
            {
              "internalType": "uint256",
              "name": "id",
              "type": "uint256"
            },
            {
              "internalType": "string",
              "name": "parlname",
              "type": "string"
            },
            {
              "internalType": "string",
              "name": "party",
              "type": "string"
            },
            {
              "internalType": "string",
              "name": "districtname",
              "type": "string"
            },
            {
              "internalType": "uint256",
              "name": "voteCount",
              "type": "uint256"
            }
          ],
          "internalType": "struct ElectionCreation.Parliamentary[]",
          "name": "parlCands",
          "type": "tuple[]"
        },
        {
          "internalType": "uint256",
          "name": "amounthours",
          "type": "uint256"
        },
        {
          "internalType": "address",
          "name": "creator",
          "type": "address"
        }
      ],
      "name": "CreateElection",
      "outputs": [],
      "payable": false,
      "stateMutability": "nonpayable",
      "type": "function"
    },
    {
      "constant": false,
      "inputs": [
        {
          "internalType": "uint256",
          "name": "candidateid",
          "type": "uint256"
        },
        {
          "internalType": "uint256",
          "name": "electionid",
          "type": "uint256"
        }
      ],
      "name": "voteForPresident",
      "outputs": [],
      "payable": false,
      "stateMutability": "nonpayable",
      "type": "function"
    },
    {
      "constant": false,
      "inputs": [
        {
          "internalType": "uint256",
          "name": "candidateid",
          "type": "uint256"
        },
        {
          "internalType": "uint256",
          "name": "electionid",
          "type": "uint256"
        }
      ],
      "name": "voteForParliament",
      "outputs": [],
      "payable": false,
      "stateMutability": "nonpayable",
      "type": "function"
    },
    {
      "constant": true,
      "inputs": [
        {
          "internalType": "uint256",
          "name": "candidateid",
          "type": "uint256"
        },
        {
          "internalType": "uint256",
          "name": "electionid",
          "type": "uint256"
        }
      ],
      "name": "getPresidentialVoteCount",
      "outputs": [
        {
          "internalType": "uint256",
          "name": "",
          "type": "uint256"
        }
      ],
      "payable": false,
      "stateMutability": "view",
      "type": "function"
    },
    {
      "constant": true,
      "inputs": [
        {
          "internalType": "uint256",
          "name": "candidateid",
          "type": "uint256"
        },
        {
          "internalType": "uint256",
          "name": "electionid",
          "type": "uint256"
        }
      ],
      "name": "getParliamentaryVoteCount",
      "outputs": [
        {
          "internalType": "uint256",
          "name": "",
          "type": "uint256"
        }
      ],
      "payable": false,
      "stateMutability": "view",
      "type": "function"
    },
    {
      "constant": true,
      "inputs": [
        {
          "internalType": "uint256",
          "name": "id",
          "type": "uint256"
        }
      ],
      "name": "getDeployedBallots",
      "outputs": [
        {
          "internalType": "uint256",
          "name": "ballotid",
          "type": "uint256"
        },
        {
          "internalType": "uint256",
          "name": "creationDate",
          "type": "uint256"
        },
        {
          "internalType": "uint256",
          "name": "expirationDate",
          "type": "uint256"
        }
      ],
      "payable": false,
      "stateMutability": "view",
      "type": "function"
    },
    {
      "constant": true,
      "inputs": [
        {
          "internalType": "uint256",
          "name": "electionid",
          "type": "uint256"
        },
        {
          "internalType": "uint256",
          "name": "i",
          "type": "uint256"
        }
      ],
      "name": "getPresidentialCandidates",
      "outputs": [
        {
          "internalType": "uint256",
          "name": "id",
          "type": "uint256"
        },
        {
          "internalType": "string",
          "name": "name",
          "type": "string"
        },
        {
          "internalType": "string",
          "name": "party",
          "type": "string"
        },
        {
          "internalType": "uint256",
          "name": "count",
          "type": "uint256"
        }
      ],
      "payable": false,
      "stateMutability": "view",
      "type": "function"
    }
  ],
  "bytecode": "0x60806040526000805534801561001457600080fd5b506000600260003373ffffffffffffffffffffffffffffffffffffffff1673ffffffffffffffffffffffffffffffffffffffff16815260200190815260200160002060000160006101000a81548160ff0219169083151502179055506000600260003373ffffffffffffffffffffffffffffffffffffffff1673ffffffffffffffffffffffffffffffffffffffff16815260200190815260200160002060000160016101000a81548160ff02191690831515021790555061150e806100da6000396000f3fe608060405234801561001057600080fd5b50600436106100a95760003560e01c8063b0473a2b11610071578063b0473a2b1461017d578063cdf74c3e146101ad578063d9635e0c146101df578063db3ad35a146101fb578063de257af31461022e578063e0f5bbf11461024a576100a9565b8063481c6a75146100ae578063484cb1a8146100cc5780636abfe4c9146100fc578063a3ec138d1461012e578063a9a981a31461015f575b600080fd5b6100b6610266565b6040516100c39190611254565b60405180910390f35b6100e660048036036100e191908101906111b2565b61028c565b6040516100f39190611298565b60405180910390f35b61011660048036036101119190810190611189565b6102c1565b60405161012593929190611306565b60405180910390f35b610148600480360361014391908101906110cd565b610318565b60405161015692919061126f565b60405180910390f35b610167610356565b6040516101749190611298565b60405180910390f35b610197600480360361019291908101906111b2565b61035c565b6040516101a49190611298565b60405180910390f35b6101c760048036036101c29190810190611189565b610391565b6040516101d693929190611306565b60405180910390f35b6101f960048036036101f491908101906111b2565b6103bb565b005b610215600480360361021091908101906111b2565b6104cf565b60405161022594939291906112b3565b60405180910390f35b610248600480360361024391908101906111b2565b6106da565b005b610264600480360361025f91908101906110f6565b6107ee565b005b600360009054906101000a900473ffffffffffffffffffffffffffffffffffffffff1681565b600060016000838152602001908152602001600020600301600084815260200190815260200160002060010154905092915050565b60008060006001600085815260200190815260200160002060000154600160008681526020019081526020016000206004015460016000878152602001908152602001600020600501549250925092509193909250565b60026020528060005260406000206000915090508060000160009054906101000a900460ff16908060000160019054906101000a900460ff16905082565b60005481565b600060016000838152602001908152602001600020600101600084815260200190815260200160002060030154905092915050565b60016020528060005260406000206000915090508060000154908060040154908060050154905083565b600260003373ffffffffffffffffffffffffffffffffffffffff1673ffffffffffffffffffffffffffffffffffffffff16815260200190815260200160002060000160009054906101000a900460ff161561041557600080fd5b600160008281526020019081526020016000206005015442111561043857600080fd5b60018060008381526020019081526020016000206001016000848152602001908152602001600020600301600082825401925050819055506001600260003373ffffffffffffffffffffffffffffffffffffffff1673ffffffffffffffffffffffffffffffffffffffff16815260200190815260200160002060000160006101000a81548160ff0219169083151502179055505050565b600060608060008060016000888152602001908152602001600020600101600087815260200190815260200160002060000154905060606001600089815260200190815260200160002060010160008881526020019081526020016000206001018054600181600116156101000203166002900480601f0160208091040260200160405190810160405280929190818152602001828054600181600116156101000203166002900480156105c45780601f10610599576101008083540402835291602001916105c4565b820191906000526020600020905b8154815290600101906020018083116105a757829003601f168201915b505050505090506060600160008a815260200190815260200160002060010160008981526020019081526020016000206002018054600181600116156101000203166002900480601f01602080910402602001604051908101604052809291908181526020018280546001816001161561010002031660029004801561068b5780601f106106605761010080835404028352916020019161068b565b820191906000526020600020905b81548152906001019060200180831161066e57829003601f168201915b505050505090506000600160008b815260200190815260200160002060010160008a81526020019081526020016000206003015490508383838397509750975097505050505092959194509250565b600260003373ffffffffffffffffffffffffffffffffffffffff1673ffffffffffffffffffffffffffffffffffffffff16815260200190815260200160002060000160019054906101000a900460ff161561073457600080fd5b600160008281526020019081526020016000206005015442111561075757600080fd5b60018060008381526020019081526020016000206003016000848152602001908152602001600020600101600082825401925050819055506001600260003373ffffffffffffffffffffffffffffffffffffffff1673ffffffffffffffffffffffffffffffffffffffff16815260200190815260200160002060000160016101000a81548160ff0219169083151502179055505050565b6000809050600080905082600360006101000a81548173ffffffffffffffffffffffffffffffffffffffff021916908373ffffffffffffffffffffffffffffffffffffffff160217905550816001600083815260200190815260200160002060000181905550426001600083815260200190815260200160002060040181905550834201600160008381526020019081526020016000206005018190555060008090505b8651811015610a3c578681815181106108a757fe5b6020026020010151600001516001600084815260200190815260200160002060010160008984815181106108d757fe5b60200260200101516000015181526020019081526020016000206000018190555086818151811061090457fe5b60200260200101516020015160016000848152602001908152602001600020600101600089848151811061093457fe5b60200260200101516000015181526020019081526020016000206001019080519060200190610964929190610d4e565b5086818151811061097157fe5b6020026020010151604001516001600084815260200190815260200160002060010160008984815181106109a157fe5b602002602001015160000151815260200190815260200160002060020190805190602001906109d1929190610d4e565b508681815181106109de57fe5b602002602001015160600151600160008481526020019081526020016000206001016000898481518110610a0e57fe5b6020026020010151600001518152602001908152602001600020600301819055508080600101915050610892565b5060008090505b8551811015610d2457858181518110610a5857fe5b602002602001015160000151600160008481526020019081526020016000206002016000888481518110610a8857fe5b602002602001015160000151815260200190815260200160002060000181905550858181518110610ab557fe5b602002602001015160200151600160008481526020019081526020016000206002016000888481518110610ae557fe5b60200260200101516000015181526020019081526020016000206001019080519060200190610b15929190610d4e565b50858181518110610b2257fe5b602002602001015160400151600160008481526020019081526020016000206002016000888481518110610b5257fe5b60200260200101516000015181526020019081526020016000206002019080519060200190610b82929190610d4e565b50858181518110610b8f57fe5b602002602001015160600151600160008481526020019081526020016000206002016000888481518110610bbf57fe5b60200260200101516000015181526020019081526020016000206003019080519060200190610bef929190610d4e565b50858181518110610bfc57fe5b602002602001015160800151600160008481526020019081526020016000206002016000888481518110610c2c57fe5b602002602001015160000151815260200190815260200160002060040181905550858181518110610c5957fe5b602002602001015160600151600160008481526020019081526020016000206003016000888481518110610c8957fe5b60200260200101516000015181526020019081526020016000206000019080519060200190610cb9929190610d4e565b50858181518110610cc657fe5b602002602001015160800151600160008481526020019081526020016000206003016000888481518110610cf657fe5b6020026020010151600001518152602001908152602001600020600101819055508080600101915050610a43565b50808060010191505081806001019250506000808154809291906001019190505550505050505050565b828054600181600116156101000203166002900490600052602060002090601f016020900481019282601f10610d8f57805160ff1916838001178555610dbd565b82800160010185558215610dbd579182015b82811115610dbc578251825591602001919060010190610da1565b5b509050610dca9190610dce565b5090565b610df091905b80821115610dec576000816000905550600101610dd4565b5090565b90565b600081359050610e028161149d565b92915050565b600082601f830112610e1957600080fd5b8135610e2c610e278261136a565b61133d565b9150818183526020840193506020810190508360005b83811015610e725781358601610e588882610f44565b845260208401935060208301925050600181019050610e42565b5050505092915050565b600082601f830112610e8d57600080fd5b8135610ea0610e9b82611392565b61133d565b9150818183526020840193506020810190508360005b83811015610ee65781358601610ecc8882611014565b845260208401935060208301925050600181019050610eb6565b5050505092915050565b600082601f830112610f0157600080fd5b8135610f14610f0f826113ba565b61133d565b91508082526020830160208301858383011115610f3057600080fd5b610f3b83828461144a565b50505092915050565b600060a08284031215610f5657600080fd5b610f6060a061133d565b90506000610f70848285016110b8565b600083015250602082013567ffffffffffffffff811115610f9057600080fd5b610f9c84828501610ef0565b602083015250604082013567ffffffffffffffff811115610fbc57600080fd5b610fc884828501610ef0565b604083015250606082013567ffffffffffffffff811115610fe857600080fd5b610ff484828501610ef0565b6060830152506080611008848285016110b8565b60808301525092915050565b60006080828403121561102657600080fd5b611030608061133d565b90506000611040848285016110b8565b600083015250602082013567ffffffffffffffff81111561106057600080fd5b61106c84828501610ef0565b602083015250604082013567ffffffffffffffff81111561108c57600080fd5b61109884828501610ef0565b60408301525060606110ac848285016110b8565b60608301525092915050565b6000813590506110c7816114b4565b92915050565b6000602082840312156110df57600080fd5b60006110ed84828501610df3565b91505092915050565b6000806000806080858703121561110c57600080fd5b600085013567ffffffffffffffff81111561112657600080fd5b61113287828801610e7c565b945050602085013567ffffffffffffffff81111561114f57600080fd5b61115b87828801610e08565b935050604061116c878288016110b8565b925050606061117d87828801610df3565b91505092959194509250565b60006020828403121561119b57600080fd5b60006111a9848285016110b8565b91505092915050565b600080604083850312156111c557600080fd5b60006111d3858286016110b8565b92505060206111e4858286016110b8565b9150509250929050565b6111f781611402565b82525050565b61120681611414565b82525050565b6000611217826113e6565b61122181856113f1565b9350611231818560208601611459565b61123a8161148c565b840191505092915050565b61124e81611440565b82525050565b600060208201905061126960008301846111ee565b92915050565b600060408201905061128460008301856111fd565b61129160208301846111fd565b9392505050565b60006020820190506112ad6000830184611245565b92915050565b60006080820190506112c86000830187611245565b81810360208301526112da818661120c565b905081810360408301526112ee818561120c565b90506112fd6060830184611245565b95945050505050565b600060608201905061131b6000830186611245565b6113286020830185611245565b6113356040830184611245565b949350505050565b6000604051905081810181811067ffffffffffffffff8211171561136057600080fd5b8060405250919050565b600067ffffffffffffffff82111561138157600080fd5b602082029050602081019050919050565b600067ffffffffffffffff8211156113a957600080fd5b602082029050602081019050919050565b600067ffffffffffffffff8211156113d157600080fd5b601f19601f8301169050602081019050919050565b600081519050919050565b600082825260208201905092915050565b600061140d82611420565b9050919050565b60008115159050919050565b600073ffffffffffffffffffffffffffffffffffffffff82169050919050565b6000819050919050565b82818337600083830152505050565b60005b8381101561147757808201518184015260208101905061145c565b83811115611486576000848401525b50505050565b6000601f19601f8301169050919050565b6114a681611402565b81146114b157600080fd5b50565b6114bd81611440565b81146114c857600080fd5b5056fea365627a7a723158205972f3fc9dcca7c564a6c2a38129bd44214b3eb2d187b26c505d8096b87215046c6578706572696d656e74616cf564736f6c634300050c0040",
  "source": "pragma solidity >=0.4.22 <0.6.0;\r\npragma experimental ABIEncoderV2;\r\n\r\n\r\ncontract ElectionCreation {\r\nuint public candidateCount = 0;\r\nmapping(uint=>Ballot) public deployedBallots;\r\nmapping(address=>vote_right) public voters;\r\naddress public manager;\r\n\r\nstruct vote_right{\r\n    bool pres;\r\n    bool parl;\r\n}\r\nstruct Ballot{\r\n        uint ballotid;\r\n        mapping(uint=>Presidential) presidentialCandidates;\r\n        mapping(uint=>Parliamentary) parliamentaryCandidates;\r\n        mapping(uint=>district) districts;\r\n        uint creationDate;\r\n        uint expirationDate;\r\n}\r\n struct Presidential{\r\n     uint id;\r\n     string presname;\r\n     string party;\r\n     uint voteCount;\r\n\r\n }\r\n\r\n struct Parliamentary{\r\n     uint id;\r\n     string parlname;\r\n     string party;\r\n     string districtname;\r\n     uint voteCount;\r\n     \r\n }\r\nstruct district{\r\n    string districtname;\r\n    uint voteCount;\r\n}\r\nmodifier restricted() { \r\n    require(msg.sender == manager); _;\r\n}\r\nconstructor () public { \r\n    \r\n   voters[msg.sender].pres = false;\r\n   voters[msg.sender].parl = false;\r\n}\r\n\r\nfunction CreateElection(Presidential[] memory presCands,Parliamentary[] memory parlCands,\r\nuint amounthours, address creator)public {\r\n    uint ballotid = 0;\r\n    uint ballotCount = 0;\r\n    manager = creator;\r\n    \r\n    deployedBallots[ballotCount].ballotid = ballotid;\r\n    deployedBallots[ballotCount].creationDate = now;\r\n    deployedBallots[ballotCount].expirationDate = now + amounthours;\r\n    \r\n\r\n    for (uint i = 0;i < presCands.length; i++){\r\n        deployedBallots[ballotCount].presidentialCandidates[presCands[i].id].id = presCands[i].id;\r\n        deployedBallots[ballotCount].presidentialCandidates[presCands[i].id].presname = presCands[i].presname;\r\n        deployedBallots[ballotCount].presidentialCandidates[presCands[i].id].party = presCands[i].party;\r\n        deployedBallots[ballotCount].presidentialCandidates[presCands[i].id].voteCount = presCands[i].voteCount;\r\n\r\n    }\r\n\r\n    for (uint i = 0;i < parlCands.length; i++){\r\n        deployedBallots[ballotCount].parliamentaryCandidates[parlCands[i].id].id = parlCands[i].id;\r\n        deployedBallots[ballotCount].parliamentaryCandidates[parlCands[i].id].parlname = parlCands[i].parlname;\r\n        deployedBallots[ballotCount].parliamentaryCandidates[parlCands[i].id].party = parlCands[i].party;\r\n        deployedBallots[ballotCount].parliamentaryCandidates[parlCands[i].id].districtname = parlCands[i].districtname;\r\n        deployedBallots[ballotCount].parliamentaryCandidates[parlCands[i].id].voteCount = parlCands[i].voteCount;\r\n        deployedBallots[ballotCount].districts[parlCands[i].id].districtname = parlCands[i].districtname;\r\n        deployedBallots[ballotCount].districts[parlCands[i].id].voteCount = parlCands[i].voteCount;\r\n    \r\n    }\r\n\r\n    \r\n\r\n\r\nballotCount++;\r\nballotid++;\r\ncandidateCount++;\r\n     \r\n\r\n}\r\n\r\nfunction voteForPresident(uint candidateid, uint electionid)public { \r\n\r\n   require(!voters[msg.sender].pres); \r\n\r\n    if(now > deployedBallots[electionid].expirationDate){ \r\n        revert();\r\n } \r\ndeployedBallots[electionid].presidentialCandidates[candidateid].voteCount += 1;\r\nvoters[msg.sender].pres = true; \r\n}\r\n\r\nfunction voteForParliament(uint candidateid, uint electionid)public { \r\n\r\n    require(!voters[msg.sender].parl); \r\n\r\n    if(now > deployedBallots[electionid].expirationDate){ \r\n        revert();\r\n} \r\ndeployedBallots[electionid].districts[candidateid].voteCount += 1;\r\nvoters[msg.sender].parl = true; \r\n}\r\n\r\n\r\nfunction getPresidentialVoteCount(uint candidateid,uint electionid) public view returns(uint){\r\n    return deployedBallots[electionid].presidentialCandidates[candidateid].voteCount;\r\n}\r\n\r\nfunction getParliamentaryVoteCount(uint candidateid,uint electionid) public view returns(uint) {\r\n    return deployedBallots[electionid].districts[candidateid].voteCount;\r\n    \r\n}\r\n function getDeployedBallots(uint id) public view returns(uint ballotid,uint creationDate,uint expirationDate) { \r\n     return (deployedBallots[id].ballotid,deployedBallots[id].creationDate,deployedBallots[id].expirationDate);\r\n }\r\nfunction getPresidentialCandidates(uint electionid,uint i) public view returns(uint id,string memory name,\r\n string memory party,uint count){\r\n uint cid = deployedBallots[electionid].presidentialCandidates[i].id;\r\n string memory cname = deployedBallots[electionid].presidentialCandidates[i].presname;\r\n string memory cparty = deployedBallots[electionid].presidentialCandidates[i].party;\r\n uint  votecount = deployedBallots[electionid].presidentialCandidates[i].voteCount;\r\n return(cid,cname,cparty,votecount);\r\n    \r\n\r\n }\r\n\r\n}\r\n",
  "sourcePath": "C:/Users/deedat/Desktop/myfinalyearproject/contracts/ElectionCreation.sol",
  "compiler": {
    "name": "solc",
    "version": "0.5.12+commit.7709ece9.Emscripten.clang"
  },
  "schemaVersion": "3.0.20",
  "updatedAt": "2020-01-11T17:19:14.518Z",
  "networkType": "ethereum",
  "devdoc": {
    "methods": {}
  },
  "userdoc": {
    "methods": {}
  }
}