{
  "contractName": "ElectionCreation",
  "abi": [
    {
      "inputs": [],
      "payable": false,
      "stateMutability": "nonpayable",
      "type": "constructor"
    },
    {
      "constant": true,
      "inputs": [],
      "name": "candidateCount",
      "outputs": [
        {
          "internalType": "uint256",
          "name": "",
          "type": "uint256"
        }
      ],
      "payable": false,
      "stateMutability": "view",
      "type": "function"
    },
    {
      "constant": true,
      "inputs": [
        {
          "internalType": "uint256",
          "name": "",
          "type": "uint256"
        }
      ],
      "name": "deployedBallots",
      "outputs": [
        {
          "internalType": "uint256",
          "name": "ballotid",
          "type": "uint256"
        },
        {
          "internalType": "uint256",
          "name": "creationDate",
          "type": "uint256"
        },
        {
          "internalType": "uint256",
          "name": "expirationDate",
          "type": "uint256"
        }
      ],
      "payable": false,
      "stateMutability": "view",
      "type": "function"
    },
    {
      "constant": true,
      "inputs": [],
      "name": "manager",
      "outputs": [
        {
          "internalType": "address",
          "name": "",
          "type": "address"
        }
      ],
      "payable": false,
      "stateMutability": "view",
      "type": "function"
    },
    {
      "constant": true,
      "inputs": [],
      "name": "parl_candidateCount",
      "outputs": [
        {
          "internalType": "uint256",
          "name": "",
          "type": "uint256"
        }
      ],
      "payable": false,
      "stateMutability": "view",
      "type": "function"
    },
    {
      "constant": true,
      "inputs": [
        {
          "internalType": "address",
          "name": "",
          "type": "address"
        }
      ],
      "name": "voters",
      "outputs": [
        {
          "internalType": "bool",
          "name": "pres",
          "type": "bool"
        },
        {
          "internalType": "bool",
          "name": "parl",
          "type": "bool"
        }
      ],
      "payable": false,
      "stateMutability": "view",
      "type": "function"
    },
    {
      "constant": false,
      "inputs": [
        {
          "components": [
            {
              "internalType": "uint256",
              "name": "id",
              "type": "uint256"
            },
            {
              "internalType": "string",
              "name": "name",
              "type": "string"
            },
            {
              "internalType": "string",
              "name": "party",
              "type": "string"
            },
            {
              "internalType": "string",
              "name": "manifesto",
              "type": "string"
            },
            {
              "internalType": "uint256",
              "name": "voteCount",
              "type": "uint256"
            },
            {
              "internalType": "string",
              "name": "imgURL",
              "type": "string"
            },
            {
              "internalType": "string",
              "name": "partyImg",
              "type": "string"
            }
          ],
          "internalType": "struct ElectionCreation.Presidential[]",
          "name": "presCands",
          "type": "tuple[]"
        },
        {
          "components": [
            {
              "internalType": "uint256",
              "name": "id",
              "type": "uint256"
            },
            {
              "internalType": "string",
              "name": "manifesto",
              "type": "string"
            },
            {
              "internalType": "string",
              "name": "name",
              "type": "string"
            },
            {
              "internalType": "string",
              "name": "party",
              "type": "string"
            },
            {
              "internalType": "string",
              "name": "district",
              "type": "string"
            },
            {
              "internalType": "uint256",
              "name": "voteCount",
              "type": "uint256"
            },
            {
              "internalType": "string",
              "name": "imgURL",
              "type": "string"
            },
            {
              "internalType": "string",
              "name": "partyImg",
              "type": "string"
            }
          ],
          "internalType": "struct ElectionCreation.Parliamentary[]",
          "name": "parlCands",
          "type": "tuple[]"
        },
        {
          "internalType": "uint256",
          "name": "amounthours",
          "type": "uint256"
        },
        {
          "internalType": "address",
          "name": "creator",
          "type": "address"
        }
      ],
      "name": "CreateElection",
      "outputs": [],
      "payable": false,
      "stateMutability": "nonpayable",
      "type": "function"
    },
    {
      "constant": false,
      "inputs": [
        {
          "internalType": "uint256",
          "name": "candidateid",
          "type": "uint256"
        },
        {
          "internalType": "uint256",
          "name": "electionid",
          "type": "uint256"
        }
      ],
      "name": "voteForPresident",
      "outputs": [],
      "payable": false,
      "stateMutability": "nonpayable",
      "type": "function"
    },
    {
      "constant": false,
      "inputs": [
        {
          "internalType": "uint256",
          "name": "candidateid",
          "type": "uint256"
        },
        {
          "internalType": "uint256",
          "name": "electionid",
          "type": "uint256"
        }
      ],
      "name": "voteForParliament",
      "outputs": [],
      "payable": false,
      "stateMutability": "nonpayable",
      "type": "function"
    },
    {
      "constant": true,
      "inputs": [
        {
          "internalType": "uint256",
          "name": "id",
          "type": "uint256"
        }
      ],
      "name": "getDeployedBallots",
      "outputs": [
        {
          "internalType": "uint256",
          "name": "ballotid",
          "type": "uint256"
        },
        {
          "internalType": "uint256",
          "name": "creationDate",
          "type": "uint256"
        },
        {
          "internalType": "uint256",
          "name": "expirationDate",
          "type": "uint256"
        }
      ],
      "payable": false,
      "stateMutability": "view",
      "type": "function"
    },
    {
      "constant": true,
      "inputs": [],
      "name": "getPresidentialCount",
      "outputs": [
        {
          "internalType": "uint256",
          "name": "count",
          "type": "uint256"
        }
      ],
      "payable": false,
      "stateMutability": "view",
      "type": "function"
    },
    {
      "constant": true,
      "inputs": [],
      "name": "getParliamentaryCount",
      "outputs": [
        {
          "internalType": "uint256",
          "name": "count",
          "type": "uint256"
        }
      ],
      "payable": false,
      "stateMutability": "view",
      "type": "function"
    },
    {
      "constant": true,
      "inputs": [
        {
          "internalType": "uint256",
          "name": "candidateid",
          "type": "uint256"
        },
        {
          "internalType": "uint256",
          "name": "electionid",
          "type": "uint256"
        }
      ],
      "name": "getPresidentialVoteCount",
      "outputs": [
        {
          "internalType": "uint256",
          "name": "",
          "type": "uint256"
        }
      ],
      "payable": false,
      "stateMutability": "view",
      "type": "function"
    },
    {
      "constant": true,
      "inputs": [
        {
          "internalType": "uint256",
          "name": "candidateid",
          "type": "uint256"
        },
        {
          "internalType": "uint256",
          "name": "electionid",
          "type": "uint256"
        }
      ],
      "name": "getParliamentaryVoteCount",
      "outputs": [
        {
          "internalType": "uint256",
          "name": "",
          "type": "uint256"
        }
      ],
      "payable": false,
      "stateMutability": "view",
      "type": "function"
    },
    {
      "constant": true,
      "inputs": [
        {
          "internalType": "uint256",
          "name": "electionid",
          "type": "uint256"
        },
        {
          "internalType": "uint256",
          "name": "i",
          "type": "uint256"
        }
      ],
      "name": "getPresidentialCandidates",
      "outputs": [
        {
          "internalType": "uint256",
          "name": "id",
          "type": "uint256"
        },
        {
          "internalType": "string",
          "name": "name",
          "type": "string"
        },
        {
          "internalType": "string",
          "name": "party",
          "type": "string"
        },
        {
          "internalType": "string",
          "name": "manifesto",
          "type": "string"
        },
        {
          "internalType": "uint256",
          "name": "count",
          "type": "uint256"
        },
        {
          "internalType": "string",
          "name": "imgURL",
          "type": "string"
        },
        {
          "internalType": "string",
          "name": "partyImg",
          "type": "string"
        }
      ],
      "payable": false,
      "stateMutability": "view",
      "type": "function"
    },
    {
      "constant": true,
      "inputs": [
        {
          "internalType": "uint256",
          "name": "electionid",
          "type": "uint256"
        },
        {
          "internalType": "uint256",
          "name": "i",
          "type": "uint256"
        }
      ],
      "name": "getParliamentaryCandidates",
      "outputs": [
        {
          "internalType": "uint256",
          "name": "id",
          "type": "uint256"
        },
        {
          "internalType": "string",
          "name": "name",
          "type": "string"
        },
        {
          "internalType": "string",
          "name": "party",
          "type": "string"
        },
        {
          "internalType": "string",
          "name": "manifesto",
          "type": "string"
        },
        {
          "internalType": "uint256",
          "name": "count",
          "type": "uint256"
        },
        {
          "internalType": "string",
          "name": "imgURL",
          "type": "string"
        },
        {
          "internalType": "string",
          "name": "partyImg",
          "type": "string"
        },
        {
          "internalType": "string",
          "name": "district",
          "type": "string"
        }
      ],
      "payable": false,
      "stateMutability": "view",
      "type": "function"
    }
  ],
  "bytecode": "0x608060405260008055600060015534801561001957600080fd5b506000600360003373ffffffffffffffffffffffffffffffffffffffff1673ffffffffffffffffffffffffffffffffffffffff16815260200190815260200160002060000160006101000a81548160ff0219169083151502179055506000600360003373ffffffffffffffffffffffffffffffffffffffff1673ffffffffffffffffffffffffffffffffffffffff16815260200190815260200160002060000160016101000a81548160ff021916908315150217905550612167806100df6000396000f3fe608060405234801561001057600080fd5b50600436106100f55760003560e01c8063a3ec138d11610097578063cdf74c3e11610066578063cdf74c3e146102a6578063d9635e0c146102d8578063db3ad35a146102f4578063de257af31461032a576100f5565b8063a3ec138d14610209578063a9a981a31461023a578063b0473a2b14610258578063c003418914610288576100f5565b80636abfe4c9116100d35780636abfe4c9146101665780637b63b77a1461019857806383bb4352146101b657806392205600146101d2576100f5565b80630267830c146100fa578063481c6a7514610118578063484cb1a814610136575b600080fd5b610102610346565b60405161010f9190611e0a565b60405180910390f35b61012061034c565b60405161012d9190611dc6565b60405180910390f35b610150600480360361014b9190810190611d24565b610372565b60405161015d9190611e0a565b60405180910390f35b610180600480360361017b9190810190611cfb565b6103a7565b60405161018f93929190611f5f565b60405180910390f35b6101a06103fe565b6040516101ad9190611e0a565b60405180910390f35b6101d060048036036101cb9190810190611c68565b610408565b005b6101ec60048036036101e79190810190611d24565b610c08565b604051610200989796959493929190611eb7565b60405180910390f35b610223600480360361021e9190810190611c3f565b61108b565b604051610231929190611de1565b60405180910390f35b6102426110c9565b60405161024f9190611e0a565b60405180910390f35b610272600480360361026d9190810190611d24565b6110cf565b60405161027f9190611e0a565b60405180910390f35b610290611104565b60405161029d9190611e0a565b60405180910390f35b6102c060048036036102bb9190810190611cfb565b61110d565b6040516102cf93929190611f5f565b60405180910390f35b6102f260048036036102ed9190810190611d24565b611137565b005b61030e60048036036103099190810190611d24565b61124c565b6040516103219796959493929190611e25565b60405180910390f35b610344600480360361033f9190810190611d24565b61161f565b005b60015481565b600460009054906101000a900473ffffffffffffffffffffffffffffffffffffffff1681565b600060026000838152602001908152602001600020600301600084815260200190815260200160002060010154905092915050565b60008060006002600085815260200190815260200160002060000154600260008681526020019081526020016000206004015460026000878152602001908152602001600020600501549250925092509193909250565b6000600154905090565b6000809050600080905082600460006101000a81548173ffffffffffffffffffffffffffffffffffffffff021916908373ffffffffffffffffffffffffffffffffffffffff160217905550816002600083815260200190815260200160002060000181905550426002600083815260200190815260200160002060040181905550834201600260008381526020019081526020016000206005018190555060008090505b86518110156107ae578681815181106104c157fe5b6020026020010151600001516002600084815260200190815260200160002060010160008984815181106104f157fe5b60200260200101516000015181526020019081526020016000206000018190555086818151811061051e57fe5b60200260200101516020015160026000848152602001908152602001600020600101600089848151811061054e57fe5b6020026020010151600001518152602001908152602001600020600101908051906020019061057e929190611734565b5086818151811061058b57fe5b6020026020010151604001516002600084815260200190815260200160002060010160008984815181106105bb57fe5b602002602001015160000151815260200190815260200160002060020190805190602001906105eb929190611734565b508681815181106105f857fe5b60200260200101516060015160026000848152602001908152602001600020600101600089848151811061062857fe5b60200260200101516000015181526020019081526020016000206003019080519060200190610658929190611734565b5086818151811061066557fe5b60200260200101516080015160026000848152602001908152602001600020600101600089848151811061069557fe5b6020026020010151600001518152602001908152602001600020600401819055508681815181106106c257fe5b602002602001015160a001516002600084815260200190815260200160002060010160008984815181106106f257fe5b60200260200101516000015181526020019081526020016000206005019080519060200190610722929190611734565b5086818151811061072f57fe5b602002602001015160c0015160026000848152602001908152602001600020600101600089848151811061075f57fe5b6020026020010151600001518152602001908152602001600020600601908051906020019061078f929190611734565b50600080815480929190600101919050555080806001019150506104ac565b5060008090505b8551811015610bef578581815181106107ca57fe5b6020026020010151600001516002600084815260200190815260200160002060020160008884815181106107fa57fe5b60200260200101516000015181526020019081526020016000206000018190555085818151811061082757fe5b60200260200101516040015160026000848152602001908152602001600020600201600088848151811061085757fe5b60200260200101516000015181526020019081526020016000206002019080519060200190610887929190611734565b5085818151811061089457fe5b6020026020010151602001516002600084815260200190815260200160002060020160008884815181106108c457fe5b602002602001015160000151815260200190815260200160002060010190805190602001906108f4929190611734565b5085818151811061090157fe5b60200260200101516060015160026000848152602001908152602001600020600201600088848151811061093157fe5b60200260200101516000015181526020019081526020016000206003019080519060200190610961929190611734565b5085818151811061096e57fe5b60200260200101516080015160026000848152602001908152602001600020600201600088848151811061099e57fe5b602002602001015160000151815260200190815260200160002060040190805190602001906109ce929190611734565b508581815181106109db57fe5b602002602001015160a00151600260008481526020019081526020016000206002016000888481518110610a0b57fe5b602002602001015160000151815260200190815260200160002060050181905550858181518110610a3857fe5b602002602001015160800151600260008481526020019081526020016000206003016000888481518110610a6857fe5b60200260200101516000015181526020019081526020016000206000019080519060200190610a98929190611734565b50868181518110610aa557fe5b602002602001015160a00151600260008481526020019081526020016000206001016000898481518110610ad557fe5b60200260200101516000015181526020019081526020016000206005019080519060200190610b05929190611734565b50868181518110610b1257fe5b602002602001015160c00151600260008481526020019081526020016000206001016000898481518110610b4257fe5b60200260200101516000015181526020019081526020016000206006019080519060200190610b72929190611734565b50858181518110610b7f57fe5b602002602001015160a00151600260008481526020019081526020016000206003016000888481518110610baf57fe5b60200260200101516000015181526020019081526020016000206001018190555060016000815480929190600101919050555080806001019150506107b5565b5080806001019150508180600101925050505050505050565b6000606080606060006060806060610c1e6117b4565b600260008c815260200190815260200160002060020160008b81526020019081526020016000206040518061010001604052908160008201548152602001600182018054600181600116156101000203166002900480601f016020809104026020016040519081016040528092919081815260200182805460018160011615610100020316600290048015610cf45780601f10610cc957610100808354040283529160200191610cf4565b820191906000526020600020905b815481529060010190602001808311610cd757829003601f168201915b50505050508152602001600282018054600181600116156101000203166002900480601f016020809104026020016040519081016040528092919081815260200182805460018160011615610100020316600290048015610d965780601f10610d6b57610100808354040283529160200191610d96565b820191906000526020600020905b815481529060010190602001808311610d7957829003601f168201915b50505050508152602001600382018054600181600116156101000203166002900480601f016020809104026020016040519081016040528092919081815260200182805460018160011615610100020316600290048015610e385780601f10610e0d57610100808354040283529160200191610e38565b820191906000526020600020905b815481529060010190602001808311610e1b57829003601f168201915b50505050508152602001600482018054600181600116156101000203166002900480601f016020809104026020016040519081016040528092919081815260200182805460018160011615610100020316600290048015610eda5780601f10610eaf57610100808354040283529160200191610eda565b820191906000526020600020905b815481529060010190602001808311610ebd57829003601f168201915b5050505050815260200160058201548152602001600682018054600181600116156101000203166002900480601f016020809104026020016040519081016040528092919081815260200182805460018160011615610100020316600290048015610f865780601f10610f5b57610100808354040283529160200191610f86565b820191906000526020600020905b815481529060010190602001808311610f6957829003601f168201915b50505050508152602001600782018054600181600116156101000203166002900480601f0160208091040260200160405190810160405280929190818152602001828054600181600116156101000203166002900480156110285780601f10610ffd57610100808354040283529160200191611028565b820191906000526020600020905b81548152906001019060200180831161100b57829003601f168201915b505050505081525050905080600001518160400151826060015183602001518460a001518560c001518660e00151876080015186965085955084945082925081915080905098509850985098509850985098509850509295985092959890939650565b60036020528060005260406000206000915090508060000160009054906101000a900460ff16908060000160019054906101000a900460ff16905082565b60005481565b600060026000838152602001908152602001600020600101600084815260200190815260200160002060040154905092915050565b60008054905090565b60026020528060005260406000206000915090508060000154908060040154908060050154905083565b600360003373ffffffffffffffffffffffffffffffffffffffff1673ffffffffffffffffffffffffffffffffffffffff16815260200190815260200160002060000160009054906101000a900460ff161561119157600080fd5b60026000828152602001908152602001600020600501544211156111b457600080fd5b6001600260008381526020019081526020016000206001016000848152602001908152602001600020600401600082825401925050819055506001600360003373ffffffffffffffffffffffffffffffffffffffff1673ffffffffffffffffffffffffffffffffffffffff16815260200190815260200160002060000160006101000a81548160ff0219169083151502179055505050565b6000606080606060006060806112606117f9565b600260008b815260200190815260200160002060010160008a81526020019081526020016000206040518060e001604052908160008201548152602001600182018054600181600116156101000203166002900480601f0160208091040260200160405190810160405280929190818152602001828054600181600116156101000203166002900480156113355780601f1061130a57610100808354040283529160200191611335565b820191906000526020600020905b81548152906001019060200180831161131857829003601f168201915b50505050508152602001600282018054600181600116156101000203166002900480601f0160208091040260200160405190810160405280929190818152602001828054600181600116156101000203166002900480156113d75780601f106113ac576101008083540402835291602001916113d7565b820191906000526020600020905b8154815290600101906020018083116113ba57829003601f168201915b50505050508152602001600382018054600181600116156101000203166002900480601f0160208091040260200160405190810160405280929190818152602001828054600181600116156101000203166002900480156114795780601f1061144e57610100808354040283529160200191611479565b820191906000526020600020905b81548152906001019060200180831161145c57829003601f168201915b5050505050815260200160048201548152602001600582018054600181600116156101000203166002900480601f0160208091040260200160405190810160405280929190818152602001828054600181600116156101000203166002900480156115255780601f106114fa57610100808354040283529160200191611525565b820191906000526020600020905b81548152906001019060200180831161150857829003601f168201915b50505050508152602001600682018054600181600116156101000203166002900480601f0160208091040260200160405190810160405280929190818152602001828054600181600116156101000203166002900480156115c75780601f1061159c576101008083540402835291602001916115c7565b820191906000526020600020905b8154815290600101906020018083116115aa57829003601f168201915b5050505050815250509050806000015181602001518260400151836060015184608001518560a001518660c0015185955084945083935081915080905097509750975097509750975097505092959891949750929550565b600360003373ffffffffffffffffffffffffffffffffffffffff1673ffffffffffffffffffffffffffffffffffffffff16815260200190815260200160002060000160019054906101000a900460ff161561167957600080fd5b600260008281526020019081526020016000206005015442111561169c57600080fd5b6001600260008381526020019081526020016000206003016000848152602001908152602001600020600101600082825401925050819055506001600360003373ffffffffffffffffffffffffffffffffffffffff1673ffffffffffffffffffffffffffffffffffffffff16815260200190815260200160002060000160016101000a81548160ff0219169083151502179055505050565b828054600181600116156101000203166002900490600052602060002090601f016020900481019282601f1061177557805160ff19168380011785556117a3565b828001600101855582156117a3579182015b828111156117a2578251825591602001919060010190611787565b5b5090506117b09190611836565b5090565b60405180610100016040528060008152602001606081526020016060815260200160608152602001606081526020016000815260200160608152602001606081525090565b6040518060e00160405280600081526020016060815260200160608152602001606081526020016000815260200160608152602001606081525090565b61185891905b8082111561185457600081600090555060010161183c565b5090565b90565b60008135905061186a816120f6565b92915050565b600082601f83011261188157600080fd5b813561189461188f82611fc3565b611f96565b9150818183526020840193506020810190508360005b838110156118da57813586016118c088826119ac565b8452602084019350602083019250506001810190506118aa565b5050505092915050565b600082601f8301126118f557600080fd5b813561190861190382611feb565b611f96565b9150818183526020840193506020810190508360005b8381101561194e57813586016119348882611b02565b84526020840193506020830192505060018101905061191e565b5050505092915050565b600082601f83011261196957600080fd5b813561197c61197782612013565b611f96565b9150808252602083016020830185838301111561199857600080fd5b6119a38382846120a3565b50505092915050565b600061010082840312156119bf57600080fd5b6119ca610100611f96565b905060006119da84828501611c2a565b600083015250602082013567ffffffffffffffff8111156119fa57600080fd5b611a0684828501611958565b602083015250604082013567ffffffffffffffff811115611a2657600080fd5b611a3284828501611958565b604083015250606082013567ffffffffffffffff811115611a5257600080fd5b611a5e84828501611958565b606083015250608082013567ffffffffffffffff811115611a7e57600080fd5b611a8a84828501611958565b60808301525060a0611a9e84828501611c2a565b60a08301525060c082013567ffffffffffffffff811115611abe57600080fd5b611aca84828501611958565b60c08301525060e082013567ffffffffffffffff811115611aea57600080fd5b611af684828501611958565b60e08301525092915050565b600060e08284031215611b1457600080fd5b611b1e60e0611f96565b90506000611b2e84828501611c2a565b600083015250602082013567ffffffffffffffff811115611b4e57600080fd5b611b5a84828501611958565b602083015250604082013567ffffffffffffffff811115611b7a57600080fd5b611b8684828501611958565b604083015250606082013567ffffffffffffffff811115611ba657600080fd5b611bb284828501611958565b6060830152506080611bc684828501611c2a565b60808301525060a082013567ffffffffffffffff811115611be657600080fd5b611bf284828501611958565b60a08301525060c082013567ffffffffffffffff811115611c1257600080fd5b611c1e84828501611958565b60c08301525092915050565b600081359050611c398161210d565b92915050565b600060208284031215611c5157600080fd5b6000611c5f8482850161185b565b91505092915050565b60008060008060808587031215611c7e57600080fd5b600085013567ffffffffffffffff811115611c9857600080fd5b611ca4878288016118e4565b945050602085013567ffffffffffffffff811115611cc157600080fd5b611ccd87828801611870565b9350506040611cde87828801611c2a565b9250506060611cef8782880161185b565b91505092959194509250565b600060208284031215611d0d57600080fd5b6000611d1b84828501611c2a565b91505092915050565b60008060408385031215611d3757600080fd5b6000611d4585828601611c2a565b9250506020611d5685828601611c2a565b9150509250929050565b611d698161205b565b82525050565b611d788161206d565b82525050565b6000611d898261203f565b611d93818561204a565b9350611da38185602086016120b2565b611dac816120e5565b840191505092915050565b611dc081612099565b82525050565b6000602082019050611ddb6000830184611d60565b92915050565b6000604082019050611df66000830185611d6f565b611e036020830184611d6f565b9392505050565b6000602082019050611e1f6000830184611db7565b92915050565b600060e082019050611e3a600083018a611db7565b8181036020830152611e4c8189611d7e565b90508181036040830152611e608188611d7e565b90508181036060830152611e748187611d7e565b9050611e836080830186611db7565b81810360a0830152611e958185611d7e565b905081810360c0830152611ea98184611d7e565b905098975050505050505050565b600061010082019050611ecd600083018b611db7565b8181036020830152611edf818a611d7e565b90508181036040830152611ef38189611d7e565b90508181036060830152611f078188611d7e565b9050611f166080830187611db7565b81810360a0830152611f288186611d7e565b905081810360c0830152611f3c8185611d7e565b905081810360e0830152611f508184611d7e565b90509998505050505050505050565b6000606082019050611f746000830186611db7565b611f816020830185611db7565b611f8e6040830184611db7565b949350505050565b6000604051905081810181811067ffffffffffffffff82111715611fb957600080fd5b8060405250919050565b600067ffffffffffffffff821115611fda57600080fd5b602082029050602081019050919050565b600067ffffffffffffffff82111561200257600080fd5b602082029050602081019050919050565b600067ffffffffffffffff82111561202a57600080fd5b601f19601f8301169050602081019050919050565b600081519050919050565b600082825260208201905092915050565b600061206682612079565b9050919050565b60008115159050919050565b600073ffffffffffffffffffffffffffffffffffffffff82169050919050565b6000819050919050565b82818337600083830152505050565b60005b838110156120d05780820151818401526020810190506120b5565b838111156120df576000848401525b50505050565b6000601f19601f8301169050919050565b6120ff8161205b565b811461210a57600080fd5b50565b61211681612099565b811461212157600080fd5b5056fea365627a7a723158205252b6dfb314456d635bd02862cd5ff9a9797a9639eadc3180667acf44c03da46c6578706572696d656e74616cf564736f6c63430005100040",
  "source": "pragma solidity >=0.4.22 <0.6.0;\r\npragma experimental ABIEncoderV2;\r\n\r\n\r\ncontract ElectionCreation {\r\nuint public candidateCount = 0;\r\nuint public parl_candidateCount=0;\r\nmapping(uint=>Ballot) public deployedBallots;\r\nmapping(address=>vote_right) public voters;\r\naddress public manager;\r\n\r\nstruct vote_right{\r\n    bool pres;\r\n    bool parl;\r\n}\r\nstruct Ballot{\r\n        uint ballotid;\r\n        mapping(uint=>Presidential) presidentialCandidates;\r\n        mapping(uint=>Parliamentary) parliamentaryCandidates;\r\n        mapping(uint=>district) districts;\r\n        uint creationDate;\r\n        uint expirationDate;\r\n}\r\n struct Presidential{\r\n     uint id;\r\n     string name;\r\n     string party;\r\n     string manifesto;\r\n     uint voteCount;\r\n     string imgURL;\r\n     string partyImg;\r\n\r\n }\r\n\r\n struct Parliamentary{\r\n     uint id;\r\n     string manifesto;\r\n     string name;\r\n     string party;\r\n     string district;\r\n     uint voteCount;\r\n     string imgURL;\r\n     string partyImg;\r\n     \r\n }\r\nstruct district{\r\n    string district;\r\n    uint voteCount;\r\n}\r\nmodifier restricted() { \r\n    require(msg.sender == manager); _;\r\n}\r\nconstructor () public { \r\n    \r\n   voters[msg.sender].pres = false;\r\n   voters[msg.sender].parl = false;\r\n}\r\n\r\nfunction CreateElection(Presidential[] memory presCands,Parliamentary[] memory parlCands,\r\nuint amounthours, address creator)public {\r\n    uint ballotid = 0;\r\n    uint ballotCount = 0;\r\n    manager = creator;\r\n    \r\n    deployedBallots[ballotCount].ballotid = ballotid;\r\n    deployedBallots[ballotCount].creationDate = now;\r\n    deployedBallots[ballotCount].expirationDate = now + amounthours;\r\n    \r\n\r\n    for (uint i = 0;i < presCands.length; i++){\r\n        deployedBallots[ballotCount].presidentialCandidates[presCands[i].id].id = presCands[i].id;\r\n        deployedBallots[ballotCount].presidentialCandidates[presCands[i].id].name = presCands[i].name;\r\n        deployedBallots[ballotCount].presidentialCandidates[presCands[i].id].party = presCands[i].party;\r\n        deployedBallots[ballotCount].presidentialCandidates[presCands[i].id].manifesto = presCands[i].manifesto;\r\n        deployedBallots[ballotCount].presidentialCandidates[presCands[i].id].voteCount = presCands[i].voteCount;\r\n        deployedBallots[ballotCount].presidentialCandidates[presCands[i].id].imgURL = presCands[i].imgURL;\r\n        deployedBallots[ballotCount].presidentialCandidates[presCands[i].id].partyImg = presCands[i].partyImg;\r\n        candidateCount++;\r\n\r\n    }\r\n\r\n    for (uint i = 0;i < parlCands.length; i++){\r\n        deployedBallots[ballotCount].parliamentaryCandidates[parlCands[i].id].id = parlCands[i].id;\r\n        deployedBallots[ballotCount].parliamentaryCandidates[parlCands[i].id].name = parlCands[i].name;\r\n        deployedBallots[ballotCount].parliamentaryCandidates[parlCands[i].id].manifesto = parlCands[i].manifesto;\r\n        deployedBallots[ballotCount].parliamentaryCandidates[parlCands[i].id].party = parlCands[i].party;\r\n        deployedBallots[ballotCount].parliamentaryCandidates[parlCands[i].id].district = parlCands[i].district;\r\n        deployedBallots[ballotCount].parliamentaryCandidates[parlCands[i].id].voteCount = parlCands[i].voteCount;\r\n        deployedBallots[ballotCount].districts[parlCands[i].id].district = parlCands[i].district;\r\n        deployedBallots[ballotCount].presidentialCandidates[presCands[i].id].imgURL = presCands[i].imgURL;\r\n         deployedBallots[ballotCount].presidentialCandidates[presCands[i].id].partyImg = presCands[i].partyImg;\r\n        deployedBallots[ballotCount].districts[parlCands[i].id].voteCount = parlCands[i].voteCount;\r\n        parl_candidateCount++;\r\n    \r\n    }\r\n\r\n    \r\n\r\n\r\nballotCount++;\r\nballotid++;\r\n\r\n     \r\n\r\n}\r\n\r\n\r\nfunction voteForPresident(uint candidateid, uint electionid)public { \r\n\r\n   require(!voters[msg.sender].pres); \r\n\r\n    if(now > deployedBallots[electionid].expirationDate){ \r\n        revert();\r\n } \r\ndeployedBallots[electionid].presidentialCandidates[candidateid].voteCount += 1;\r\nvoters[msg.sender].pres = true; \r\n}\r\n\r\nfunction voteForParliament(uint candidateid, uint electionid)public { \r\n\r\n    require(!voters[msg.sender].parl); \r\n\r\n    if(now > deployedBallots[electionid].expirationDate){ \r\n        revert();\r\n} \r\ndeployedBallots[electionid].districts[candidateid].voteCount += 1;\r\nvoters[msg.sender].parl = true; \r\n}\r\n\r\n\r\n\r\n\r\n\r\n function getDeployedBallots(uint id) public view returns(uint ballotid,uint creationDate,uint expirationDate) { \r\n     return (deployedBallots[id].ballotid,deployedBallots[id].creationDate,deployedBallots[id].expirationDate);\r\n }\r\n\r\n function getPresidentialCount() public view returns(uint count){\r\n     return candidateCount;\r\n }\r\n function getParliamentaryCount() public view returns(uint count){\r\n     return parl_candidateCount;\r\n }\r\n function getPresidentialVoteCount(uint candidateid,uint electionid) public view returns(uint){\r\n    return deployedBallots[electionid].presidentialCandidates[candidateid].voteCount;\r\n}\r\n\r\nfunction getParliamentaryVoteCount(uint candidateid,uint electionid) public view returns(uint) {\r\n    return deployedBallots[electionid].districts[candidateid].voteCount;\r\n    \r\n}\r\nfunction getPresidentialCandidates(uint electionid,uint i) public view returns(uint id,string memory name,\r\n string memory party, string memory manifesto,uint count, string memory imgURL, string memory partyImg){\r\n Presidential memory p = deployedBallots[electionid].presidentialCandidates[i];\r\n return(p.id,p.name,p.party,p.manifesto,p.voteCount,p.imgURL,p.partyImg);\r\n    \r\n\r\n }\r\n\r\n function getParliamentaryCandidates(uint electionid,uint i) public view returns(uint id,string memory name,\r\n string memory party, string memory manifesto,uint count, string memory imgURL, string memory partyImg,string memory district){\r\n Parliamentary memory p = deployedBallots[electionid].parliamentaryCandidates[i];\r\n return(p.id,p.name,p.party,p.manifesto,p.voteCount,p.imgURL,p.partyImg,p.district);\r\n    \r\n\r\n }\r\n\r\n}\r\n",
  "sourcePath": "/media/deedat5/18B61B64B61B41A4/Users/deedat/Desktop/myfinalyearproject/contracts/ElectionCreation.sol",
  "compiler": {
    "name": "solc",
    "version": "0.5.16+commit.9c3226ce.Emscripten.clang"
  },
  "schemaVersion": "3.1.0",
  "updatedAt": "2020-04-19T17:54:37.588Z",
  "networkType": "ethereum",
  "devdoc": {
    "methods": {}
  },
  "userdoc": {
    "methods": {}
  }
}