{
  "contractName": "ElectionCreation",
  "abi": [
    {
      "inputs": [],
      "payable": false,
      "stateMutability": "nonpayable",
      "type": "constructor"
    },
    {
      "constant": true,
      "inputs": [
        {
          "internalType": "uint256",
          "name": "",
          "type": "uint256"
        }
      ],
      "name": "deployedBallots",
      "outputs": [
        {
          "internalType": "uint256",
          "name": "ballotid",
          "type": "uint256"
        },
        {
          "internalType": "uint256",
          "name": "creationDate",
          "type": "uint256"
        },
        {
          "internalType": "uint256",
          "name": "expirationDate",
          "type": "uint256"
        }
      ],
      "payable": false,
      "stateMutability": "view",
      "type": "function"
    },
    {
      "constant": true,
      "inputs": [],
      "name": "manager",
      "outputs": [
        {
          "internalType": "address",
          "name": "",
          "type": "address"
        }
      ],
      "payable": false,
      "stateMutability": "view",
      "type": "function"
    },
    {
      "constant": true,
      "inputs": [
        {
          "internalType": "address",
          "name": "",
          "type": "address"
        }
      ],
      "name": "voters",
      "outputs": [
        {
          "internalType": "bool",
          "name": "pres",
          "type": "bool"
        },
        {
          "internalType": "bool",
          "name": "parl",
          "type": "bool"
        }
      ],
      "payable": false,
      "stateMutability": "view",
      "type": "function"
    },
    {
      "constant": false,
      "inputs": [
        {
          "components": [
            {
              "internalType": "uint256",
              "name": "id",
              "type": "uint256"
            },
            {
              "internalType": "string",
              "name": "presname",
              "type": "string"
            },
            {
              "internalType": "string",
              "name": "party",
              "type": "string"
            },
            {
              "internalType": "uint256",
              "name": "voteCount",
              "type": "uint256"
            }
          ],
          "internalType": "struct ElectionCreation.Presidential[]",
          "name": "presCands",
          "type": "tuple[]"
        },
        {
          "components": [
            {
              "internalType": "uint256",
              "name": "id",
              "type": "uint256"
            },
            {
              "internalType": "string",
              "name": "parlname",
              "type": "string"
            },
            {
              "internalType": "string",
              "name": "party",
              "type": "string"
            },
            {
              "internalType": "string",
              "name": "districtname",
              "type": "string"
            },
            {
              "internalType": "uint256",
              "name": "voteCount",
              "type": "uint256"
            }
          ],
          "internalType": "struct ElectionCreation.Parliamentary[]",
          "name": "parlCands",
          "type": "tuple[]"
        },
        {
          "internalType": "uint256",
          "name": "amounthours",
          "type": "uint256"
        },
        {
          "internalType": "address",
          "name": "creator",
          "type": "address"
        }
      ],
      "name": "CreateElection",
      "outputs": [],
      "payable": false,
      "stateMutability": "nonpayable",
      "type": "function"
    },
    {
      "constant": false,
      "inputs": [
        {
          "internalType": "uint256",
          "name": "candidateid",
          "type": "uint256"
        },
        {
          "internalType": "uint256",
          "name": "electionid",
          "type": "uint256"
        }
      ],
      "name": "voteForPresident",
      "outputs": [],
      "payable": false,
      "stateMutability": "nonpayable",
      "type": "function"
    },
    {
      "constant": false,
      "inputs": [
        {
          "internalType": "uint256",
          "name": "candidateid",
          "type": "uint256"
        },
        {
          "internalType": "uint256",
          "name": "electionid",
          "type": "uint256"
        }
      ],
      "name": "voteForParliament",
      "outputs": [],
      "payable": false,
      "stateMutability": "nonpayable",
      "type": "function"
    },
    {
      "constant": true,
      "inputs": [
        {
          "internalType": "uint256",
          "name": "candidateid",
          "type": "uint256"
        },
        {
          "internalType": "uint256",
          "name": "electionid",
          "type": "uint256"
        }
      ],
      "name": "getPresidentialVoteCount",
      "outputs": [
        {
          "internalType": "uint256",
          "name": "",
          "type": "uint256"
        }
      ],
      "payable": false,
      "stateMutability": "view",
      "type": "function"
    },
    {
      "constant": true,
      "inputs": [
        {
          "internalType": "uint256",
          "name": "candidateid",
          "type": "uint256"
        },
        {
          "internalType": "uint256",
          "name": "electionid",
          "type": "uint256"
        }
      ],
      "name": "getParliamentaryVoteCount",
      "outputs": [
        {
          "internalType": "uint256",
          "name": "",
          "type": "uint256"
        }
      ],
      "payable": false,
      "stateMutability": "view",
      "type": "function"
    },
    {
      "constant": true,
      "inputs": [
        {
          "internalType": "uint256",
          "name": "id",
          "type": "uint256"
        }
      ],
      "name": "getDeployedBallots",
      "outputs": [
        {
          "internalType": "uint256",
          "name": "ballotid",
          "type": "uint256"
        },
        {
          "internalType": "uint256",
          "name": "creationDate",
          "type": "uint256"
        },
        {
          "internalType": "uint256",
          "name": "expirationDate",
          "type": "uint256"
        }
      ],
      "payable": false,
      "stateMutability": "view",
      "type": "function"
    }
  ],
  "bytecode": "0x608060405234801561001057600080fd5b506000600160003373ffffffffffffffffffffffffffffffffffffffff1673ffffffffffffffffffffffffffffffffffffffff16815260200190815260200160002060000160006101000a81548160ff0219169083151502179055506000600160003373ffffffffffffffffffffffffffffffffffffffff1673ffffffffffffffffffffffffffffffffffffffff16815260200190815260200160002060000160016101000a81548160ff021916908315150217905550611182806100d66000396000f3fe608060405234801561001057600080fd5b50600436106100935760003560e01c8063b0473a2b11610066578063b0473a2b14610149578063cdf74c3e14610179578063d9635e0c146101ab578063de257af3146101c7578063e0f5bbf1146101e357610093565b8063481c6a7514610098578063484cb1a8146100b65780636abfe4c9146100e6578063a3ec138d14610118575b600080fd5b6100a06101ff565b6040516100ad9190610f7b565b60405180910390f35b6100d060048036036100cb9190810190610f12565b610225565b6040516100dd9190610fbf565b60405180910390f35b61010060048036036100fb9190810190610ee9565b610259565b60405161010f93929190610fda565b60405180910390f35b610132600480360361012d9190810190610e2d565b6102ad565b604051610140929190610f96565b60405180910390f35b610163600480360361015e9190810190610f12565b6102eb565b6040516101709190610fbf565b60405180910390f35b610193600480360361018e9190810190610ee9565b61031f565b6040516101a293929190610fda565b60405180910390f35b6101c560048036036101c09190810190610f12565b610349565b005b6101e160048036036101dc9190810190610f12565b61045b565b005b6101fd60048036036101f89190810190610e56565b61056d565b005b600260009054906101000a900473ffffffffffffffffffffffffffffffffffffffff1681565b6000806000838152602001908152602001600020600301600084815260200190815260200160002060010154905092915050565b60008060008060008581526020019081526020016000206000015460008086815260200190815260200160002060040154600080878152602001908152602001600020600501549250925092509193909250565b60016020528060005260406000206000915090508060000160009054906101000a900460ff16908060000160019054906101000a900460ff16905082565b6000806000838152602001908152602001600020600101600084815260200190815260200160002060030154905092915050565b60006020528060005260406000206000915090508060000154908060040154908060050154905083565b600160003373ffffffffffffffffffffffffffffffffffffffff1673ffffffffffffffffffffffffffffffffffffffff16815260200190815260200160002060000160009054906101000a900460ff16156103a357600080fd5b600080828152602001908152602001600020600501544211156103c557600080fd5b600160008083815260200190815260200160002060010160008481526020019081526020016000206003016000828254019250508190555060018060003373ffffffffffffffffffffffffffffffffffffffff1673ffffffffffffffffffffffffffffffffffffffff16815260200190815260200160002060000160006101000a81548160ff0219169083151502179055505050565b600160003373ffffffffffffffffffffffffffffffffffffffff1673ffffffffffffffffffffffffffffffffffffffff16815260200190815260200160002060000160019054906101000a900460ff16156104b557600080fd5b600080828152602001908152602001600020600501544211156104d757600080fd5b600160008083815260200190815260200160002060030160008481526020019081526020016000206001016000828254019250508190555060018060003373ffffffffffffffffffffffffffffffffffffffff1673ffffffffffffffffffffffffffffffffffffffff16815260200190815260200160002060000160016101000a81548160ff0219169083151502179055505050565b6000809050600080905082600260006101000a81548173ffffffffffffffffffffffffffffffffffffffff021916908373ffffffffffffffffffffffffffffffffffffffff160217905550816000808381526020019081526020016000206000018190555042600080838152602001908152602001600020600401819055508342016000808381526020019081526020016000206005018190555060008090505b86518110156107b45786818151811061062357fe5b602002602001015160000151600080848152602001908152602001600020600101600089848151811061065257fe5b60200260200101516000015181526020019081526020016000206000018190555086818151811061067f57fe5b60200260200101516020015160008084815260200190815260200160002060010160008984815181106106ae57fe5b602002602001015160000151815260200190815260200160002060010190805190602001906106de929190610aae565b508681815181106106eb57fe5b602002602001015160400151600080848152602001908152602001600020600101600089848151811061071a57fe5b6020026020010151600001518152602001908152602001600020600201908051906020019061074a929190610aae565b5086818151811061075757fe5b602002602001015160600151600080848152602001908152602001600020600101600089848151811061078657fe5b602002602001015160000151815260200190815260200160002060030181905550808060010191505061060e565b5060008090505b8551811015610a95578581815181106107d057fe5b60200260200101516000015160008084815260200190815260200160002060020160008884815181106107ff57fe5b60200260200101516000015181526020019081526020016000206000018190555085818151811061082c57fe5b602002602001015160200151600080848152602001908152602001600020600201600088848151811061085b57fe5b6020026020010151600001518152602001908152602001600020600101908051906020019061088b929190610aae565b5085818151811061089857fe5b60200260200101516040015160008084815260200190815260200160002060020160008884815181106108c757fe5b602002602001015160000151815260200190815260200160002060020190805190602001906108f7929190610aae565b5085818151811061090457fe5b602002602001015160600151600080848152602001908152602001600020600201600088848151811061093357fe5b60200260200101516000015181526020019081526020016000206003019080519060200190610963929190610aae565b5085818151811061097057fe5b602002602001015160800151600080848152602001908152602001600020600201600088848151811061099f57fe5b6020026020010151600001518152602001908152602001600020600401819055508581815181106109cc57fe5b60200260200101516060015160008084815260200190815260200160002060030160008884815181106109fb57fe5b60200260200101516000015181526020019081526020016000206000019080519060200190610a2b929190610aae565b50858181518110610a3857fe5b6020026020010151608001516000808481526020019081526020016000206003016000888481518110610a6757fe5b60200260200101516000015181526020019081526020016000206001018190555080806001019150506107bb565b5080806001019150508180600101925050505050505050565b828054600181600116156101000203166002900490600052602060002090601f016020900481019282601f10610aef57805160ff1916838001178555610b1d565b82800160010185558215610b1d579182015b82811115610b1c578251825591602001919060010190610b01565b5b509050610b2a9190610b2e565b5090565b610b5091905b80821115610b4c576000816000905550600101610b34565b5090565b90565b600081359050610b6281611111565b92915050565b600082601f830112610b7957600080fd5b8135610b8c610b878261103e565b611011565b9150818183526020840193506020810190508360005b83811015610bd25781358601610bb88882610ca4565b845260208401935060208301925050600181019050610ba2565b5050505092915050565b600082601f830112610bed57600080fd5b8135610c00610bfb82611066565b611011565b9150818183526020840193506020810190508360005b83811015610c465781358601610c2c8882610d74565b845260208401935060208301925050600181019050610c16565b5050505092915050565b600082601f830112610c6157600080fd5b8135610c74610c6f8261108e565b611011565b91508082526020830160208301858383011115610c9057600080fd5b610c9b838284611102565b50505092915050565b600060a08284031215610cb657600080fd5b610cc060a0611011565b90506000610cd084828501610e18565b600083015250602082013567ffffffffffffffff811115610cf057600080fd5b610cfc84828501610c50565b602083015250604082013567ffffffffffffffff811115610d1c57600080fd5b610d2884828501610c50565b604083015250606082013567ffffffffffffffff811115610d4857600080fd5b610d5484828501610c50565b6060830152506080610d6884828501610e18565b60808301525092915050565b600060808284031215610d8657600080fd5b610d906080611011565b90506000610da084828501610e18565b600083015250602082013567ffffffffffffffff811115610dc057600080fd5b610dcc84828501610c50565b602083015250604082013567ffffffffffffffff811115610dec57600080fd5b610df884828501610c50565b6040830152506060610e0c84828501610e18565b60608301525092915050565b600081359050610e2781611128565b92915050565b600060208284031215610e3f57600080fd5b6000610e4d84828501610b53565b91505092915050565b60008060008060808587031215610e6c57600080fd5b600085013567ffffffffffffffff811115610e8657600080fd5b610e9287828801610bdc565b945050602085013567ffffffffffffffff811115610eaf57600080fd5b610ebb87828801610b68565b9350506040610ecc87828801610e18565b9250506060610edd87828801610b53565b91505092959194509250565b600060208284031215610efb57600080fd5b6000610f0984828501610e18565b91505092915050565b60008060408385031215610f2557600080fd5b6000610f3385828601610e18565b9250506020610f4485828601610e18565b9150509250929050565b610f57816110ba565b82525050565b610f66816110cc565b82525050565b610f75816110f8565b82525050565b6000602082019050610f906000830184610f4e565b92915050565b6000604082019050610fab6000830185610f5d565b610fb86020830184610f5d565b9392505050565b6000602082019050610fd46000830184610f6c565b92915050565b6000606082019050610fef6000830186610f6c565b610ffc6020830185610f6c565b6110096040830184610f6c565b949350505050565b6000604051905081810181811067ffffffffffffffff8211171561103457600080fd5b8060405250919050565b600067ffffffffffffffff82111561105557600080fd5b602082029050602081019050919050565b600067ffffffffffffffff82111561107d57600080fd5b602082029050602081019050919050565b600067ffffffffffffffff8211156110a557600080fd5b601f19601f8301169050602081019050919050565b60006110c5826110d8565b9050919050565b60008115159050919050565b600073ffffffffffffffffffffffffffffffffffffffff82169050919050565b6000819050919050565b82818337600083830152505050565b61111a816110ba565b811461112557600080fd5b50565b611131816110f8565b811461113c57600080fd5b5056fea365627a7a72315820683fbad6356c8715006c649c3b0d9479862b37c0b1477c1e48a8a4bdc34aa05a6c6578706572696d656e74616cf564736f6c634300050c0040",
  "source": "pragma solidity >=0.4.22 <0.6.0;\r\npragma experimental ABIEncoderV2;\r\n\r\n\r\ncontract ElectionCreation {\r\n\r\nmapping(uint=>Ballot) public deployedBallots;\r\nmapping(address=>vote_right) public voters;\r\naddress public manager;\r\n\r\nstruct vote_right{\r\n    bool pres;\r\n    bool parl;\r\n}\r\nstruct Ballot{\r\n        uint ballotid;\r\n        mapping(uint=>Presidential) presidentialCandidates;\r\n        mapping(uint=>Parliamentary) parliamentaryCandidates;\r\n        mapping(uint=>district) districts;\r\n        uint creationDate;\r\n        uint expirationDate;\r\n}\r\n struct Presidential{\r\n     uint id;\r\n     string presname;\r\n     string party;\r\n     uint voteCount;\r\n\r\n }\r\n\r\n struct Parliamentary{\r\n     uint id;\r\n     string parlname;\r\n     string party;\r\n     string districtname;\r\n     uint voteCount;\r\n     \r\n }\r\nstruct district{\r\n    string districtname;\r\n    uint voteCount;\r\n}\r\nmodifier restricted() { \r\n    require(msg.sender == manager); _;\r\n}\r\nconstructor () public { \r\n    \r\n   voters[msg.sender].pres = false;\r\n   voters[msg.sender].parl = false;\r\n}\r\n\r\nfunction CreateElection(Presidential[] memory presCands,Parliamentary[] memory parlCands,\r\nuint amounthours, address creator)public {\r\n    uint ballotid = 0;\r\n    uint ballotCount = 0;\r\n    manager = creator;\r\n    \r\n    deployedBallots[ballotCount].ballotid = ballotid;\r\n    deployedBallots[ballotCount].creationDate = now;\r\n    deployedBallots[ballotCount].expirationDate = now + amounthours;\r\n    \r\n\r\n    for (uint i = 0;i < presCands.length; i++){\r\n        deployedBallots[ballotCount].presidentialCandidates[presCands[i].id].id = presCands[i].id;\r\n        deployedBallots[ballotCount].presidentialCandidates[presCands[i].id].presname = presCands[i].presname;\r\n        deployedBallots[ballotCount].presidentialCandidates[presCands[i].id].party = presCands[i].party;\r\n        deployedBallots[ballotCount].presidentialCandidates[presCands[i].id].voteCount = presCands[i].voteCount;\r\n\r\n    }\r\n\r\n    for (uint i = 0;i < parlCands.length; i++){\r\n        deployedBallots[ballotCount].parliamentaryCandidates[parlCands[i].id].id = parlCands[i].id;\r\n        deployedBallots[ballotCount].parliamentaryCandidates[parlCands[i].id].parlname = parlCands[i].parlname;\r\n        deployedBallots[ballotCount].parliamentaryCandidates[parlCands[i].id].party = parlCands[i].party;\r\n        deployedBallots[ballotCount].parliamentaryCandidates[parlCands[i].id].districtname = parlCands[i].districtname;\r\n        deployedBallots[ballotCount].parliamentaryCandidates[parlCands[i].id].voteCount = parlCands[i].voteCount;\r\n        deployedBallots[ballotCount].districts[parlCands[i].id].districtname = parlCands[i].districtname;\r\n        deployedBallots[ballotCount].districts[parlCands[i].id].voteCount = parlCands[i].voteCount;\r\n    \r\n    }\r\n\r\n    \r\n\r\n\r\nballotCount++;\r\nballotid++;\r\n     \r\n\r\n}\r\n\r\nfunction voteForPresident(uint candidateid, uint electionid)public { \r\n\r\n   require(!voters[msg.sender].pres); \r\n\r\n    if(now > deployedBallots[electionid].expirationDate){ \r\n        revert();\r\n } \r\ndeployedBallots[electionid].presidentialCandidates[candidateid].voteCount += 1;\r\nvoters[msg.sender].pres = true; \r\n}\r\n\r\nfunction voteForParliament(uint candidateid, uint electionid)public { \r\n\r\n    require(!voters[msg.sender].parl); \r\n\r\n    if(now > deployedBallots[electionid].expirationDate){ \r\n        revert();\r\n} \r\ndeployedBallots[electionid].districts[candidateid].voteCount += 1;\r\nvoters[msg.sender].parl = true; \r\n}\r\n\r\n\r\nfunction getPresidentialVoteCount(uint candidateid,uint electionid) public view returns(uint){\r\n    return deployedBallots[electionid].presidentialCandidates[candidateid].voteCount;\r\n}\r\n\r\nfunction getParliamentaryVoteCount(uint candidateid,uint electionid) public view returns(uint) {\r\n    return deployedBallots[electionid].districts[candidateid].voteCount;\r\n    \r\n}\r\n function getDeployedBallots(uint id) public view returns(uint ballotid,uint creationDate,uint expirationDate) { \r\n     return (deployedBallots[id].ballotid,deployedBallots[id].creationDate,deployedBallots[id].expirationDate);\r\n }\r\n// function getallCandidates() public view returns(Candidate[] memory){\r\n//      return allCandidates;\r\n\r\n//  }\r\n\r\n}\r\n",
  "sourcePath": "C:/Users/deedat/Desktop/myfinalyearproject/contracts/ElectionCreation.sol",
  "compiler": {
    "name": "solc",
    "version": "0.5.12+commit.7709ece9.Emscripten.clang"
  },
  "schemaVersion": "3.0.20",
  "updatedAt": "2020-01-09T18:50:24.472Z",
  "networkType": "ethereum",
  "devdoc": {
    "methods": {}
  },
  "userdoc": {
    "methods": {}
  }
}