{
  "contractName": "ElectionCreation",
  "abi": [
    {
      "inputs": [],
      "payable": false,
      "stateMutability": "nonpayable",
      "type": "constructor"
    },
    {
      "constant": true,
      "inputs": [],
      "name": "candidateCount",
      "outputs": [
        {
          "internalType": "uint256",
          "name": "",
          "type": "uint256"
        }
      ],
      "payable": false,
      "stateMutability": "view",
      "type": "function"
    },
    {
      "constant": true,
      "inputs": [
        {
          "internalType": "uint256",
          "name": "",
          "type": "uint256"
        }
      ],
      "name": "deployedBallots",
      "outputs": [
        {
          "internalType": "uint256",
          "name": "ballotid",
          "type": "uint256"
        },
        {
          "internalType": "uint256",
          "name": "creationDate",
          "type": "uint256"
        },
        {
          "internalType": "uint256",
          "name": "expirationDate",
          "type": "uint256"
        }
      ],
      "payable": false,
      "stateMutability": "view",
      "type": "function"
    },
    {
      "constant": true,
      "inputs": [],
      "name": "districtVoteCount",
      "outputs": [
        {
          "internalType": "uint256",
          "name": "",
          "type": "uint256"
        }
      ],
      "payable": false,
      "stateMutability": "view",
      "type": "function"
    },
    {
      "constant": true,
      "inputs": [],
      "name": "manager",
      "outputs": [
        {
          "internalType": "address",
          "name": "",
          "type": "address"
        }
      ],
      "payable": false,
      "stateMutability": "view",
      "type": "function"
    },
    {
      "constant": true,
      "inputs": [],
      "name": "parl_candidateCount",
      "outputs": [
        {
          "internalType": "uint256",
          "name": "",
          "type": "uint256"
        }
      ],
      "payable": false,
      "stateMutability": "view",
      "type": "function"
    },
    {
      "constant": true,
      "inputs": [
        {
          "internalType": "address",
          "name": "",
          "type": "address"
        }
      ],
      "name": "voters",
      "outputs": [
        {
          "internalType": "bool",
          "name": "pres",
          "type": "bool"
        },
        {
          "internalType": "bool",
          "name": "parl",
          "type": "bool"
        }
      ],
      "payable": false,
      "stateMutability": "view",
      "type": "function"
    },
    {
      "constant": false,
      "inputs": [
        {
          "components": [
            {
              "internalType": "uint256",
              "name": "id",
              "type": "uint256"
            },
            {
              "internalType": "string",
              "name": "name",
              "type": "string"
            },
            {
              "internalType": "string",
              "name": "party",
              "type": "string"
            },
            {
              "internalType": "string",
              "name": "manifesto",
              "type": "string"
            },
            {
              "internalType": "uint256",
              "name": "voteCount",
              "type": "uint256"
            },
            {
              "internalType": "string",
              "name": "imgURL",
              "type": "string"
            },
            {
              "internalType": "string",
              "name": "partyImg",
              "type": "string"
            },
            {
              "internalType": "address payable",
              "name": "cand_address",
              "type": "address"
            }
          ],
          "internalType": "struct ElectionCreation.Presidential[]",
          "name": "presCands",
          "type": "tuple[]"
        },
        {
          "components": [
            {
              "internalType": "uint256",
              "name": "id",
              "type": "uint256"
            },
            {
              "internalType": "string",
              "name": "manifesto",
              "type": "string"
            },
            {
              "internalType": "string",
              "name": "name",
              "type": "string"
            },
            {
              "internalType": "string",
              "name": "party",
              "type": "string"
            },
            {
              "internalType": "string",
              "name": "district",
              "type": "string"
            },
            {
              "internalType": "uint256",
              "name": "voteCount",
              "type": "uint256"
            },
            {
              "internalType": "string",
              "name": "imgURL",
              "type": "string"
            },
            {
              "internalType": "string",
              "name": "partyImg",
              "type": "string"
            },
            {
              "internalType": "address payable",
              "name": "cand_address",
              "type": "address"
            }
          ],
          "internalType": "struct ElectionCreation.Parliamentary[]",
          "name": "parlCands",
          "type": "tuple[]"
        },
        {
          "internalType": "uint256",
          "name": "amounthours",
          "type": "uint256"
        },
        {
          "internalType": "address",
          "name": "creator",
          "type": "address"
        }
      ],
      "name": "CreateElection",
      "outputs": [],
      "payable": false,
      "stateMutability": "nonpayable",
      "type": "function"
    },
    {
      "constant": false,
      "inputs": [
        {
          "internalType": "address payable",
          "name": "_receiver",
          "type": "address"
        }
      ],
      "name": "send",
      "outputs": [],
      "payable": true,
      "stateMutability": "payable",
      "type": "function"
    },
    {
      "constant": false,
      "inputs": [
        {
          "internalType": "uint256",
          "name": "candidateid",
          "type": "uint256"
        },
        {
          "internalType": "uint256",
          "name": "electionid",
          "type": "uint256"
        }
      ],
      "name": "voteForPresident",
      "outputs": [],
      "payable": true,
      "stateMutability": "payable",
      "type": "function"
    },
    {
      "constant": false,
      "inputs": [],
      "name": "getbalance",
      "outputs": [
        {
          "internalType": "uint256",
          "name": "tt",
          "type": "uint256"
        },
        {
          "internalType": "address",
          "name": "add",
          "type": "address"
        }
      ],
      "payable": true,
      "stateMutability": "payable",
      "type": "function"
    },
    {
      "constant": false,
      "inputs": [
        {
          "internalType": "uint256",
          "name": "candidateid",
          "type": "uint256"
        },
        {
          "internalType": "uint256",
          "name": "electionid",
          "type": "uint256"
        },
        {
          "internalType": "string",
          "name": "districtname",
          "type": "string"
        }
      ],
      "name": "voteForParliament",
      "outputs": [],
      "payable": false,
      "stateMutability": "nonpayable",
      "type": "function"
    },
    {
      "constant": true,
      "inputs": [
        {
          "internalType": "uint256",
          "name": "id",
          "type": "uint256"
        }
      ],
      "name": "getDeployedBallots",
      "outputs": [
        {
          "internalType": "uint256",
          "name": "ballotid",
          "type": "uint256"
        },
        {
          "internalType": "uint256",
          "name": "creationDate",
          "type": "uint256"
        },
        {
          "internalType": "uint256",
          "name": "expirationDate",
          "type": "uint256"
        }
      ],
      "payable": false,
      "stateMutability": "view",
      "type": "function"
    },
    {
      "constant": true,
      "inputs": [],
      "name": "getPresidentialCount",
      "outputs": [
        {
          "internalType": "uint256",
          "name": "count",
          "type": "uint256"
        }
      ],
      "payable": false,
      "stateMutability": "view",
      "type": "function"
    },
    {
      "constant": true,
      "inputs": [],
      "name": "getParliamentaryCount",
      "outputs": [
        {
          "internalType": "uint256",
          "name": "count",
          "type": "uint256"
        }
      ],
      "payable": false,
      "stateMutability": "view",
      "type": "function"
    },
    {
      "constant": true,
      "inputs": [
        {
          "internalType": "uint256",
          "name": "candid",
          "type": "uint256"
        },
        {
          "internalType": "uint256",
          "name": "electionid",
          "type": "uint256"
        },
        {
          "internalType": "string",
          "name": "district",
          "type": "string"
        }
      ],
      "name": "getVoteCountForDistrict",
      "outputs": [
        {
          "internalType": "uint256",
          "name": "count",
          "type": "uint256"
        }
      ],
      "payable": false,
      "stateMutability": "view",
      "type": "function"
    },
    {
      "constant": true,
      "inputs": [
        {
          "internalType": "uint256",
          "name": "candid",
          "type": "uint256"
        },
        {
          "internalType": "uint256",
          "name": "electionid",
          "type": "uint256"
        }
      ],
      "name": "sumAllParlCandidateVotesFromAllDistricts",
      "outputs": [
        {
          "internalType": "uint256",
          "name": "count",
          "type": "uint256"
        }
      ],
      "payable": false,
      "stateMutability": "view",
      "type": "function"
    },
    {
      "constant": true,
      "inputs": [
        {
          "internalType": "uint256",
          "name": "candidateid",
          "type": "uint256"
        },
        {
          "internalType": "uint256",
          "name": "electionid",
          "type": "uint256"
        }
      ],
      "name": "getPresidentialVoteCount",
      "outputs": [
        {
          "internalType": "uint256",
          "name": "",
          "type": "uint256"
        }
      ],
      "payable": false,
      "stateMutability": "view",
      "type": "function"
    },
    {
      "constant": true,
      "inputs": [
        {
          "internalType": "uint256",
          "name": "candidateid",
          "type": "uint256"
        },
        {
          "internalType": "uint256",
          "name": "electionid",
          "type": "uint256"
        }
      ],
      "name": "getParliamentaryVoteCount",
      "outputs": [
        {
          "internalType": "uint256",
          "name": "",
          "type": "uint256"
        }
      ],
      "payable": false,
      "stateMutability": "view",
      "type": "function"
    },
    {
      "constant": true,
      "inputs": [
        {
          "internalType": "uint256",
          "name": "electionid",
          "type": "uint256"
        },
        {
          "internalType": "uint256",
          "name": "i",
          "type": "uint256"
        }
      ],
      "name": "getPresidentialCandidates",
      "outputs": [
        {
          "internalType": "uint256",
          "name": "id",
          "type": "uint256"
        },
        {
          "internalType": "string",
          "name": "name",
          "type": "string"
        },
        {
          "internalType": "string",
          "name": "party",
          "type": "string"
        },
        {
          "internalType": "string",
          "name": "manifesto",
          "type": "string"
        },
        {
          "internalType": "uint256",
          "name": "count",
          "type": "uint256"
        },
        {
          "internalType": "string",
          "name": "imgURL",
          "type": "string"
        },
        {
          "internalType": "string",
          "name": "partyImg",
          "type": "string"
        },
        {
          "internalType": "address",
          "name": "cand_addr",
          "type": "address"
        }
      ],
      "payable": false,
      "stateMutability": "view",
      "type": "function"
    },
    {
      "constant": true,
      "inputs": [
        {
          "internalType": "uint256",
          "name": "electionid",
          "type": "uint256"
        },
        {
          "internalType": "uint256",
          "name": "i",
          "type": "uint256"
        }
      ],
      "name": "getParliamentaryCandidates",
      "outputs": [
        {
          "internalType": "uint256",
          "name": "id",
          "type": "uint256"
        },
        {
          "internalType": "string",
          "name": "name",
          "type": "string"
        },
        {
          "internalType": "string",
          "name": "party",
          "type": "string"
        },
        {
          "internalType": "string",
          "name": "manifesto",
          "type": "string"
        },
        {
          "internalType": "uint256",
          "name": "count",
          "type": "uint256"
        },
        {
          "internalType": "string",
          "name": "imgURL",
          "type": "string"
        },
        {
          "internalType": "string",
          "name": "partyImg",
          "type": "string"
        },
        {
          "internalType": "string",
          "name": "district",
          "type": "string"
        },
        {
          "internalType": "address",
          "name": "cand_addr",
          "type": "address"
        }
      ],
      "payable": false,
      "stateMutability": "view",
      "type": "function"
    }
  ],
  "bytecode": "0x6080604052600080556000600155600060025534801561001e57600080fd5b506000600460003373ffffffffffffffffffffffffffffffffffffffff1673ffffffffffffffffffffffffffffffffffffffff16815260200190815260200160002060000160006101000a81548160ff0219169083151502179055506000600460003373ffffffffffffffffffffffffffffffffffffffff1673ffffffffffffffffffffffffffffffffffffffff16815260200190815260200160002060000160016101000a81548160ff021916908315150217905550612a31806100e46000396000f3fe60806040526004361061011f5760003560e01c8063a3ec138d116100a0578063cdf74c3e11610064578063cdf74c3e14610417578063d9635e0c14610456578063db3ad35a14610472578063e891eb9b146104b6578063f973e539146104df5761011f565b8063a3ec138d14610309578063a9a981a314610347578063b0473a2b14610372578063c0034189146103af578063c2ba2ddf146103da5761011f565b80635b8b74c4116100e75780635b8b74c4146101f25780635e58ca541461021d5780636abfe4c91461025a5780637b63b77a1461029957806392205600146102c45761011f565b80630267830c146101245780633e58c58c1461014f578063481c6a751461016b578063484cb1a8146101965780634d9b3d5d146101d3575b600080fd5b34801561013057600080fd5b50610139610508565b6040516101469190612638565b60405180910390f35b610169600480360361016491908101906123a6565b61050e565b005b34801561017757600080fd5b50610180610547565b60405161018d91906125d4565b60405180910390f35b3480156101a257600080fd5b506101bd60048036036101b8919081019061248b565b61056d565b6040516101ca9190612638565b60405180910390f35b6101db6105a2565b6040516101e9929190612653565b60405180910390f35b3480156101fe57600080fd5b506102076105b2565b6040516102149190612638565b60405180910390f35b34801561022957600080fd5b50610244600480360361023f91908101906124c7565b6105b8565b6040516102519190612638565b60405180910390f35b34801561026657600080fd5b50610281600480360361027c9190810190612462565b61070a565b604051610290939291906127d4565b60405180910390f35b3480156102a557600080fd5b506102ae610761565b6040516102bb9190612638565b60405180910390f35b3480156102d057600080fd5b506102eb60048036036102e6919081019061248b565b61076b565b6040516103009998979695949392919061271d565b60405180910390f35b34801561031557600080fd5b50610330600480360361032b919081019061237d565b610c51565b60405161033e9291906125ef565b60405180910390f35b34801561035357600080fd5b5061035c610c8f565b6040516103699190612638565b60405180910390f35b34801561037e57600080fd5b506103996004803603610394919081019061248b565b610c95565b6040516103a69190612638565b60405180910390f35b3480156103bb57600080fd5b506103c4610cca565b6040516103d19190612638565b60405180910390f35b3480156103e657600080fd5b5061040160048036036103fc919081019061248b565b610cd3565b60405161040e9190612638565b60405180910390f35b34801561042357600080fd5b5061043e60048036036104399190810190612462565b610d3d565b60405161044d939291906127d4565b60405180910390f35b610470600480360361046b919081019061248b565b610d67565b005b34801561047e57600080fd5b506104996004803603610494919081019061248b565b610eb2565b6040516104ad98979695949392919061267c565b60405180910390f35b3480156104c257600080fd5b506104dd60048036036104d891908101906124c7565b6112e9565b005b3480156104eb57600080fd5b50610506600480360361050191908101906123cf565b611473565b005b60015481565b8073ffffffffffffffffffffffffffffffffffffffff166108fc349081150290604051600060405180830381858888f193505050505050565b600560009054906101000a900473ffffffffffffffffffffffffffffffffffffffff1681565b600060036000838152602001908152602001600020600301600084815260200190815260200160002060020154905092915050565b6000804733809050915091509091565b60025481565b6000806000905060008090505b6002548110156106fe57600060036000878152602001908152602001600020600301600083815260200190815260200160002060000154905060606003600088815260200190815260200160002060030160008481526020019081526020016000206001018054600181600116156101000203166002900480601f0160208091040260200160405190810160405280929190818152602001828054600181600116156101000203166002900480156106be5780601f10610693576101008083540402835291602001916106be565b820191906000526020600020905b8154815290600101906020018083116106a157829003601f168201915b5050505050905087821480156106e1575085805190602001208180519060200120145b156106ef5783806001019450505b505080806001019150506105c5565b50809150509392505050565b60008060006003600085815260200190815260200160002060000154600360008681526020019081526020016000206004015460036000878152602001908152602001600020600501549250925092509193909250565b6000600154905090565b60006060806060600060608060606000610783611da2565b600360008d815260200190815260200160002060020160008c81526020019081526020016000206040518061012001604052908160008201548152602001600182018054600181600116156101000203166002900480601f0160208091040260200160405190810160405280929190818152602001828054600181600116156101000203166002900480156108595780601f1061082e57610100808354040283529160200191610859565b820191906000526020600020905b81548152906001019060200180831161083c57829003601f168201915b50505050508152602001600282018054600181600116156101000203166002900480601f0160208091040260200160405190810160405280929190818152602001828054600181600116156101000203166002900480156108fb5780601f106108d0576101008083540402835291602001916108fb565b820191906000526020600020905b8154815290600101906020018083116108de57829003601f168201915b50505050508152602001600382018054600181600116156101000203166002900480601f01602080910402602001604051908101604052809291908181526020018280546001816001161561010002031660029004801561099d5780601f106109725761010080835404028352916020019161099d565b820191906000526020600020905b81548152906001019060200180831161098057829003601f168201915b50505050508152602001600482018054600181600116156101000203166002900480601f016020809104026020016040519081016040528092919081815260200182805460018160011615610100020316600290048015610a3f5780601f10610a1457610100808354040283529160200191610a3f565b820191906000526020600020905b815481529060010190602001808311610a2257829003601f168201915b5050505050815260200160058201548152602001600682018054600181600116156101000203166002900480601f016020809104026020016040519081016040528092919081815260200182805460018160011615610100020316600290048015610aeb5780601f10610ac057610100808354040283529160200191610aeb565b820191906000526020600020905b815481529060010190602001808311610ace57829003601f168201915b50505050508152602001600782018054600181600116156101000203166002900480601f016020809104026020016040519081016040528092919081815260200182805460018160011615610100020316600290048015610b8d5780601f10610b6257610100808354040283529160200191610b8d565b820191906000526020600020905b815481529060010190602001808311610b7057829003601f168201915b505050505081526020016008820160009054906101000a900473ffffffffffffffffffffffffffffffffffffffff1673ffffffffffffffffffffffffffffffffffffffff1673ffffffffffffffffffffffffffffffffffffffff1681525050905080600001518160400151826060015183602001518460a001518560c001518660e001518760800151886101000151879750869650859550839350829250819150809050995099509950995099509950995099509950509295985092959850929598565b60046020528060005260406000206000915090508060000160009054906101000a900460ff16908060000160019054906101000a900460ff16905082565b60005481565b600060036000838152602001908152602001600020600101600084815260200190815260200160002060040154905092915050565b60008054905090565b6000806000905060008090505b600254811015610d325784600360008681526020019081526020016000206003016000838152602001908152602001600020600001541415610d255781806001019250505b8080600101915050610ce0565b508091505092915050565b60036020528060005260406000206000915090508060000154908060040154908060050154905083565b600460003373ffffffffffffffffffffffffffffffffffffffff1673ffffffffffffffffffffffffffffffffffffffff16815260200190815260200160002060000160009054906101000a900460ff1615610df7576040517f08c379a0000000000000000000000000000000000000000000000000000000008152600401610dee90612618565b60405180910390fd5b6003600082815260200190815260200160002060050154421115610e1a57600080fd5b6001600360008381526020019081526020016000206001016000848152602001908152602001600020600401600082825401925050819055506001600460003373ffffffffffffffffffffffffffffffffffffffff1673ffffffffffffffffffffffffffffffffffffffff16815260200190815260200160002060000160006101000a81548160ff0219169083151502179055505050565b6000606080606060006060806000610ec8611e04565b600360008c815260200190815260200160002060010160008b81526020019081526020016000206040518061010001604052908160008201548152602001600182018054600181600116156101000203166002900480601f016020809104026020016040519081016040528092919081815260200182805460018160011615610100020316600290048015610f9e5780601f10610f7357610100808354040283529160200191610f9e565b820191906000526020600020905b815481529060010190602001808311610f8157829003601f168201915b50505050508152602001600282018054600181600116156101000203166002900480601f0160208091040260200160405190810160405280929190818152602001828054600181600116156101000203166002900480156110405780601f1061101557610100808354040283529160200191611040565b820191906000526020600020905b81548152906001019060200180831161102357829003601f168201915b50505050508152602001600382018054600181600116156101000203166002900480601f0160208091040260200160405190810160405280929190818152602001828054600181600116156101000203166002900480156110e25780601f106110b7576101008083540402835291602001916110e2565b820191906000526020600020905b8154815290600101906020018083116110c557829003601f168201915b5050505050815260200160048201548152602001600582018054600181600116156101000203166002900480601f01602080910402602001604051908101604052809291908181526020018280546001816001161561010002031660029004801561118e5780601f106111635761010080835404028352916020019161118e565b820191906000526020600020905b81548152906001019060200180831161117157829003601f168201915b50505050508152602001600682018054600181600116156101000203166002900480601f0160208091040260200160405190810160405280929190818152602001828054600181600116156101000203166002900480156112305780601f1061120557610100808354040283529160200191611230565b820191906000526020600020905b81548152906001019060200180831161121357829003601f168201915b505050505081526020016007820160009054906101000a900473ffffffffffffffffffffffffffffffffffffffff1673ffffffffffffffffffffffffffffffffffffffff1673ffffffffffffffffffffffffffffffffffffffff16815250509050806000015181602001518260400151836060015184608001518560a001518660c001518760e0015186965085955084945082925081915080905098509850985098509850985098509850509295985092959890939650565b600460003373ffffffffffffffffffffffffffffffffffffffff1673ffffffffffffffffffffffffffffffffffffffff16815260200190815260200160002060000160019054906101000a900460ff161561134357600080fd5b600360008381526020019081526020016000206005015442111561136657600080fd5b8260036000848152602001908152602001600020600301600060025481526020019081526020016000206000018190555080600360008481526020019081526020016000206003016000600254815260200190815260200160002060010190805190602001906113d7929190611e5f565b5060016003600084815260200190815260200160002060030160006002548152602001908152602001600020600201600082825401925050819055506001600460003373ffffffffffffffffffffffffffffffffffffffff1673ffffffffffffffffffffffffffffffffffffffff16815260200190815260200160002060000160016101000a81548160ff021916908315150217905550505050565b6000809050600080905082600560006101000a81548173ffffffffffffffffffffffffffffffffffffffff021916908373ffffffffffffffffffffffffffffffffffffffff160217905550816003600083815260200190815260200160002060000181905550426003600083815260200190815260200160002060040181905550834201600360008381526020019081526020016000206005018190555060008090505b86518110156118b05786818151811061152c57fe5b60200260200101516000015160036000848152602001908152602001600020600101600089848151811061155c57fe5b60200260200101516000015181526020019081526020016000206000018190555086818151811061158957fe5b6020026020010151602001516003600084815260200190815260200160002060010160008984815181106115b957fe5b602002602001015160000151815260200190815260200160002060010190805190602001906115e9929190611e5f565b508681815181106115f657fe5b60200260200101516040015160036000848152602001908152602001600020600101600089848151811061162657fe5b60200260200101516000015181526020019081526020016000206002019080519060200190611656929190611e5f565b5086818151811061166357fe5b60200260200101516060015160036000848152602001908152602001600020600101600089848151811061169357fe5b602002602001015160000151815260200190815260200160002060030190805190602001906116c3929190611e5f565b508681815181106116d057fe5b60200260200101516080015160036000848152602001908152602001600020600101600089848151811061170057fe5b60200260200101516000015181526020019081526020016000206004018190555086818151811061172d57fe5b602002602001015160a0015160036000848152602001908152602001600020600101600089848151811061175d57fe5b6020026020010151600001518152602001908152602001600020600501908051906020019061178d929190611e5f565b5086818151811061179a57fe5b602002602001015160c001516003600084815260200190815260200160002060010160008984815181106117ca57fe5b602002602001015160000151815260200190815260200160002060060190805190602001906117fa929190611e5f565b5086818151811061180757fe5b602002602001015160e0015160036000848152602001908152602001600020600101600089848151811061183757fe5b602002602001015160000151815260200190815260200160002060070160006101000a81548173ffffffffffffffffffffffffffffffffffffffff021916908373ffffffffffffffffffffffffffffffffffffffff16021790555060008081548092919060010191905055508080600101915050611517565b5060008090505b8551811015611d89578581815181106118cc57fe5b6020026020010151600001516003600084815260200190815260200160002060020160008884815181106118fc57fe5b60200260200101516000015181526020019081526020016000206000018190555085818151811061192957fe5b60200260200101516040015160036000848152602001908152602001600020600201600088848151811061195957fe5b60200260200101516000015181526020019081526020016000206002019080519060200190611989929190611e5f565b5085818151811061199657fe5b6020026020010151602001516003600084815260200190815260200160002060020160008884815181106119c657fe5b602002602001015160000151815260200190815260200160002060010190805190602001906119f6929190611e5f565b50858181518110611a0357fe5b602002602001015160600151600360008481526020019081526020016000206002016000888481518110611a3357fe5b60200260200101516000015181526020019081526020016000206003019080519060200190611a63929190611e5f565b50858181518110611a7057fe5b602002602001015160800151600360008481526020019081526020016000206002016000888481518110611aa057fe5b60200260200101516000015181526020019081526020016000206004019080519060200190611ad0929190611e5f565b50858181518110611add57fe5b602002602001015160a00151600360008481526020019081526020016000206002016000888481518110611b0d57fe5b602002602001015160000151815260200190815260200160002060050181905550858181518110611b3a57fe5b602002602001015160800151600360008481526020019081526020016000206003016000888481518110611b6a57fe5b60200260200101516000015181526020019081526020016000206001019080519060200190611b9a929190611e5f565b50868181518110611ba757fe5b602002602001015160a00151600360008481526020019081526020016000206001016000898481518110611bd757fe5b60200260200101516000015181526020019081526020016000206005019080519060200190611c07929190611e5f565b50868181518110611c1457fe5b602002602001015160c00151600360008481526020019081526020016000206001016000898481518110611c4457fe5b60200260200101516000015181526020019081526020016000206006019080519060200190611c74929190611e5f565b50858181518110611c8157fe5b602002602001015160a00151600360008481526020019081526020016000206003016000888481518110611cb157fe5b602002602001015160000151815260200190815260200160002060020181905550858181518110611cde57fe5b60200260200101516101000151600360008481526020019081526020016000206002016000888481518110611d0f57fe5b602002602001015160000151815260200190815260200160002060080160006101000a81548173ffffffffffffffffffffffffffffffffffffffff021916908373ffffffffffffffffffffffffffffffffffffffff16021790555060016000815480929190600101919050555080806001019150506118b7565b5080806001019150508180600101925050505050505050565b6040518061012001604052806000815260200160608152602001606081526020016060815260200160608152602001600081526020016060815260200160608152602001600073ffffffffffffffffffffffffffffffffffffffff1681525090565b60405180610100016040528060008152602001606081526020016060815260200160608152602001600081526020016060815260200160608152602001600073ffffffffffffffffffffffffffffffffffffffff1681525090565b828054600181600116156101000203166002900490600052602060002090601f016020900481019282601f10611ea057805160ff1916838001178555611ece565b82800160010185558215611ece579182015b82811115611ecd578251825591602001919060010190611eb2565b5b509050611edb9190611edf565b5090565b611f0191905b80821115611efd576000816000905550600101611ee5565b5090565b90565b600081359050611f13816129a9565b92915050565b600081359050611f28816129c0565b92915050565b600082601f830112611f3f57600080fd5b8135611f52611f4d82612838565b61280b565b9150818183526020840193506020810190508360005b83811015611f985781358601611f7e88826120be565b845260208401935060208301925050600181019050611f68565b5050505092915050565b600082601f830112611fb357600080fd5b8135611fc6611fc182612860565b61280b565b9150818183526020840193506020810190508360005b8381101561200c5781358601611ff2888261222a565b845260208401935060208301925050600181019050611fdc565b5050505092915050565b600082601f83011261202757600080fd5b813561203a61203582612888565b61280b565b9150808252602083016020830185838301111561205657600080fd5b612061838284612956565b50505092915050565b600082601f83011261207b57600080fd5b813561208e612089826128b4565b61280b565b915080825260208301602083018583830111156120aa57600080fd5b6120b5838284612956565b50505092915050565b600061012082840312156120d157600080fd5b6120dc61012061280b565b905060006120ec84828501612368565b600083015250602082013567ffffffffffffffff81111561210c57600080fd5b61211884828501612016565b602083015250604082013567ffffffffffffffff81111561213857600080fd5b61214484828501612016565b604083015250606082013567ffffffffffffffff81111561216457600080fd5b61217084828501612016565b606083015250608082013567ffffffffffffffff81111561219057600080fd5b61219c84828501612016565b60808301525060a06121b084828501612368565b60a08301525060c082013567ffffffffffffffff8111156121d057600080fd5b6121dc84828501612016565b60c08301525060e082013567ffffffffffffffff8111156121fc57600080fd5b61220884828501612016565b60e08301525061010061221d84828501611f19565b6101008301525092915050565b6000610100828403121561223d57600080fd5b61224861010061280b565b9050600061225884828501612368565b600083015250602082013567ffffffffffffffff81111561227857600080fd5b61228484828501612016565b602083015250604082013567ffffffffffffffff8111156122a457600080fd5b6122b084828501612016565b604083015250606082013567ffffffffffffffff8111156122d057600080fd5b6122dc84828501612016565b60608301525060806122f084828501612368565b60808301525060a082013567ffffffffffffffff81111561231057600080fd5b61231c84828501612016565b60a08301525060c082013567ffffffffffffffff81111561233c57600080fd5b61234884828501612016565b60c08301525060e061235c84828501611f19565b60e08301525092915050565b600081359050612377816129d7565b92915050565b60006020828403121561238f57600080fd5b600061239d84828501611f04565b91505092915050565b6000602082840312156123b857600080fd5b60006123c684828501611f19565b91505092915050565b600080600080608085870312156123e557600080fd5b600085013567ffffffffffffffff8111156123ff57600080fd5b61240b87828801611fa2565b945050602085013567ffffffffffffffff81111561242857600080fd5b61243487828801611f2e565b935050604061244587828801612368565b925050606061245687828801611f04565b91505092959194509250565b60006020828403121561247457600080fd5b600061248284828501612368565b91505092915050565b6000806040838503121561249e57600080fd5b60006124ac85828601612368565b92505060206124bd85828601612368565b9150509250929050565b6000806000606084860312156124dc57600080fd5b60006124ea86828701612368565b93505060206124fb86828701612368565b925050604084013567ffffffffffffffff81111561251857600080fd5b6125248682870161206a565b9150509250925092565b612537816128fc565b82525050565b61254681612920565b82525050565b6000612557826128e0565b61256181856128eb565b9350612571818560208601612965565b61257a81612998565b840191505092915050565b6000612592600e836128eb565b91507f416c726561647920766f7465642e0000000000000000000000000000000000006000830152602082019050919050565b6125ce8161294c565b82525050565b60006020820190506125e9600083018461252e565b92915050565b6000604082019050612604600083018561253d565b612611602083018461253d565b9392505050565b6000602082019050818103600083015261263181612585565b9050919050565b600060208201905061264d60008301846125c5565b92915050565b600060408201905061266860008301856125c5565b612675602083018461252e565b9392505050565b600061010082019050612692600083018b6125c5565b81810360208301526126a4818a61254c565b905081810360408301526126b8818961254c565b905081810360608301526126cc818861254c565b90506126db60808301876125c5565b81810360a08301526126ed818661254c565b905081810360c0830152612701818561254c565b905061271060e083018461252e565b9998505050505050505050565b600061012082019050612733600083018c6125c5565b8181036020830152612745818b61254c565b90508181036040830152612759818a61254c565b9050818103606083015261276d818961254c565b905061277c60808301886125c5565b81810360a083015261278e818761254c565b905081810360c08301526127a2818661254c565b905081810360e08301526127b6818561254c565b90506127c661010083018461252e565b9a9950505050505050505050565b60006060820190506127e960008301866125c5565b6127f660208301856125c5565b61280360408301846125c5565b949350505050565b6000604051905081810181811067ffffffffffffffff8211171561282e57600080fd5b8060405250919050565b600067ffffffffffffffff82111561284f57600080fd5b602082029050602081019050919050565b600067ffffffffffffffff82111561287757600080fd5b602082029050602081019050919050565b600067ffffffffffffffff82111561289f57600080fd5b601f19601f8301169050602081019050919050565b600067ffffffffffffffff8211156128cb57600080fd5b601f19601f8301169050602081019050919050565b600081519050919050565b600082825260208201905092915050565b60006129078261292c565b9050919050565b60006129198261292c565b9050919050565b60008115159050919050565b600073ffffffffffffffffffffffffffffffffffffffff82169050919050565b6000819050919050565b82818337600083830152505050565b60005b83811015612983578082015181840152602081019050612968565b83811115612992576000848401525b50505050565b6000601f19601f8301169050919050565b6129b2816128fc565b81146129bd57600080fd5b50565b6129c98161290e565b81146129d457600080fd5b50565b6129e08161294c565b81146129eb57600080fd5b5056fea365627a7a72315820cfccbe1548a47cab38cf42597dd62ad9c1da3134d307ddbee9998a11eacac7026c6578706572696d656e74616cf564736f6c63430005100040",
  "source": "pragma solidity >=0.4.22 <0.6.0;\npragma experimental ABIEncoderV2;\n\n\ncontract ElectionCreation {\nuint public candidateCount = 0;\nuint public parl_candidateCount= 0;\nuint public districtVoteCount = 0;\nmapping(uint=>Ballot) public deployedBallots;\nmapping(address=>vote_right) public voters;\naddress public manager;\n\nstruct vote_right{\n    bool pres;\n    bool parl;\n}\nstruct Ballot{\n        uint ballotid;\n        mapping(uint=>Presidential) presidentialCandidates;\n        mapping(uint=>Parliamentary) parliamentaryCandidates;\n        mapping(uint=>district) districts;\n        uint creationDate;\n        uint expirationDate;\n}\n struct Presidential{\n     uint id;\n     string name;\n     string party;\n     string manifesto;\n     uint voteCount;\n     string imgURL;\n     string partyImg;\n     address payable cand_address;\n\n }\n\n struct Parliamentary{\n     uint id;\n     string manifesto;\n     string name;\n     string party;\n     string district;\n     uint voteCount;\n     string imgURL;\n     string partyImg;\n     address payable cand_address;\n     \n }\nstruct district{\n    uint id;\n    string district;\n    uint voteCount;\n}\nmodifier restricted() { \n    require(msg.sender == manager); _;\n}\nconstructor () public { \n    \n   voters[msg.sender].pres = false;\n   voters[msg.sender].parl = false;\n}\n\nfunction CreateElection(Presidential[] memory presCands,Parliamentary[] memory parlCands,\nuint amounthours, address creator)public {\n    uint ballotid = 0;\n    uint ballotCount = 0;\n    manager = creator;\n    \n    deployedBallots[ballotCount].ballotid = ballotid;\n    deployedBallots[ballotCount].creationDate = now;\n    deployedBallots[ballotCount].expirationDate = now + amounthours;\n    \n\n    for (uint i = 0;i < presCands.length; i++){\n        deployedBallots[ballotCount].presidentialCandidates[presCands[i].id].id = presCands[i].id;\n        deployedBallots[ballotCount].presidentialCandidates[presCands[i].id].name = presCands[i].name;\n        deployedBallots[ballotCount].presidentialCandidates[presCands[i].id].party = presCands[i].party;\n        deployedBallots[ballotCount].presidentialCandidates[presCands[i].id].manifesto = presCands[i].manifesto;\n        deployedBallots[ballotCount].presidentialCandidates[presCands[i].id].voteCount = presCands[i].voteCount;\n        deployedBallots[ballotCount].presidentialCandidates[presCands[i].id].imgURL = presCands[i].imgURL;\n        deployedBallots[ballotCount].presidentialCandidates[presCands[i].id].partyImg = presCands[i].partyImg;\n        deployedBallots[ballotCount].presidentialCandidates[presCands[i].id].cand_address = presCands[i].cand_address;\n        candidateCount++;\n\n    }\n\n    for (uint i = 0;i < parlCands.length; i++){\n        deployedBallots[ballotCount].parliamentaryCandidates[parlCands[i].id].id = parlCands[i].id;\n        deployedBallots[ballotCount].parliamentaryCandidates[parlCands[i].id].name = parlCands[i].name;\n        deployedBallots[ballotCount].parliamentaryCandidates[parlCands[i].id].manifesto = parlCands[i].manifesto;\n        deployedBallots[ballotCount].parliamentaryCandidates[parlCands[i].id].party = parlCands[i].party;\n        deployedBallots[ballotCount].parliamentaryCandidates[parlCands[i].id].district = parlCands[i].district;\n        deployedBallots[ballotCount].parliamentaryCandidates[parlCands[i].id].voteCount = parlCands[i].voteCount;\n        deployedBallots[ballotCount].districts[parlCands[i].id].district = parlCands[i].district;\n        deployedBallots[ballotCount].presidentialCandidates[presCands[i].id].imgURL = presCands[i].imgURL;\n        deployedBallots[ballotCount].presidentialCandidates[presCands[i].id].partyImg = presCands[i].partyImg;\n        deployedBallots[ballotCount].districts[parlCands[i].id].voteCount = parlCands[i].voteCount;\n        deployedBallots[ballotCount].parliamentaryCandidates[parlCands[i].id].cand_address = parlCands[i].cand_address;\n        parl_candidateCount++;\n    \n    }\n\n    \n\n\nballotCount++;\nballotid++;\n\n     \n\n}\n\nfunction send(address payable _receiver) payable public{\n    _receiver.send(msg.value);\n  }\n\nfunction voteForPresident(uint candidateid, uint electionid) payable public { \n\n   require(!voters[msg.sender].pres, \"Already voted.\"); \n\n\n    if(now > deployedBallots[electionid].expirationDate){ \n        revert();\n } \n//end(deployedBallots[electionid].presidentialCandidates[candidateid].cand_address);\n//require(address(this).balance >  1);\n//deployedBallots[electionid].presidentialCandidates[candidateid].cand_address.send(10);\ndeployedBallots[electionid].presidentialCandidates[candidateid].voteCount += 1;\nvoters[msg.sender].pres = true; \n}\n\nfunction getbalance()payable public  returns(uint tt,address add){\n    return (address(this).balance,msg.sender);\n}\n\nfunction voteForParliament(uint candidateid, uint electionid,string memory districtname)public { \n\n    require(!voters[msg.sender].parl); \n\n    if(now > deployedBallots[electionid].expirationDate){ \n        revert();\n} \n\ndeployedBallots[electionid].districts[districtVoteCount].id = candidateid;\ndeployedBallots[electionid].districts[districtVoteCount].district = districtname;\ndeployedBallots[electionid].districts[districtVoteCount].voteCount += 1;\nvoters[msg.sender].parl = true; \n}\n\n\n\n\n function getDeployedBallots(uint id) public view returns(uint ballotid,uint creationDate,uint expirationDate) { \n     return (deployedBallots[id].ballotid,deployedBallots[id].creationDate,deployedBallots[id].expirationDate);\n }\n\n function getPresidentialCount() public view returns(uint count){\n     return candidateCount;\n }\n function getParliamentaryCount() public view returns(uint count){\n     return parl_candidateCount;\n }\n function getVoteCountForDistrict(uint candid,uint electionid,string memory district) public view returns(uint count) {\n     uint counter = 0;\n   \n       for (uint i = 0;i < districtVoteCount ; i++){\n             uint cid = deployedBallots[electionid].districts[i].id;\n             string memory dist = deployedBallots[electionid].districts[i].district;\n           if(cid==candid && keccak256(bytes(dist))==keccak256(bytes(district))){\n               counter++;\n           }\n       }\n       return counter;\n     \n }\n function sumAllParlCandidateVotesFromAllDistricts(uint candid,uint electionid)public view returns(uint count){\n uint counter = 0;\n       for (uint i = 0;i < districtVoteCount; i++){\n           if(deployedBallots[electionid].districts[i].id==candid){\n               counter++;\n           }\n       }\n       return counter;\n }\n function getPresidentialVoteCount(uint candidateid,uint electionid) public view returns(uint){\n    return deployedBallots[electionid].presidentialCandidates[candidateid].voteCount;\n}\n\nfunction getParliamentaryVoteCount(uint candidateid,uint electionid) public view returns(uint) {\n    return deployedBallots[electionid].districts[candidateid].voteCount;\n    \n}\nfunction getPresidentialCandidates(uint electionid,uint i) public view returns(uint id,string memory name,\n string memory party, string memory manifesto,uint count, string memory imgURL, string memory partyImg,address cand_addr){\n Presidential memory p = deployedBallots[electionid].presidentialCandidates[i];\n return(p.id,p.name,p.party,p.manifesto,p.voteCount,p.imgURL,p.partyImg,p.cand_address);\n    \n\n }\n\n function getParliamentaryCandidates(uint electionid,uint i) public view returns(uint id,string memory name,\n string memory party, string memory manifesto,uint count, string memory imgURL, string memory partyImg,string memory district,address cand_addr){\n Parliamentary memory p = deployedBallots[electionid].parliamentaryCandidates[i];\n return(p.id,p.name,p.party,p.manifesto,p.voteCount,p.imgURL,p.partyImg,p.district,p.cand_address);\n    \n\n }\n\n}\n",
  "sourcePath": "/home/deedat5/Desktop/Blockchain-based-e-voting/contracts/ElectionCreation.sol",
  "compiler": {
    "name": "solc",
    "version": "0.5.16+commit.9c3226ce.Emscripten.clang"
  },
  "schemaVersion": "3.2.0",
  "updatedAt": "2020-06-29T10:03:08.543Z",
  "networkType": "ethereum",
  "devdoc": {
    "methods": {}
  },
  "userdoc": {
    "methods": {}
  }
}