{
  "contractName": "ElectionCreation",
  "abi": [
    {
      "inputs": [],
      "payable": false,
      "stateMutability": "nonpayable",
      "type": "constructor"
    },
    {
      "constant": true,
      "inputs": [],
      "name": "candidateCount",
      "outputs": [
        {
          "internalType": "uint256",
          "name": "",
          "type": "uint256"
        }
      ],
      "payable": false,
      "stateMutability": "view",
      "type": "function"
    },
    {
      "constant": true,
      "inputs": [
        {
          "internalType": "uint256",
          "name": "",
          "type": "uint256"
        }
      ],
      "name": "deployedBallots",
      "outputs": [
        {
          "internalType": "uint256",
          "name": "ballotid",
          "type": "uint256"
        },
        {
          "internalType": "uint256",
          "name": "creationDate",
          "type": "uint256"
        },
        {
          "internalType": "uint256",
          "name": "expirationDate",
          "type": "uint256"
        }
      ],
      "payable": false,
      "stateMutability": "view",
      "type": "function"
    },
    {
      "constant": true,
      "inputs": [],
      "name": "manager",
      "outputs": [
        {
          "internalType": "address",
          "name": "",
          "type": "address"
        }
      ],
      "payable": false,
      "stateMutability": "view",
      "type": "function"
    },
    {
      "constant": true,
      "inputs": [
        {
          "internalType": "address",
          "name": "",
          "type": "address"
        }
      ],
      "name": "voters",
      "outputs": [
        {
          "internalType": "bool",
          "name": "pres",
          "type": "bool"
        },
        {
          "internalType": "bool",
          "name": "parl",
          "type": "bool"
        }
      ],
      "payable": false,
      "stateMutability": "view",
      "type": "function"
    },
    {
      "constant": false,
      "inputs": [
        {
          "components": [
            {
              "internalType": "uint256",
              "name": "id",
              "type": "uint256"
            },
            {
              "internalType": "string",
              "name": "presname",
              "type": "string"
            },
            {
              "internalType": "string",
              "name": "party",
              "type": "string"
            },
            {
              "internalType": "uint256",
              "name": "voteCount",
              "type": "uint256"
            }
          ],
          "internalType": "struct ElectionCreation.Presidential[]",
          "name": "presCands",
          "type": "tuple[]"
        },
        {
          "components": [
            {
              "internalType": "uint256",
              "name": "id",
              "type": "uint256"
            },
            {
              "internalType": "string",
              "name": "parlname",
              "type": "string"
            },
            {
              "internalType": "string",
              "name": "party",
              "type": "string"
            },
            {
              "internalType": "string",
              "name": "districtname",
              "type": "string"
            },
            {
              "internalType": "uint256",
              "name": "voteCount",
              "type": "uint256"
            }
          ],
          "internalType": "struct ElectionCreation.Parliamentary[]",
          "name": "parlCands",
          "type": "tuple[]"
        },
        {
          "internalType": "uint256",
          "name": "amounthours",
          "type": "uint256"
        },
        {
          "internalType": "address",
          "name": "creator",
          "type": "address"
        }
      ],
      "name": "CreateElection",
      "outputs": [],
      "payable": false,
      "stateMutability": "nonpayable",
      "type": "function"
    },
    {
      "constant": false,
      "inputs": [
        {
          "internalType": "uint256",
          "name": "candidateid",
          "type": "uint256"
        },
        {
          "internalType": "uint256",
          "name": "electionid",
          "type": "uint256"
        }
      ],
      "name": "voteForPresident",
      "outputs": [],
      "payable": false,
      "stateMutability": "nonpayable",
      "type": "function"
    },
    {
      "constant": false,
      "inputs": [
        {
          "internalType": "uint256",
          "name": "candidateid",
          "type": "uint256"
        },
        {
          "internalType": "uint256",
          "name": "electionid",
          "type": "uint256"
        }
      ],
      "name": "voteForParliament",
      "outputs": [],
      "payable": false,
      "stateMutability": "nonpayable",
      "type": "function"
    },
    {
      "constant": true,
      "inputs": [
        {
          "internalType": "uint256",
          "name": "candidateid",
          "type": "uint256"
        },
        {
          "internalType": "uint256",
          "name": "electionid",
          "type": "uint256"
        }
      ],
      "name": "getPresidentialVoteCount",
      "outputs": [
        {
          "internalType": "uint256",
          "name": "",
          "type": "uint256"
        }
      ],
      "payable": false,
      "stateMutability": "view",
      "type": "function"
    },
    {
      "constant": true,
      "inputs": [
        {
          "internalType": "uint256",
          "name": "candidateid",
          "type": "uint256"
        },
        {
          "internalType": "uint256",
          "name": "electionid",
          "type": "uint256"
        }
      ],
      "name": "getParliamentaryVoteCount",
      "outputs": [
        {
          "internalType": "uint256",
          "name": "",
          "type": "uint256"
        }
      ],
      "payable": false,
      "stateMutability": "view",
      "type": "function"
    },
    {
      "constant": true,
      "inputs": [
        {
          "internalType": "uint256",
          "name": "id",
          "type": "uint256"
        }
      ],
      "name": "getDeployedBallots",
      "outputs": [
        {
          "internalType": "uint256",
          "name": "ballotid",
          "type": "uint256"
        },
        {
          "internalType": "uint256",
          "name": "creationDate",
          "type": "uint256"
        },
        {
          "internalType": "uint256",
          "name": "expirationDate",
          "type": "uint256"
        }
      ],
      "payable": false,
      "stateMutability": "view",
      "type": "function"
    },
    {
      "constant": true,
      "inputs": [],
      "name": "getPresidentialCount",
      "outputs": [
        {
          "internalType": "uint256",
          "name": "count",
          "type": "uint256"
        }
      ],
      "payable": false,
      "stateMutability": "view",
      "type": "function"
    },
    {
      "constant": true,
      "inputs": [
        {
          "internalType": "uint256",
          "name": "electionid",
          "type": "uint256"
        },
        {
          "internalType": "uint256",
          "name": "i",
          "type": "uint256"
        }
      ],
      "name": "getPresidentialCandidates",
      "outputs": [
        {
          "internalType": "uint256",
          "name": "id",
          "type": "uint256"
        },
        {
          "internalType": "string",
          "name": "name",
          "type": "string"
        },
        {
          "internalType": "string",
          "name": "party",
          "type": "string"
        },
        {
          "internalType": "uint256",
          "name": "count",
          "type": "uint256"
        }
      ],
      "payable": false,
      "stateMutability": "view",
      "type": "function"
    }
  ],
  "bytecode": "0x60806040526000805534801561001457600080fd5b506000600260003373ffffffffffffffffffffffffffffffffffffffff1673ffffffffffffffffffffffffffffffffffffffff16815260200190815260200160002060000160006101000a81548160ff0219169083151502179055506000600260003373ffffffffffffffffffffffffffffffffffffffff1673ffffffffffffffffffffffffffffffffffffffff16815260200190815260200160002060000160016101000a81548160ff021916908315150217905550611544806100da6000396000f3fe608060405234801561001057600080fd5b50600436106100b45760003560e01c8063c003418911610071578063c0034189146101b8578063cdf74c3e146101d6578063d9635e0c14610208578063db3ad35a14610224578063de257af314610257578063e0f5bbf114610273576100b4565b8063481c6a75146100b9578063484cb1a8146100d75780636abfe4c914610107578063a3ec138d14610139578063a9a981a31461016a578063b0473a2b14610188575b600080fd5b6100c161028f565b6040516100ce919061128a565b60405180910390f35b6100f160048036036100ec91908101906111e8565b6102b5565b6040516100fe91906112ce565b60405180910390f35b610121600480360361011c91908101906111bf565b6102ea565b6040516101309392919061133c565b60405180910390f35b610153600480360361014e9190810190611103565b610341565b6040516101619291906112a5565b60405180910390f35b61017261037f565b60405161017f91906112ce565b60405180910390f35b6101a2600480360361019d91908101906111e8565b610385565b6040516101af91906112ce565b60405180910390f35b6101c06103ba565b6040516101cd91906112ce565b60405180910390f35b6101f060048036036101eb91908101906111bf565b6103c7565b6040516101ff9392919061133c565b60405180910390f35b610222600480360361021d91908101906111e8565b6103f1565b005b61023e600480360361023991908101906111e8565b610505565b60405161024e94939291906112e9565b60405180910390f35b610271600480360361026c91908101906111e8565b610710565b005b61028d6004803603610288919081019061112c565b610824565b005b600360009054906101000a900473ffffffffffffffffffffffffffffffffffffffff1681565b600060016000838152602001908152602001600020600301600084815260200190815260200160002060010154905092915050565b60008060006001600085815260200190815260200160002060000154600160008681526020019081526020016000206004015460016000878152602001908152602001600020600501549250925092509193909250565b60026020528060005260406000206000915090508060000160009054906101000a900460ff16908060000160019054906101000a900460ff16905082565b60005481565b600060016000838152602001908152602001600020600101600084815260200190815260200160002060030154905092915050565b6000600160005401905090565b60016020528060005260406000206000915090508060000154908060040154908060050154905083565b600260003373ffffffffffffffffffffffffffffffffffffffff1673ffffffffffffffffffffffffffffffffffffffff16815260200190815260200160002060000160009054906101000a900460ff161561044b57600080fd5b600160008281526020019081526020016000206005015442111561046e57600080fd5b60018060008381526020019081526020016000206001016000848152602001908152602001600020600301600082825401925050819055506001600260003373ffffffffffffffffffffffffffffffffffffffff1673ffffffffffffffffffffffffffffffffffffffff16815260200190815260200160002060000160006101000a81548160ff0219169083151502179055505050565b600060608060008060016000888152602001908152602001600020600101600087815260200190815260200160002060000154905060606001600089815260200190815260200160002060010160008881526020019081526020016000206001018054600181600116156101000203166002900480601f0160208091040260200160405190810160405280929190818152602001828054600181600116156101000203166002900480156105fa5780601f106105cf576101008083540402835291602001916105fa565b820191906000526020600020905b8154815290600101906020018083116105dd57829003601f168201915b505050505090506060600160008a815260200190815260200160002060010160008981526020019081526020016000206002018054600181600116156101000203166002900480601f0160208091040260200160405190810160405280929190818152602001828054600181600116156101000203166002900480156106c15780601f10610696576101008083540402835291602001916106c1565b820191906000526020600020905b8154815290600101906020018083116106a457829003601f168201915b505050505090506000600160008b815260200190815260200160002060010160008a81526020019081526020016000206003015490508383838397509750975097505050505092959194509250565b600260003373ffffffffffffffffffffffffffffffffffffffff1673ffffffffffffffffffffffffffffffffffffffff16815260200190815260200160002060000160019054906101000a900460ff161561076a57600080fd5b600160008281526020019081526020016000206005015442111561078d57600080fd5b60018060008381526020019081526020016000206003016000848152602001908152602001600020600101600082825401925050819055506001600260003373ffffffffffffffffffffffffffffffffffffffff1673ffffffffffffffffffffffffffffffffffffffff16815260200190815260200160002060000160016101000a81548160ff0219169083151502179055505050565b6000809050600080905082600360006101000a81548173ffffffffffffffffffffffffffffffffffffffff021916908373ffffffffffffffffffffffffffffffffffffffff160217905550816001600083815260200190815260200160002060000181905550426001600083815260200190815260200160002060040181905550834201600160008381526020019081526020016000206005018190555060008090505b8651811015610a72578681815181106108dd57fe5b60200260200101516000015160016000848152602001908152602001600020600101600089848151811061090d57fe5b60200260200101516000015181526020019081526020016000206000018190555086818151811061093a57fe5b60200260200101516020015160016000848152602001908152602001600020600101600089848151811061096a57fe5b6020026020010151600001518152602001908152602001600020600101908051906020019061099a929190610d84565b508681815181106109a757fe5b6020026020010151604001516001600084815260200190815260200160002060010160008984815181106109d757fe5b60200260200101516000015181526020019081526020016000206002019080519060200190610a07929190610d84565b50868181518110610a1457fe5b602002602001015160600151600160008481526020019081526020016000206001016000898481518110610a4457fe5b60200260200101516000015181526020019081526020016000206003018190555080806001019150506108c8565b5060008090505b8551811015610d5a57858181518110610a8e57fe5b602002602001015160000151600160008481526020019081526020016000206002016000888481518110610abe57fe5b602002602001015160000151815260200190815260200160002060000181905550858181518110610aeb57fe5b602002602001015160200151600160008481526020019081526020016000206002016000888481518110610b1b57fe5b60200260200101516000015181526020019081526020016000206001019080519060200190610b4b929190610d84565b50858181518110610b5857fe5b602002602001015160400151600160008481526020019081526020016000206002016000888481518110610b8857fe5b60200260200101516000015181526020019081526020016000206002019080519060200190610bb8929190610d84565b50858181518110610bc557fe5b602002602001015160600151600160008481526020019081526020016000206002016000888481518110610bf557fe5b60200260200101516000015181526020019081526020016000206003019080519060200190610c25929190610d84565b50858181518110610c3257fe5b602002602001015160800151600160008481526020019081526020016000206002016000888481518110610c6257fe5b602002602001015160000151815260200190815260200160002060040181905550858181518110610c8f57fe5b602002602001015160600151600160008481526020019081526020016000206003016000888481518110610cbf57fe5b60200260200101516000015181526020019081526020016000206000019080519060200190610cef929190610d84565b50858181518110610cfc57fe5b602002602001015160800151600160008481526020019081526020016000206003016000888481518110610d2c57fe5b6020026020010151600001518152602001908152602001600020600101819055508080600101915050610a79565b50808060010191505081806001019250506000808154809291906001019190505550505050505050565b828054600181600116156101000203166002900490600052602060002090601f016020900481019282601f10610dc557805160ff1916838001178555610df3565b82800160010185558215610df3579182015b82811115610df2578251825591602001919060010190610dd7565b5b509050610e009190610e04565b5090565b610e2691905b80821115610e22576000816000905550600101610e0a565b5090565b90565b600081359050610e38816114d3565b92915050565b600082601f830112610e4f57600080fd5b8135610e62610e5d826113a0565b611373565b9150818183526020840193506020810190508360005b83811015610ea85781358601610e8e8882610f7a565b845260208401935060208301925050600181019050610e78565b5050505092915050565b600082601f830112610ec357600080fd5b8135610ed6610ed1826113c8565b611373565b9150818183526020840193506020810190508360005b83811015610f1c5781358601610f02888261104a565b845260208401935060208301925050600181019050610eec565b5050505092915050565b600082601f830112610f3757600080fd5b8135610f4a610f45826113f0565b611373565b91508082526020830160208301858383011115610f6657600080fd5b610f71838284611480565b50505092915050565b600060a08284031215610f8c57600080fd5b610f9660a0611373565b90506000610fa6848285016110ee565b600083015250602082013567ffffffffffffffff811115610fc657600080fd5b610fd284828501610f26565b602083015250604082013567ffffffffffffffff811115610ff257600080fd5b610ffe84828501610f26565b604083015250606082013567ffffffffffffffff81111561101e57600080fd5b61102a84828501610f26565b606083015250608061103e848285016110ee565b60808301525092915050565b60006080828403121561105c57600080fd5b6110666080611373565b90506000611076848285016110ee565b600083015250602082013567ffffffffffffffff81111561109657600080fd5b6110a284828501610f26565b602083015250604082013567ffffffffffffffff8111156110c257600080fd5b6110ce84828501610f26565b60408301525060606110e2848285016110ee565b60608301525092915050565b6000813590506110fd816114ea565b92915050565b60006020828403121561111557600080fd5b600061112384828501610e29565b91505092915050565b6000806000806080858703121561114257600080fd5b600085013567ffffffffffffffff81111561115c57600080fd5b61116887828801610eb2565b945050602085013567ffffffffffffffff81111561118557600080fd5b61119187828801610e3e565b93505060406111a2878288016110ee565b92505060606111b387828801610e29565b91505092959194509250565b6000602082840312156111d157600080fd5b60006111df848285016110ee565b91505092915050565b600080604083850312156111fb57600080fd5b6000611209858286016110ee565b925050602061121a858286016110ee565b9150509250929050565b61122d81611438565b82525050565b61123c8161144a565b82525050565b600061124d8261141c565b6112578185611427565b935061126781856020860161148f565b611270816114c2565b840191505092915050565b61128481611476565b82525050565b600060208201905061129f6000830184611224565b92915050565b60006040820190506112ba6000830185611233565b6112c76020830184611233565b9392505050565b60006020820190506112e3600083018461127b565b92915050565b60006080820190506112fe600083018761127b565b81810360208301526113108186611242565b905081810360408301526113248185611242565b9050611333606083018461127b565b95945050505050565b6000606082019050611351600083018661127b565b61135e602083018561127b565b61136b604083018461127b565b949350505050565b6000604051905081810181811067ffffffffffffffff8211171561139657600080fd5b8060405250919050565b600067ffffffffffffffff8211156113b757600080fd5b602082029050602081019050919050565b600067ffffffffffffffff8211156113df57600080fd5b602082029050602081019050919050565b600067ffffffffffffffff82111561140757600080fd5b601f19601f8301169050602081019050919050565b600081519050919050565b600082825260208201905092915050565b600061144382611456565b9050919050565b60008115159050919050565b600073ffffffffffffffffffffffffffffffffffffffff82169050919050565b6000819050919050565b82818337600083830152505050565b60005b838110156114ad578082015181840152602081019050611492565b838111156114bc576000848401525b50505050565b6000601f19601f8301169050919050565b6114dc81611438565b81146114e757600080fd5b50565b6114f381611476565b81146114fe57600080fd5b5056fea365627a7a72315820a3370b4801a5c6ee0a7c3d714bd652697b05f86d0f75f3fff5839fd9d75f0d606c6578706572696d656e74616cf564736f6c634300050c0040",
  "source": "pragma solidity >=0.4.22 <0.6.0;\r\npragma experimental ABIEncoderV2;\r\n\r\n\r\ncontract ElectionCreation {\r\nuint public candidateCount = 0;\r\nmapping(uint=>Ballot) public deployedBallots;\r\nmapping(address=>vote_right) public voters;\r\naddress public manager;\r\n\r\nstruct vote_right{\r\n    bool pres;\r\n    bool parl;\r\n}\r\nstruct Ballot{\r\n        uint ballotid;\r\n        mapping(uint=>Presidential) presidentialCandidates;\r\n        mapping(uint=>Parliamentary) parliamentaryCandidates;\r\n        mapping(uint=>district) districts;\r\n        uint creationDate;\r\n        uint expirationDate;\r\n}\r\n struct Presidential{\r\n     uint id;\r\n     string presname;\r\n     string party;\r\n     uint voteCount;\r\n\r\n }\r\n\r\n struct Parliamentary{\r\n     uint id;\r\n     string parlname;\r\n     string party;\r\n     string districtname;\r\n     uint voteCount;\r\n     \r\n }\r\nstruct district{\r\n    string districtname;\r\n    uint voteCount;\r\n}\r\nmodifier restricted() { \r\n    require(msg.sender == manager); _;\r\n}\r\nconstructor () public { \r\n    \r\n   voters[msg.sender].pres = false;\r\n   voters[msg.sender].parl = false;\r\n}\r\n\r\nfunction CreateElection(Presidential[] memory presCands,Parliamentary[] memory parlCands,\r\nuint amounthours, address creator)public {\r\n    uint ballotid = 0;\r\n    uint ballotCount = 0;\r\n    manager = creator;\r\n    \r\n    deployedBallots[ballotCount].ballotid = ballotid;\r\n    deployedBallots[ballotCount].creationDate = now;\r\n    deployedBallots[ballotCount].expirationDate = now + amounthours;\r\n    \r\n\r\n    for (uint i = 0;i < presCands.length; i++){\r\n        deployedBallots[ballotCount].presidentialCandidates[presCands[i].id].id = presCands[i].id;\r\n        deployedBallots[ballotCount].presidentialCandidates[presCands[i].id].presname = presCands[i].presname;\r\n        deployedBallots[ballotCount].presidentialCandidates[presCands[i].id].party = presCands[i].party;\r\n        deployedBallots[ballotCount].presidentialCandidates[presCands[i].id].voteCount = presCands[i].voteCount;\r\n\r\n    }\r\n\r\n    for (uint i = 0;i < parlCands.length; i++){\r\n        deployedBallots[ballotCount].parliamentaryCandidates[parlCands[i].id].id = parlCands[i].id;\r\n        deployedBallots[ballotCount].parliamentaryCandidates[parlCands[i].id].parlname = parlCands[i].parlname;\r\n        deployedBallots[ballotCount].parliamentaryCandidates[parlCands[i].id].party = parlCands[i].party;\r\n        deployedBallots[ballotCount].parliamentaryCandidates[parlCands[i].id].districtname = parlCands[i].districtname;\r\n        deployedBallots[ballotCount].parliamentaryCandidates[parlCands[i].id].voteCount = parlCands[i].voteCount;\r\n        deployedBallots[ballotCount].districts[parlCands[i].id].districtname = parlCands[i].districtname;\r\n        deployedBallots[ballotCount].districts[parlCands[i].id].voteCount = parlCands[i].voteCount;\r\n    \r\n    }\r\n\r\n    \r\n\r\n\r\nballotCount++;\r\nballotid++;\r\ncandidateCount++;\r\n     \r\n\r\n}\r\n\r\n\r\nfunction voteForPresident(uint candidateid, uint electionid)public { \r\n\r\n   require(!voters[msg.sender].pres); \r\n\r\n    if(now > deployedBallots[electionid].expirationDate){ \r\n        revert();\r\n } \r\ndeployedBallots[electionid].presidentialCandidates[candidateid].voteCount += 1;\r\nvoters[msg.sender].pres = true; \r\n}\r\n\r\nfunction voteForParliament(uint candidateid, uint electionid)public { \r\n\r\n    require(!voters[msg.sender].parl); \r\n\r\n    if(now > deployedBallots[electionid].expirationDate){ \r\n        revert();\r\n} \r\ndeployedBallots[electionid].districts[candidateid].voteCount += 1;\r\nvoters[msg.sender].parl = true; \r\n}\r\n\r\n\r\nfunction getPresidentialVoteCount(uint candidateid,uint electionid) public view returns(uint){\r\n    return deployedBallots[electionid].presidentialCandidates[candidateid].voteCount;\r\n}\r\n\r\nfunction getParliamentaryVoteCount(uint candidateid,uint electionid) public view returns(uint) {\r\n    return deployedBallots[electionid].districts[candidateid].voteCount;\r\n    \r\n}\r\n function getDeployedBallots(uint id) public view returns(uint ballotid,uint creationDate,uint expirationDate) { \r\n     return (deployedBallots[id].ballotid,deployedBallots[id].creationDate,deployedBallots[id].expirationDate);\r\n }\r\n\r\n function getPresidentialCount() public view returns(uint count){\r\n     return candidateCount+1;\r\n }\r\nfunction getPresidentialCandidates(uint electionid,uint i) public view returns(uint id,string memory name,\r\n string memory party,uint count){\r\n uint cid = deployedBallots[electionid].presidentialCandidates[i].id;\r\n string memory cname = deployedBallots[electionid].presidentialCandidates[i].presname;\r\n string memory cparty = deployedBallots[electionid].presidentialCandidates[i].party;\r\n uint  votecount = deployedBallots[electionid].presidentialCandidates[i].voteCount;\r\n return(cid,cname,cparty,votecount);\r\n    \r\n\r\n }\r\n\r\n}\r\n",
  "sourcePath": "C:/Users/deedat/Desktop/myfinalyearproject/contracts/ElectionCreation.sol",
  "compiler": {
    "name": "solc",
    "version": "0.5.12+commit.7709ece9.Emscripten.clang"
  },
  "schemaVersion": "3.0.20",
  "updatedAt": "2020-01-28T17:04:48.987Z",
  "networkType": "ethereum",
  "devdoc": {
    "methods": {}
  },
  "userdoc": {
    "methods": {}
  }
}