{
  "contractName": "ElectionCreation",
  "abi": [
    {
      "constant": true,
      "inputs": [
        {
          "name": "",
          "type": "uint256"
        }
      ],
      "name": "deployedBallots",
      "outputs": [
        {
          "name": "ballotid",
          "type": "uint256"
        },
        {
          "name": "creationDate",
          "type": "uint256"
        },
        {
          "name": "expirationDate",
          "type": "uint256"
        }
      ],
      "payable": false,
      "stateMutability": "view",
      "type": "function"
    },
    {
      "inputs": [],
      "payable": false,
      "stateMutability": "nonpayable",
      "type": "constructor"
    },
    {
      "constant": false,
      "inputs": [
        {
          "components": [
            {
              "name": "id",
              "type": "uint256"
            },
            {
              "name": "presname",
              "type": "string"
            },
            {
              "name": "party",
              "type": "string"
            }
          ],
          "name": "presCands",
          "type": "tuple[]"
        },
        {
          "components": [
            {
              "name": "id",
              "type": "uint256"
            },
            {
              "name": "parlname",
              "type": "string"
            },
            {
              "name": "party",
              "type": "string"
            },
            {
              "name": "district",
              "type": "string"
            }
          ],
          "name": "parlCands",
          "type": "tuple[]"
        },
        {
          "name": "amounthours",
          "type": "uint256"
        }
      ],
      "name": "CreateElection",
      "outputs": [],
      "payable": false,
      "stateMutability": "nonpayable",
      "type": "function"
    },
    {
      "constant": true,
      "inputs": [
        {
          "name": "id",
          "type": "uint256"
        }
      ],
      "name": "getDeployedBallots",
      "outputs": [
        {
          "components": [
            {
              "name": "id",
              "type": "uint256"
            },
            {
              "name": "presname",
              "type": "string"
            },
            {
              "name": "party",
              "type": "string"
            }
          ],
          "name": "",
          "type": "tuple[]"
        }
      ],
      "payable": false,
      "stateMutability": "view",
      "type": "function"
    }
  ],
  "bytecode": "0x608060405234801561001057600080fd5b50610c86806100206000396000f3fe608060405234801561001057600080fd5b50600436106100415760003560e01c80634aaa9098146100465780636abfe4c914610062578063cdf74c3e14610092575b600080fd5b610060600480360361005b91908101906108a5565b6100c4565b005b61007c60048036036100779190810190610924565b610377565b6040516100899190610a84565b60405180910390f35b6100ac60048036036100a79190810190610924565b610539565b6040516100bb93929190610aa6565b60405180910390f35b60008090506000809050816000808381526020019081526020016000206000018190555042600080838152602001908152602001600020600301819055508242016000808381526020019081526020016000206004018190555060008090505b855181101561036f57600080838152602001908152602001600020600101604051806060016040528088848151811061015957fe5b602002602001015160000151815260200188848151811061017657fe5b602002602001015160200151815260200188848151811061019357fe5b602002602001015160400151815250908060018154018082558091505090600182039060005260206000209060030201600090919290919091506000820151816000015560208201518160010190805190602001906101f3929190610563565b506040820151816002019080519060200190610210929190610563565b5050505060008090505b855181101561035157600080848152602001908152602001600020600201604051806080016040528088848151811061024f57fe5b602002602001015160000151815260200188848151811061026c57fe5b602002602001015160200151815260200188848151811061028957fe5b60200260200101516040015181526020018884815181106102a657fe5b60200260200101516060015181525090806001815401808255809150509060018203906000526020600020906004020160009091929091909150600082015181600001556020820151816001019080519060200190610306929190610563565b506040820151816002019080519060200190610323929190610563565b506060820151816003019080519060200190610340929190610563565b50505050808060010191505061021a565b50818060010192505082806001019350508080600101915050610124565b505050505050565b6060600080838152602001908152602001600020600101805480602002602001604051908101604052809291908181526020016000905b8282101561052e578382906000526020600020906003020160405180606001604052908160008201548152602001600182018054600181600116156101000203166002900480601f0160208091040260200160405190810160405280929190818152602001828054600181600116156101000203166002900480156104745780601f1061044957610100808354040283529160200191610474565b820191906000526020600020905b81548152906001019060200180831161045757829003601f168201915b50505050508152602001600282018054600181600116156101000203166002900480601f0160208091040260200160405190810160405280929190818152602001828054600181600116156101000203166002900480156105165780601f106104eb57610100808354040283529160200191610516565b820191906000526020600020905b8154815290600101906020018083116104f957829003601f168201915b505050505081525050815260200190600101906103ae565b505050509050919050565b60006020528060005260406000206000915090508060000154908060030154908060040154905083565b828054600181600116156101000203166002900490600052602060002090601f016020900481019282601f106105a457805160ff19168380011785556105d2565b828001600101855582156105d2579182015b828111156105d15782518255916020019190600101906105b6565b5b5090506105df91906105e3565b5090565b61060591905b808211156106015760008160009055506001016105e9565b5090565b90565b600082601f83011261061957600080fd5b813561062c61062782610b0a565b610add565b9150818183526020840193506020810190508360005b8381101561067257813586016106588882610744565b845260208401935060208301925050600181019050610642565b5050505092915050565b600082601f83011261068d57600080fd5b81356106a061069b82610b32565b610add565b9150818183526020840193506020810190508360005b838110156106e657813586016106cc8882610800565b8452602084019350602083019250506001810190506106b6565b5050505092915050565b600082601f83011261070157600080fd5b813561071461070f82610b5a565b610add565b9150808252602083016020830185838301111561073057600080fd5b61073b838284610be2565b50505092915050565b60006080828403121561075657600080fd5b6107606080610add565b9050600061077084828501610890565b600083015250602082013567ffffffffffffffff81111561079057600080fd5b61079c848285016106f0565b602083015250604082013567ffffffffffffffff8111156107bc57600080fd5b6107c8848285016106f0565b604083015250606082013567ffffffffffffffff8111156107e857600080fd5b6107f4848285016106f0565b60608301525092915050565b60006060828403121561081257600080fd5b61081c6060610add565b9050600061082c84828501610890565b600083015250602082013567ffffffffffffffff81111561084c57600080fd5b610858848285016106f0565b602083015250604082013567ffffffffffffffff81111561087857600080fd5b610884848285016106f0565b60408301525092915050565b60008135905061089f81610c35565b92915050565b6000806000606084860312156108ba57600080fd5b600084013567ffffffffffffffff8111156108d457600080fd5b6108e08682870161067c565b935050602084013567ffffffffffffffff8111156108fd57600080fd5b61090986828701610608565b925050604061091a86828701610890565b9150509250925092565b60006020828403121561093657600080fd5b600061094484828501610890565b91505092915050565b60006109598383610a0f565b905092915050565b600061096c82610b93565b6109768185610bb6565b93508360208202850161098885610b86565b8060005b858110156109c457848403895281516109a5858261094d565b94506109b083610ba9565b925060208a0199505060018101905061098c565b50829750879550505050505092915050565b60006109e182610b9e565b6109eb8185610bc7565b93506109fb818560208601610bf1565b610a0481610c24565b840191505092915050565b6000606083016000830151610a276000860182610a66565b5060208301518482036020860152610a3f82826109d6565b91505060408301518482036040860152610a5982826109d6565b9150508091505092915050565b610a6f81610bd8565b82525050565b610a7e81610bd8565b82525050565b60006020820190508181036000830152610a9e8184610961565b905092915050565b6000606082019050610abb6000830186610a75565b610ac86020830185610a75565b610ad56040830184610a75565b949350505050565b6000604051905081810181811067ffffffffffffffff82111715610b0057600080fd5b8060405250919050565b600067ffffffffffffffff821115610b2157600080fd5b602082029050602081019050919050565b600067ffffffffffffffff821115610b4957600080fd5b602082029050602081019050919050565b600067ffffffffffffffff821115610b7157600080fd5b601f19601f8301169050602081019050919050565b6000602082019050919050565b600081519050919050565b600081519050919050565b6000602082019050919050565b600082825260208201905092915050565b600082825260208201905092915050565b6000819050919050565b82818337600083830152505050565b60005b83811015610c0f578082015181840152602081019050610bf4565b83811115610c1e576000848401525b50505050565b6000601f19601f8301169050919050565b610c3e81610bd8565b8114610c4957600080fd5b5056fea265627a7a7230582029cc23af3e8d7d80487f8ad8a216c2edfe5f12efda53e53fc1c25a55b190c17c6c6578706572696d656e74616cf50037",
  "source": "pragma solidity >=0.4.22 <0.6.0;\r\npragma experimental ABIEncoderV2;\r\n\r\n\r\ncontract ElectionCreation {\r\n\r\nmapping(uint=>Ballot) public deployedBallots;\r\nstruct Ballot{\r\n        uint ballotid;\r\n        Presidential[] presidentialCandidates;\r\n        Parliamentary[] parliamentaryCandidates;\r\n        uint creationDate;\r\n        uint expirationDate;\r\n}\r\n struct Presidential{\r\n     uint id;\r\n     string presname;\r\n     string party;\r\n     //uint voteCount;\r\n\r\n }\r\n\r\n struct Parliamentary{\r\n     uint id;\r\n     string parlname;\r\n     string party;\r\n     //uint voteCount;\r\n     string district;\r\n }\r\n\r\nconstructor () public { \r\n   \r\n}\r\n\r\nfunction CreateElection(Presidential[] memory presCands,Parliamentary[] memory parlCands,\r\nuint amounthours)public {\r\n    uint ballotid = 0;\r\n    uint ballotCount=0;\r\n    deployedBallots[ballotCount].ballotid = ballotid;\r\n    deployedBallots[ballotCount].creationDate = now;\r\n    deployedBallots[ballotCount].expirationDate = now + amounthours;\r\n    for (uint i = 0;i < presCands.length; i++){\r\n    deployedBallots[ballotCount].presidentialCandidates.push(Presidential(\r\n        {\r\n            id:presCands[i].id,\r\n            presname:presCands[i].presname,\r\n            party: presCands[i].party\r\n            //voteCount: 0\r\n        }\r\n    ));\r\n\r\n    for (uint i = 0;i < parlCands.length; i++){\r\n    deployedBallots[ballotCount].parliamentaryCandidates.push(Parliamentary(\r\n        {\r\n            id:parlCands[i].id,\r\n            parlname:parlCands[i].parlname,\r\n            party: parlCands[i].party,\r\n           // voteCount: 0,\r\n            district: parlCands[i].district\r\n        }\r\n    ));\r\n    \r\n    \r\n    }\r\n\r\n    ballotCount++;\r\n    ballotid++;\r\n     \r\n}\r\n\r\n\r\n\r\n}\r\n\r\n function getDeployedBallots(uint id) public view returns(Presidential[] memory) { \r\n     return deployedBallots[id].presidentialCandidates;\r\n }\r\n// function getallCandidates() public view returns(Candidate[] memory){\r\n//      return allCandidates;\r\n\r\n//  }\r\n\r\n}\r\n",
  "sourcePath": "C:/Users/deedat/Desktop/myfinalyearproject/contracts/ElectionCreation.sol",
  "compiler": {
    "name": "solc",
    "version": "0.5.8+commit.23d335f2.Emscripten.clang"
  },
  "schemaVersion": "3.0.16",
  "updatedAt": "2020-01-06T20:45:15.565Z",
  "devdoc": {
    "methods": {}
  },
  "userdoc": {
    "methods": {}
  }
}