{
  "contractName": "ElectionCreation",
  "abi": [
    {
      "inputs": [],
      "payable": false,
      "stateMutability": "nonpayable",
      "type": "constructor"
    },
    {
      "constant": true,
      "inputs": [
        {
          "internalType": "uint256",
          "name": "",
          "type": "uint256"
        }
      ],
      "name": "deployedBallots",
      "outputs": [
        {
          "internalType": "uint256",
          "name": "ballotid",
          "type": "uint256"
        },
        {
          "internalType": "uint256",
          "name": "creationDate",
          "type": "uint256"
        },
        {
          "internalType": "uint256",
          "name": "expirationDate",
          "type": "uint256"
        }
      ],
      "payable": false,
      "stateMutability": "view",
      "type": "function"
    },
    {
      "constant": true,
      "inputs": [],
      "name": "manager",
      "outputs": [
        {
          "internalType": "address",
          "name": "",
          "type": "address"
        }
      ],
      "payable": false,
      "stateMutability": "view",
      "type": "function"
    },
    {
      "constant": true,
      "inputs": [
        {
          "internalType": "address",
          "name": "",
          "type": "address"
        }
      ],
      "name": "voters",
      "outputs": [
        {
          "internalType": "bool",
          "name": "pres",
          "type": "bool"
        },
        {
          "internalType": "bool",
          "name": "parl",
          "type": "bool"
        }
      ],
      "payable": false,
      "stateMutability": "view",
      "type": "function"
    },
    {
      "constant": false,
      "inputs": [
        {
          "components": [
            {
              "internalType": "uint256",
              "name": "id",
              "type": "uint256"
            },
            {
              "internalType": "string",
              "name": "presname",
              "type": "string"
            },
            {
              "internalType": "string",
              "name": "party",
              "type": "string"
            },
            {
              "internalType": "uint256",
              "name": "voteCount",
              "type": "uint256"
            }
          ],
          "internalType": "struct ElectionCreation.Presidential[]",
          "name": "presCands",
          "type": "tuple[]"
        },
        {
          "components": [
            {
              "internalType": "uint256",
              "name": "id",
              "type": "uint256"
            },
            {
              "internalType": "string",
              "name": "parlname",
              "type": "string"
            },
            {
              "internalType": "string",
              "name": "party",
              "type": "string"
            },
            {
              "internalType": "string",
              "name": "districtname",
              "type": "string"
            },
            {
              "internalType": "uint256",
              "name": "voteCount",
              "type": "uint256"
            }
          ],
          "internalType": "struct ElectionCreation.Parliamentary[]",
          "name": "parlCands",
          "type": "tuple[]"
        },
        {
          "internalType": "uint256",
          "name": "amounthours",
          "type": "uint256"
        }
      ],
      "name": "CreateElection",
      "outputs": [],
      "payable": false,
      "stateMutability": "nonpayable",
      "type": "function"
    },
    {
      "constant": false,
      "inputs": [
        {
          "internalType": "uint256",
          "name": "candidateid",
          "type": "uint256"
        },
        {
          "internalType": "uint256",
          "name": "electionid",
          "type": "uint256"
        }
      ],
      "name": "voteForPresident",
      "outputs": [],
      "payable": false,
      "stateMutability": "nonpayable",
      "type": "function"
    },
    {
      "constant": false,
      "inputs": [
        {
          "internalType": "uint256",
          "name": "candidateid",
          "type": "uint256"
        },
        {
          "internalType": "uint256",
          "name": "electionid",
          "type": "uint256"
        }
      ],
      "name": "voteForParliament",
      "outputs": [],
      "payable": false,
      "stateMutability": "nonpayable",
      "type": "function"
    },
    {
      "constant": true,
      "inputs": [
        {
          "internalType": "uint256",
          "name": "candidateid",
          "type": "uint256"
        },
        {
          "internalType": "uint256",
          "name": "electionid",
          "type": "uint256"
        }
      ],
      "name": "getPresidentialVoteCount",
      "outputs": [
        {
          "internalType": "uint256",
          "name": "",
          "type": "uint256"
        }
      ],
      "payable": false,
      "stateMutability": "view",
      "type": "function"
    },
    {
      "constant": true,
      "inputs": [
        {
          "internalType": "uint256",
          "name": "candidateid",
          "type": "uint256"
        },
        {
          "internalType": "uint256",
          "name": "electionid",
          "type": "uint256"
        }
      ],
      "name": "getParliamentaryVoteCount",
      "outputs": [
        {
          "internalType": "uint256",
          "name": "",
          "type": "uint256"
        }
      ],
      "payable": false,
      "stateMutability": "view",
      "type": "function"
    },
    {
      "constant": true,
      "inputs": [
        {
          "internalType": "uint256",
          "name": "id",
          "type": "uint256"
        }
      ],
      "name": "getDeployedBallots",
      "outputs": [
        {
          "internalType": "uint256",
          "name": "ballotid",
          "type": "uint256"
        },
        {
          "internalType": "uint256",
          "name": "creationDate",
          "type": "uint256"
        },
        {
          "internalType": "uint256",
          "name": "expirationDate",
          "type": "uint256"
        }
      ],
      "payable": false,
      "stateMutability": "view",
      "type": "function"
    }
  ],
  "bytecode": "0x608060405234801561001057600080fd5b5033600260006101000a81548173ffffffffffffffffffffffffffffffffffffffff021916908373ffffffffffffffffffffffffffffffffffffffff160217905550611078806100616000396000f3fe608060405234801561001057600080fd5b50600436106100935760003560e01c8063a3ec138d11610066578063a3ec138d14610134578063b0473a2b14610165578063cdf74c3e14610195578063d9635e0c146101c7578063de257af3146101e357610093565b8063481c6a7514610098578063484cb1a8146100b65780634854c3b8146100e65780636abfe4c914610102575b600080fd5b6100a06101ff565b6040516100ad9190610e71565b60405180910390f35b6100d060048036036100cb9190810190610e08565b610225565b6040516100dd9190610eb5565b60405180910390f35b61010060048036036100fb9190810190610d60565b610259565b005b61011c60048036036101179190810190610ddf565b610758565b60405161012b93929190610ed0565b60405180910390f35b61014e60048036036101499190810190610d37565b6107ac565b60405161015c929190610e8c565b60405180910390f35b61017f600480360361017a9190810190610e08565b6107ea565b60405161018c9190610eb5565b60405180910390f35b6101af60048036036101aa9190810190610ddf565b61081e565b6040516101be93929190610ed0565b60405180910390f35b6101e160048036036101dc9190810190610e08565b610848565b005b6101fd60048036036101f89190810190610e08565b6108a6565b005b600260009054906101000a900473ffffffffffffffffffffffffffffffffffffffff1681565b6000806000838152602001908152602001600020600301600084815260200190815260200160002060010154905092915050565b60008090506000809050816000808381526020019081526020016000206000018190555042600080838152602001908152602001600020600401819055508242016000808381526020019081526020016000206005018190555060008090505b855181101561045f578581815181106102ce57fe5b60200260200101516000015160008084815260200190815260200160002060010160008884815181106102fd57fe5b60200260200101516000015181526020019081526020016000206000018190555085818151811061032a57fe5b602002602001015160200151600080848152602001908152602001600020600101600088848151811061035957fe5b602002602001015160000151815260200190815260200160002060010190805190602001906103899291906109b8565b5085818151811061039657fe5b60200260200101516040015160008084815260200190815260200160002060010160008884815181106103c557fe5b602002602001015160000151815260200190815260200160002060020190805190602001906103f59291906109b8565b5085818151811061040257fe5b602002602001015160600151600080848152602001908152602001600020600101600088848151811061043157fe5b60200260200101516000015181526020019081526020016000206003018190555080806001019150506102b9565b5060008090505b84518110156107405784818151811061047b57fe5b60200260200101516000015160008084815260200190815260200160002060020160008784815181106104aa57fe5b6020026020010151600001518152602001908152602001600020600001819055508481815181106104d757fe5b602002602001015160200151600080848152602001908152602001600020600201600087848151811061050657fe5b602002602001015160000151815260200190815260200160002060010190805190602001906105369291906109b8565b5084818151811061054357fe5b602002602001015160400151600080848152602001908152602001600020600201600087848151811061057257fe5b602002602001015160000151815260200190815260200160002060020190805190602001906105a29291906109b8565b508481815181106105af57fe5b60200260200101516060015160008084815260200190815260200160002060020160008784815181106105de57fe5b6020026020010151600001518152602001908152602001600020600301908051906020019061060e9291906109b8565b5084818151811061061b57fe5b602002602001015160800151600080848152602001908152602001600020600201600087848151811061064a57fe5b60200260200101516000015181526020019081526020016000206004018190555084818151811061067757fe5b60200260200101516060015160008084815260200190815260200160002060030160008784815181106106a657fe5b602002602001015160000151815260200190815260200160002060000190805190602001906106d69291906109b8565b508481815181106106e357fe5b602002602001015160800151600080848152602001908152602001600020600301600087848151811061071257fe5b6020026020010151600001518152602001908152602001600020600101819055508080600101915050610466565b50808060010191505081806001019250505050505050565b60008060008060008581526020019081526020016000206000015460008086815260200190815260200160002060040154600080878152602001908152602001600020600501549250925092509193909250565b60016020528060005260406000206000915090508060000160009054906101000a900460ff16908060000160019054906101000a900460ff16905082565b6000806000838152602001908152602001600020600101600084815260200190815260200160002060030154905092915050565b60006020528060005260406000206000915090508060000154908060040154908060050154905083565b60018060003373ffffffffffffffffffffffffffffffffffffffff1673ffffffffffffffffffffffffffffffffffffffff16815260200190815260200160002060000160006101000a81548160ff0219169083151502179055505050565b600160003373ffffffffffffffffffffffffffffffffffffffff1673ffffffffffffffffffffffffffffffffffffffff16815260200190815260200160002060000160019054906101000a900460ff161561090057600080fd5b6000808281526020019081526020016000206005015442111561092257600080fd5b600160008083815260200190815260200160002060030160008481526020019081526020016000206001016000828254019250508190555060018060003373ffffffffffffffffffffffffffffffffffffffff1673ffffffffffffffffffffffffffffffffffffffff16815260200190815260200160002060000160016101000a81548160ff0219169083151502179055505050565b828054600181600116156101000203166002900490600052602060002090601f016020900481019282601f106109f957805160ff1916838001178555610a27565b82800160010185558215610a27579182015b82811115610a26578251825591602001919060010190610a0b565b5b509050610a349190610a38565b5090565b610a5a91905b80821115610a56576000816000905550600101610a3e565b5090565b90565b600081359050610a6c81611007565b92915050565b600082601f830112610a8357600080fd5b8135610a96610a9182610f34565b610f07565b9150818183526020840193506020810190508360005b83811015610adc5781358601610ac28882610bae565b845260208401935060208301925050600181019050610aac565b5050505092915050565b600082601f830112610af757600080fd5b8135610b0a610b0582610f5c565b610f07565b9150818183526020840193506020810190508360005b83811015610b505781358601610b368882610c7e565b845260208401935060208301925050600181019050610b20565b5050505092915050565b600082601f830112610b6b57600080fd5b8135610b7e610b7982610f84565b610f07565b91508082526020830160208301858383011115610b9a57600080fd5b610ba5838284610ff8565b50505092915050565b600060a08284031215610bc057600080fd5b610bca60a0610f07565b90506000610bda84828501610d22565b600083015250602082013567ffffffffffffffff811115610bfa57600080fd5b610c0684828501610b5a565b602083015250604082013567ffffffffffffffff811115610c2657600080fd5b610c3284828501610b5a565b604083015250606082013567ffffffffffffffff811115610c5257600080fd5b610c5e84828501610b5a565b6060830152506080610c7284828501610d22565b60808301525092915050565b600060808284031215610c9057600080fd5b610c9a6080610f07565b90506000610caa84828501610d22565b600083015250602082013567ffffffffffffffff811115610cca57600080fd5b610cd684828501610b5a565b602083015250604082013567ffffffffffffffff811115610cf657600080fd5b610d0284828501610b5a565b6040830152506060610d1684828501610d22565b60608301525092915050565b600081359050610d318161101e565b92915050565b600060208284031215610d4957600080fd5b6000610d5784828501610a5d565b91505092915050565b600080600060608486031215610d7557600080fd5b600084013567ffffffffffffffff811115610d8f57600080fd5b610d9b86828701610ae6565b935050602084013567ffffffffffffffff811115610db857600080fd5b610dc486828701610a72565b9250506040610dd586828701610d22565b9150509250925092565b600060208284031215610df157600080fd5b6000610dff84828501610d22565b91505092915050565b60008060408385031215610e1b57600080fd5b6000610e2985828601610d22565b9250506020610e3a85828601610d22565b9150509250929050565b610e4d81610fb0565b82525050565b610e5c81610fc2565b82525050565b610e6b81610fee565b82525050565b6000602082019050610e866000830184610e44565b92915050565b6000604082019050610ea16000830185610e53565b610eae6020830184610e53565b9392505050565b6000602082019050610eca6000830184610e62565b92915050565b6000606082019050610ee56000830186610e62565b610ef26020830185610e62565b610eff6040830184610e62565b949350505050565b6000604051905081810181811067ffffffffffffffff82111715610f2a57600080fd5b8060405250919050565b600067ffffffffffffffff821115610f4b57600080fd5b602082029050602081019050919050565b600067ffffffffffffffff821115610f7357600080fd5b602082029050602081019050919050565b600067ffffffffffffffff821115610f9b57600080fd5b601f19601f8301169050602081019050919050565b6000610fbb82610fce565b9050919050565b60008115159050919050565b600073ffffffffffffffffffffffffffffffffffffffff82169050919050565b6000819050919050565b82818337600083830152505050565b61101081610fb0565b811461101b57600080fd5b50565b61102781610fee565b811461103257600080fd5b5056fea365627a7a7231582057965d524afab8b8e43cf836898cb610f64fe2c0ad374efbdaf4bd48650d80fd6c6578706572696d656e74616cf564736f6c634300050c0040",
  "source": "pragma solidity >=0.4.22 <0.6.0;\r\npragma experimental ABIEncoderV2;\r\n\r\n\r\ncontract ElectionCreation {\r\n\r\nmapping(uint=>Ballot) public deployedBallots;\r\nmapping(address=>vote_right) public voters;\r\naddress public manager;\r\n\r\nstruct vote_right{\r\n    bool pres;\r\n    bool parl;\r\n}\r\nstruct Ballot{\r\n        uint ballotid;\r\n        mapping(uint=>Presidential) presidentialCandidates;\r\n        mapping(uint=>Parliamentary) parliamentaryCandidates;\r\n        mapping(uint=>district) districts;\r\n        uint creationDate;\r\n        uint expirationDate;\r\n}\r\n struct Presidential{\r\n     uint id;\r\n     string presname;\r\n     string party;\r\n     uint voteCount;\r\n\r\n }\r\n\r\n struct Parliamentary{\r\n     uint id;\r\n     string parlname;\r\n     string party;\r\n     string districtname;\r\n     uint voteCount;\r\n     \r\n }\r\nstruct district{\r\n    string districtname;\r\n    uint voteCount;\r\n}\r\nmodifier restricted() { \r\n    require(msg.sender == manager); _;\r\n}\r\nconstructor () public { \r\n    manager = msg.sender;\r\n//    voters[msg.sender].pres = false;\r\n//    voters[msg.sender].parl = false;\r\n}\r\n\r\nfunction CreateElection(Presidential[] memory presCands,Parliamentary[] memory parlCands,\r\nuint amounthours)public {\r\n    uint ballotid = 0;\r\n    uint ballotCount = 0;\r\n    \r\n    \r\n    deployedBallots[ballotCount].ballotid = ballotid;\r\n    deployedBallots[ballotCount].creationDate = now;\r\n    deployedBallots[ballotCount].expirationDate = now + amounthours;\r\n    \r\n\r\n    for (uint i = 0;i < presCands.length; i++){\r\n        deployedBallots[ballotCount].presidentialCandidates[presCands[i].id].id=presCands[i].id;\r\n        deployedBallots[ballotCount].presidentialCandidates[presCands[i].id].presname=presCands[i].presname;\r\n        deployedBallots[ballotCount].presidentialCandidates[presCands[i].id].party=presCands[i].party;\r\n        deployedBallots[ballotCount].presidentialCandidates[presCands[i].id].voteCount=presCands[i].voteCount;\r\n\r\n    }\r\n\r\n    for (uint i = 0;i < parlCands.length; i++){\r\n        deployedBallots[ballotCount].parliamentaryCandidates[parlCands[i].id].id = parlCands[i].id;\r\n        deployedBallots[ballotCount].parliamentaryCandidates[parlCands[i].id].parlname = parlCands[i].parlname;\r\n        deployedBallots[ballotCount].parliamentaryCandidates[parlCands[i].id].party = parlCands[i].party;\r\n        deployedBallots[ballotCount].parliamentaryCandidates[parlCands[i].id].districtname = parlCands[i].districtname;\r\n        deployedBallots[ballotCount].parliamentaryCandidates[parlCands[i].id].voteCount = parlCands[i].voteCount;\r\n        deployedBallots[ballotCount].districts[parlCands[i].id].districtname = parlCands[i].districtname;\r\n        deployedBallots[ballotCount].districts[parlCands[i].id].voteCount = parlCands[i].voteCount;\r\n    \r\n    }\r\n\r\n    \r\n\r\n\r\nballotCount++;\r\nballotid++;\r\n     \r\n\r\n}\r\n\r\nfunction voteForPresident(uint candidateid, uint electionid)public { \r\n\r\n   // require(!voters[msg.sender].pres); \r\n\r\n//     if(now > deployedBallots[electionid].expirationDate){ \r\n//         revert();\r\n// } \r\n//deployedBallots[0].presidentialCandidates[20].voteCount += 1;\r\nvoters[msg.sender].pres = true; \r\n}\r\n\r\nfunction voteForParliament(uint candidateid, uint electionid)public { \r\n\r\n    require(!voters[msg.sender].parl); \r\n\r\n    if(now > deployedBallots[electionid].expirationDate){ \r\n        revert();\r\n} \r\ndeployedBallots[electionid].districts[candidateid].voteCount += 1;\r\nvoters[msg.sender].parl = true; \r\n}\r\n\r\n\r\nfunction getPresidentialVoteCount(uint candidateid,uint electionid) public view returns(uint){\r\n    return deployedBallots[electionid].presidentialCandidates[candidateid].voteCount;\r\n}\r\n\r\nfunction getParliamentaryVoteCount(uint candidateid,uint electionid) public view returns(uint) {\r\n    return deployedBallots[electionid].districts[candidateid].voteCount;\r\n    \r\n}\r\n function getDeployedBallots(uint id) public view returns(uint ballotid,uint creationDate,uint expirationDate) { \r\n     return (deployedBallots[id].ballotid,deployedBallots[id].creationDate,deployedBallots[id].expirationDate);\r\n }\r\n// function getallCandidates() public view returns(Candidate[] memory){\r\n//      return allCandidates;\r\n\r\n//  }\r\n\r\n}\r\n",
  "sourcePath": "C:/Users/deedat/Desktop/myfinalyearproject/contracts/ElectionCreation.sol",
  "compiler": {
    "name": "solc",
    "version": "0.5.12+commit.7709ece9.Emscripten.clang"
  },
  "schemaVersion": "3.0.20",
  "updatedAt": "2020-01-07T17:05:53.233Z",
  "networkType": "ethereum",
  "devdoc": {
    "methods": {}
  },
  "userdoc": {
    "methods": {}
  }
}