{
  "contractName": "ElectionCreation",
  "abi": [
    {
      "inputs": [],
      "payable": false,
      "stateMutability": "nonpayable",
      "type": "constructor"
    },
    {
      "constant": true,
      "inputs": [],
      "name": "candidateCount",
      "outputs": [
        {
          "internalType": "uint256",
          "name": "",
          "type": "uint256"
        }
      ],
      "payable": false,
      "stateMutability": "view",
      "type": "function"
    },
    {
      "constant": true,
      "inputs": [
        {
          "internalType": "uint256",
          "name": "",
          "type": "uint256"
        }
      ],
      "name": "deployedBallots",
      "outputs": [
        {
          "internalType": "uint256",
          "name": "ballotid",
          "type": "uint256"
        },
        {
          "internalType": "uint256",
          "name": "creationDate",
          "type": "uint256"
        },
        {
          "internalType": "uint256",
          "name": "expirationDate",
          "type": "uint256"
        }
      ],
      "payable": false,
      "stateMutability": "view",
      "type": "function"
    },
    {
      "constant": true,
      "inputs": [],
      "name": "districtVoteCount",
      "outputs": [
        {
          "internalType": "uint256",
          "name": "",
          "type": "uint256"
        }
      ],
      "payable": false,
      "stateMutability": "view",
      "type": "function"
    },
    {
      "constant": true,
      "inputs": [],
      "name": "manager",
      "outputs": [
        {
          "internalType": "address",
          "name": "",
          "type": "address"
        }
      ],
      "payable": false,
      "stateMutability": "view",
      "type": "function"
    },
    {
      "constant": true,
      "inputs": [],
      "name": "parl_candidateCount",
      "outputs": [
        {
          "internalType": "uint256",
          "name": "",
          "type": "uint256"
        }
      ],
      "payable": false,
      "stateMutability": "view",
      "type": "function"
    },
    {
      "constant": true,
      "inputs": [
        {
          "internalType": "address",
          "name": "",
          "type": "address"
        }
      ],
      "name": "voters",
      "outputs": [
        {
          "internalType": "bool",
          "name": "pres",
          "type": "bool"
        },
        {
          "internalType": "bool",
          "name": "parl",
          "type": "bool"
        }
      ],
      "payable": false,
      "stateMutability": "view",
      "type": "function"
    },
    {
      "constant": false,
      "inputs": [
        {
          "components": [
            {
              "internalType": "uint256",
              "name": "id",
              "type": "uint256"
            },
            {
              "internalType": "string",
              "name": "name",
              "type": "string"
            },
            {
              "internalType": "string",
              "name": "party",
              "type": "string"
            },
            {
              "internalType": "string",
              "name": "manifesto",
              "type": "string"
            },
            {
              "internalType": "uint256",
              "name": "voteCount",
              "type": "uint256"
            },
            {
              "internalType": "string",
              "name": "imgURL",
              "type": "string"
            },
            {
              "internalType": "string",
              "name": "partyImg",
              "type": "string"
            },
            {
              "internalType": "address payable",
              "name": "cand_address",
              "type": "address"
            }
          ],
          "internalType": "struct ElectionCreation.Presidential[]",
          "name": "presCands",
          "type": "tuple[]"
        },
        {
          "components": [
            {
              "internalType": "uint256",
              "name": "id",
              "type": "uint256"
            },
            {
              "internalType": "string",
              "name": "manifesto",
              "type": "string"
            },
            {
              "internalType": "string",
              "name": "name",
              "type": "string"
            },
            {
              "internalType": "string",
              "name": "party",
              "type": "string"
            },
            {
              "internalType": "string",
              "name": "district",
              "type": "string"
            },
            {
              "internalType": "uint256",
              "name": "voteCount",
              "type": "uint256"
            },
            {
              "internalType": "string",
              "name": "imgURL",
              "type": "string"
            },
            {
              "internalType": "string",
              "name": "partyImg",
              "type": "string"
            },
            {
              "internalType": "address payable",
              "name": "cand_address",
              "type": "address"
            }
          ],
          "internalType": "struct ElectionCreation.Parliamentary[]",
          "name": "parlCands",
          "type": "tuple[]"
        },
        {
          "internalType": "uint256",
          "name": "amounthours",
          "type": "uint256"
        },
        {
          "internalType": "address",
          "name": "creator",
          "type": "address"
        }
      ],
      "name": "CreateElection",
      "outputs": [],
      "payable": false,
      "stateMutability": "nonpayable",
      "type": "function"
    },
    {
      "constant": false,
      "inputs": [
        {
          "internalType": "uint256",
          "name": "candidateid",
          "type": "uint256"
        },
        {
          "internalType": "uint256",
          "name": "electionid",
          "type": "uint256"
        }
      ],
      "name": "voteForPresident",
      "outputs": [],
      "payable": false,
      "stateMutability": "nonpayable",
      "type": "function"
    },
    {
      "constant": false,
      "inputs": [
        {
          "internalType": "uint256",
          "name": "candidateid",
          "type": "uint256"
        },
        {
          "internalType": "uint256",
          "name": "electionid",
          "type": "uint256"
        },
        {
          "internalType": "string",
          "name": "districtname",
          "type": "string"
        }
      ],
      "name": "voteForParliament",
      "outputs": [],
      "payable": false,
      "stateMutability": "nonpayable",
      "type": "function"
    },
    {
      "constant": true,
      "inputs": [
        {
          "internalType": "uint256",
          "name": "id",
          "type": "uint256"
        }
      ],
      "name": "getDeployedBallots",
      "outputs": [
        {
          "internalType": "uint256",
          "name": "ballotid",
          "type": "uint256"
        },
        {
          "internalType": "uint256",
          "name": "creationDate",
          "type": "uint256"
        },
        {
          "internalType": "uint256",
          "name": "expirationDate",
          "type": "uint256"
        }
      ],
      "payable": false,
      "stateMutability": "view",
      "type": "function"
    },
    {
      "constant": true,
      "inputs": [],
      "name": "getPresidentialCount",
      "outputs": [
        {
          "internalType": "uint256",
          "name": "count",
          "type": "uint256"
        }
      ],
      "payable": false,
      "stateMutability": "view",
      "type": "function"
    },
    {
      "constant": true,
      "inputs": [],
      "name": "getParliamentaryCount",
      "outputs": [
        {
          "internalType": "uint256",
          "name": "count",
          "type": "uint256"
        }
      ],
      "payable": false,
      "stateMutability": "view",
      "type": "function"
    },
    {
      "constant": true,
      "inputs": [
        {
          "internalType": "uint256",
          "name": "candid",
          "type": "uint256"
        },
        {
          "internalType": "uint256",
          "name": "electionid",
          "type": "uint256"
        },
        {
          "internalType": "string",
          "name": "district",
          "type": "string"
        }
      ],
      "name": "getVoteCountForDistrict",
      "outputs": [
        {
          "internalType": "uint256",
          "name": "count",
          "type": "uint256"
        }
      ],
      "payable": false,
      "stateMutability": "view",
      "type": "function"
    },
    {
      "constant": true,
      "inputs": [
        {
          "internalType": "uint256",
          "name": "candid",
          "type": "uint256"
        },
        {
          "internalType": "uint256",
          "name": "electionid",
          "type": "uint256"
        }
      ],
      "name": "sumAllParlCandidateVotesFromAllDistricts",
      "outputs": [
        {
          "internalType": "uint256",
          "name": "count",
          "type": "uint256"
        }
      ],
      "payable": false,
      "stateMutability": "view",
      "type": "function"
    },
    {
      "constant": true,
      "inputs": [
        {
          "internalType": "uint256",
          "name": "candidateid",
          "type": "uint256"
        },
        {
          "internalType": "uint256",
          "name": "electionid",
          "type": "uint256"
        }
      ],
      "name": "getPresidentialVoteCount",
      "outputs": [
        {
          "internalType": "uint256",
          "name": "",
          "type": "uint256"
        }
      ],
      "payable": false,
      "stateMutability": "view",
      "type": "function"
    },
    {
      "constant": true,
      "inputs": [
        {
          "internalType": "uint256",
          "name": "candidateid",
          "type": "uint256"
        },
        {
          "internalType": "uint256",
          "name": "electionid",
          "type": "uint256"
        }
      ],
      "name": "getParliamentaryVoteCount",
      "outputs": [
        {
          "internalType": "uint256",
          "name": "",
          "type": "uint256"
        }
      ],
      "payable": false,
      "stateMutability": "view",
      "type": "function"
    },
    {
      "constant": true,
      "inputs": [
        {
          "internalType": "uint256",
          "name": "electionid",
          "type": "uint256"
        },
        {
          "internalType": "uint256",
          "name": "i",
          "type": "uint256"
        }
      ],
      "name": "getPresidentialCandidates",
      "outputs": [
        {
          "internalType": "uint256",
          "name": "id",
          "type": "uint256"
        },
        {
          "internalType": "string",
          "name": "name",
          "type": "string"
        },
        {
          "internalType": "string",
          "name": "party",
          "type": "string"
        },
        {
          "internalType": "string",
          "name": "manifesto",
          "type": "string"
        },
        {
          "internalType": "uint256",
          "name": "count",
          "type": "uint256"
        },
        {
          "internalType": "string",
          "name": "imgURL",
          "type": "string"
        },
        {
          "internalType": "string",
          "name": "partyImg",
          "type": "string"
        },
        {
          "internalType": "address",
          "name": "cand_addr",
          "type": "address"
        }
      ],
      "payable": false,
      "stateMutability": "view",
      "type": "function"
    },
    {
      "constant": true,
      "inputs": [
        {
          "internalType": "uint256",
          "name": "electionid",
          "type": "uint256"
        },
        {
          "internalType": "uint256",
          "name": "i",
          "type": "uint256"
        }
      ],
      "name": "getParliamentaryCandidates",
      "outputs": [
        {
          "internalType": "uint256",
          "name": "id",
          "type": "uint256"
        },
        {
          "internalType": "string",
          "name": "name",
          "type": "string"
        },
        {
          "internalType": "string",
          "name": "party",
          "type": "string"
        },
        {
          "internalType": "string",
          "name": "manifesto",
          "type": "string"
        },
        {
          "internalType": "uint256",
          "name": "count",
          "type": "uint256"
        },
        {
          "internalType": "string",
          "name": "imgURL",
          "type": "string"
        },
        {
          "internalType": "string",
          "name": "partyImg",
          "type": "string"
        },
        {
          "internalType": "string",
          "name": "district",
          "type": "string"
        },
        {
          "internalType": "address",
          "name": "cand_addr",
          "type": "address"
        }
      ],
      "payable": false,
      "stateMutability": "view",
      "type": "function"
    }
  ],
  "bytecode": "0x6080604052600080556000600155600060025534801561001e57600080fd5b506000600460003373ffffffffffffffffffffffffffffffffffffffff1673ffffffffffffffffffffffffffffffffffffffff16815260200190815260200160002060000160006101000a81548160ff0219169083151502179055506000600460003373ffffffffffffffffffffffffffffffffffffffff1673ffffffffffffffffffffffffffffffffffffffff16815260200190815260200160002060000160016101000a81548160ff021916908315150217905550612875806100e46000396000f3fe608060405234801561001057600080fd5b50600436106101165760003560e01c8063a9a981a3116100a2578063cdf74c3e11610071578063cdf74c3e1461032a578063d9635e0c1461035c578063db3ad35a14610378578063e891eb9b146103af578063f973e539146103cb57610116565b8063a9a981a31461028e578063b0473a2b146102ac578063c0034189146102dc578063c2ba2ddf146102fa57610116565b80635e58ca54116100e95780635e58ca54146101a55780636abfe4c9146101d55780637b63b77a146102075780639220560014610225578063a3ec138d1461025d57610116565b80630267830c1461011b578063481c6a7514610139578063484cb1a8146101575780635b8b74c414610187575b600080fd5b6101236103e7565b60405161013091906124a5565b60405180910390f35b6101416103ed565b60405161014e9190612441565b60405180910390f35b610171600480360361016c91908101906122f8565b610413565b60405161017e91906124a5565b60405180910390f35b61018f610448565b60405161019c91906124a5565b60405180910390f35b6101bf60048036036101ba9190810190612334565b61044e565b6040516101cc91906124a5565b60405180910390f35b6101ef60048036036101ea91908101906122cf565b6105a0565b6040516101fe93929190612618565b60405180910390f35b61020f6105f7565b60405161021c91906124a5565b60405180910390f35b61023f600480360361023a91908101906122f8565b610601565b60405161025499989796959493929190612561565b60405180910390f35b61027760048036036102729190810190612213565b610ae7565b60405161028592919061245c565b60405180910390f35b610296610b25565b6040516102a391906124a5565b60405180910390f35b6102c660048036036102c191908101906122f8565b610b2b565b6040516102d391906124a5565b60405180910390f35b6102e4610b60565b6040516102f191906124a5565b60405180910390f35b610314600480360361030f91908101906122f8565b610b69565b60405161032191906124a5565b60405180910390f35b610344600480360361033f91908101906122cf565b610bd3565b60405161035393929190612618565b60405180910390f35b610376600480360361037191908101906122f8565b610bfd565b005b610392600480360361038d91908101906122f8565b610d48565b6040516103a69897969594939291906124c0565b60405180910390f35b6103c960048036036103c49190810190612334565b61117f565b005b6103e560048036036103e0919081019061223c565b611309565b005b60015481565b600560009054906101000a900473ffffffffffffffffffffffffffffffffffffffff1681565b600060036000838152602001908152602001600020600301600084815260200190815260200160002060020154905092915050565b60025481565b6000806000905060008090505b60025481101561059457600060036000878152602001908152602001600020600301600083815260200190815260200160002060000154905060606003600088815260200190815260200160002060030160008481526020019081526020016000206001018054600181600116156101000203166002900480601f0160208091040260200160405190810160405280929190818152602001828054600181600116156101000203166002900480156105545780601f1061052957610100808354040283529160200191610554565b820191906000526020600020905b81548152906001019060200180831161053757829003601f168201915b505050505090508782148015610577575085805190602001208180519060200120145b156105855783806001019450505b5050808060010191505061045b565b50809150509392505050565b60008060006003600085815260200190815260200160002060000154600360008681526020019081526020016000206004015460036000878152602001908152602001600020600501549250925092509193909250565b6000600154905090565b60006060806060600060608060606000610619611c38565b600360008d815260200190815260200160002060020160008c81526020019081526020016000206040518061012001604052908160008201548152602001600182018054600181600116156101000203166002900480601f0160208091040260200160405190810160405280929190818152602001828054600181600116156101000203166002900480156106ef5780601f106106c4576101008083540402835291602001916106ef565b820191906000526020600020905b8154815290600101906020018083116106d257829003601f168201915b50505050508152602001600282018054600181600116156101000203166002900480601f0160208091040260200160405190810160405280929190818152602001828054600181600116156101000203166002900480156107915780601f1061076657610100808354040283529160200191610791565b820191906000526020600020905b81548152906001019060200180831161077457829003601f168201915b50505050508152602001600382018054600181600116156101000203166002900480601f0160208091040260200160405190810160405280929190818152602001828054600181600116156101000203166002900480156108335780601f1061080857610100808354040283529160200191610833565b820191906000526020600020905b81548152906001019060200180831161081657829003601f168201915b50505050508152602001600482018054600181600116156101000203166002900480601f0160208091040260200160405190810160405280929190818152602001828054600181600116156101000203166002900480156108d55780601f106108aa576101008083540402835291602001916108d5565b820191906000526020600020905b8154815290600101906020018083116108b857829003601f168201915b5050505050815260200160058201548152602001600682018054600181600116156101000203166002900480601f0160208091040260200160405190810160405280929190818152602001828054600181600116156101000203166002900480156109815780601f1061095657610100808354040283529160200191610981565b820191906000526020600020905b81548152906001019060200180831161096457829003601f168201915b50505050508152602001600782018054600181600116156101000203166002900480601f016020809104026020016040519081016040528092919081815260200182805460018160011615610100020316600290048015610a235780601f106109f857610100808354040283529160200191610a23565b820191906000526020600020905b815481529060010190602001808311610a0657829003601f168201915b505050505081526020016008820160009054906101000a900473ffffffffffffffffffffffffffffffffffffffff1673ffffffffffffffffffffffffffffffffffffffff1673ffffffffffffffffffffffffffffffffffffffff1681525050905080600001518160400151826060015183602001518460a001518560c001518660e001518760800151886101000151879750869650859550839350829250819150809050995099509950995099509950995099509950509295985092959850929598565b60046020528060005260406000206000915090508060000160009054906101000a900460ff16908060000160019054906101000a900460ff16905082565b60005481565b600060036000838152602001908152602001600020600101600084815260200190815260200160002060040154905092915050565b60008054905090565b6000806000905060008090505b600254811015610bc85784600360008681526020019081526020016000206003016000838152602001908152602001600020600001541415610bbb5781806001019250505b8080600101915050610b76565b508091505092915050565b60036020528060005260406000206000915090508060000154908060040154908060050154905083565b600460003373ffffffffffffffffffffffffffffffffffffffff1673ffffffffffffffffffffffffffffffffffffffff16815260200190815260200160002060000160009054906101000a900460ff1615610c8d576040517f08c379a0000000000000000000000000000000000000000000000000000000008152600401610c8490612485565b60405180910390fd5b6003600082815260200190815260200160002060050154421115610cb057600080fd5b6001600360008381526020019081526020016000206001016000848152602001908152602001600020600401600082825401925050819055506001600460003373ffffffffffffffffffffffffffffffffffffffff1673ffffffffffffffffffffffffffffffffffffffff16815260200190815260200160002060000160006101000a81548160ff0219169083151502179055505050565b6000606080606060006060806000610d5e611c9a565b600360008c815260200190815260200160002060010160008b81526020019081526020016000206040518061010001604052908160008201548152602001600182018054600181600116156101000203166002900480601f016020809104026020016040519081016040528092919081815260200182805460018160011615610100020316600290048015610e345780601f10610e0957610100808354040283529160200191610e34565b820191906000526020600020905b815481529060010190602001808311610e1757829003601f168201915b50505050508152602001600282018054600181600116156101000203166002900480601f016020809104026020016040519081016040528092919081815260200182805460018160011615610100020316600290048015610ed65780601f10610eab57610100808354040283529160200191610ed6565b820191906000526020600020905b815481529060010190602001808311610eb957829003601f168201915b50505050508152602001600382018054600181600116156101000203166002900480601f016020809104026020016040519081016040528092919081815260200182805460018160011615610100020316600290048015610f785780601f10610f4d57610100808354040283529160200191610f78565b820191906000526020600020905b815481529060010190602001808311610f5b57829003601f168201915b5050505050815260200160048201548152602001600582018054600181600116156101000203166002900480601f0160208091040260200160405190810160405280929190818152602001828054600181600116156101000203166002900480156110245780601f10610ff957610100808354040283529160200191611024565b820191906000526020600020905b81548152906001019060200180831161100757829003601f168201915b50505050508152602001600682018054600181600116156101000203166002900480601f0160208091040260200160405190810160405280929190818152602001828054600181600116156101000203166002900480156110c65780601f1061109b576101008083540402835291602001916110c6565b820191906000526020600020905b8154815290600101906020018083116110a957829003601f168201915b505050505081526020016007820160009054906101000a900473ffffffffffffffffffffffffffffffffffffffff1673ffffffffffffffffffffffffffffffffffffffff1673ffffffffffffffffffffffffffffffffffffffff16815250509050806000015181602001518260400151836060015184608001518560a001518660c001518760e0015186965085955084945082925081915080905098509850985098509850985098509850509295985092959890939650565b600460003373ffffffffffffffffffffffffffffffffffffffff1673ffffffffffffffffffffffffffffffffffffffff16815260200190815260200160002060000160019054906101000a900460ff16156111d957600080fd5b60036000838152602001908152602001600020600501544211156111fc57600080fd5b82600360008481526020019081526020016000206003016000600254815260200190815260200160002060000181905550806003600084815260200190815260200160002060030160006002548152602001908152602001600020600101908051906020019061126d929190611cf5565b5060016003600084815260200190815260200160002060030160006002548152602001908152602001600020600201600082825401925050819055506001600460003373ffffffffffffffffffffffffffffffffffffffff1673ffffffffffffffffffffffffffffffffffffffff16815260200190815260200160002060000160016101000a81548160ff021916908315150217905550505050565b6000809050600080905082600560006101000a81548173ffffffffffffffffffffffffffffffffffffffff021916908373ffffffffffffffffffffffffffffffffffffffff160217905550816003600083815260200190815260200160002060000181905550426003600083815260200190815260200160002060040181905550834201600360008381526020019081526020016000206005018190555060008090505b8651811015611746578681815181106113c257fe5b6020026020010151600001516003600084815260200190815260200160002060010160008984815181106113f257fe5b60200260200101516000015181526020019081526020016000206000018190555086818151811061141f57fe5b60200260200101516020015160036000848152602001908152602001600020600101600089848151811061144f57fe5b6020026020010151600001518152602001908152602001600020600101908051906020019061147f929190611cf5565b5086818151811061148c57fe5b6020026020010151604001516003600084815260200190815260200160002060010160008984815181106114bc57fe5b602002602001015160000151815260200190815260200160002060020190805190602001906114ec929190611cf5565b508681815181106114f957fe5b60200260200101516060015160036000848152602001908152602001600020600101600089848151811061152957fe5b60200260200101516000015181526020019081526020016000206003019080519060200190611559929190611cf5565b5086818151811061156657fe5b60200260200101516080015160036000848152602001908152602001600020600101600089848151811061159657fe5b6020026020010151600001518152602001908152602001600020600401819055508681815181106115c357fe5b602002602001015160a001516003600084815260200190815260200160002060010160008984815181106115f357fe5b60200260200101516000015181526020019081526020016000206005019080519060200190611623929190611cf5565b5086818151811061163057fe5b602002602001015160c0015160036000848152602001908152602001600020600101600089848151811061166057fe5b60200260200101516000015181526020019081526020016000206006019080519060200190611690929190611cf5565b5086818151811061169d57fe5b602002602001015160e001516003600084815260200190815260200160002060010160008984815181106116cd57fe5b602002602001015160000151815260200190815260200160002060070160006101000a81548173ffffffffffffffffffffffffffffffffffffffff021916908373ffffffffffffffffffffffffffffffffffffffff160217905550600080815480929190600101919050555080806001019150506113ad565b5060008090505b8551811015611c1f5785818151811061176257fe5b60200260200101516000015160036000848152602001908152602001600020600201600088848151811061179257fe5b6020026020010151600001518152602001908152602001600020600001819055508581815181106117bf57fe5b6020026020010151604001516003600084815260200190815260200160002060020160008884815181106117ef57fe5b6020026020010151600001518152602001908152602001600020600201908051906020019061181f929190611cf5565b5085818151811061182c57fe5b60200260200101516020015160036000848152602001908152602001600020600201600088848151811061185c57fe5b6020026020010151600001518152602001908152602001600020600101908051906020019061188c929190611cf5565b5085818151811061189957fe5b6020026020010151606001516003600084815260200190815260200160002060020160008884815181106118c957fe5b602002602001015160000151815260200190815260200160002060030190805190602001906118f9929190611cf5565b5085818151811061190657fe5b60200260200101516080015160036000848152602001908152602001600020600201600088848151811061193657fe5b60200260200101516000015181526020019081526020016000206004019080519060200190611966929190611cf5565b5085818151811061197357fe5b602002602001015160a001516003600084815260200190815260200160002060020160008884815181106119a357fe5b6020026020010151600001518152602001908152602001600020600501819055508581815181106119d057fe5b602002602001015160800151600360008481526020019081526020016000206003016000888481518110611a0057fe5b60200260200101516000015181526020019081526020016000206001019080519060200190611a30929190611cf5565b50868181518110611a3d57fe5b602002602001015160a00151600360008481526020019081526020016000206001016000898481518110611a6d57fe5b60200260200101516000015181526020019081526020016000206005019080519060200190611a9d929190611cf5565b50868181518110611aaa57fe5b602002602001015160c00151600360008481526020019081526020016000206001016000898481518110611ada57fe5b60200260200101516000015181526020019081526020016000206006019080519060200190611b0a929190611cf5565b50858181518110611b1757fe5b602002602001015160a00151600360008481526020019081526020016000206003016000888481518110611b4757fe5b602002602001015160000151815260200190815260200160002060020181905550858181518110611b7457fe5b60200260200101516101000151600360008481526020019081526020016000206002016000888481518110611ba557fe5b602002602001015160000151815260200190815260200160002060080160006101000a81548173ffffffffffffffffffffffffffffffffffffffff021916908373ffffffffffffffffffffffffffffffffffffffff160217905550600160008154809291906001019190505550808060010191505061174d565b5080806001019150508180600101925050505050505050565b6040518061012001604052806000815260200160608152602001606081526020016060815260200160608152602001600081526020016060815260200160608152602001600073ffffffffffffffffffffffffffffffffffffffff1681525090565b60405180610100016040528060008152602001606081526020016060815260200160608152602001600081526020016060815260200160608152602001600073ffffffffffffffffffffffffffffffffffffffff1681525090565b828054600181600116156101000203166002900490600052602060002090601f016020900481019282601f10611d3657805160ff1916838001178555611d64565b82800160010185558215611d64579182015b82811115611d63578251825591602001919060010190611d48565b5b509050611d719190611d75565b5090565b611d9791905b80821115611d93576000816000905550600101611d7b565b5090565b90565b600081359050611da9816127ed565b92915050565b600081359050611dbe81612804565b92915050565b600082601f830112611dd557600080fd5b8135611de8611de38261267c565b61264f565b9150818183526020840193506020810190508360005b83811015611e2e5781358601611e148882611f54565b845260208401935060208301925050600181019050611dfe565b5050505092915050565b600082601f830112611e4957600080fd5b8135611e5c611e57826126a4565b61264f565b9150818183526020840193506020810190508360005b83811015611ea25781358601611e8888826120c0565b845260208401935060208301925050600181019050611e72565b5050505092915050565b600082601f830112611ebd57600080fd5b8135611ed0611ecb826126cc565b61264f565b91508082526020830160208301858383011115611eec57600080fd5b611ef783828461279a565b50505092915050565b600082601f830112611f1157600080fd5b8135611f24611f1f826126f8565b61264f565b91508082526020830160208301858383011115611f4057600080fd5b611f4b83828461279a565b50505092915050565b60006101208284031215611f6757600080fd5b611f7261012061264f565b90506000611f82848285016121fe565b600083015250602082013567ffffffffffffffff811115611fa257600080fd5b611fae84828501611eac565b602083015250604082013567ffffffffffffffff811115611fce57600080fd5b611fda84828501611eac565b604083015250606082013567ffffffffffffffff811115611ffa57600080fd5b61200684828501611eac565b606083015250608082013567ffffffffffffffff81111561202657600080fd5b61203284828501611eac565b60808301525060a0612046848285016121fe565b60a08301525060c082013567ffffffffffffffff81111561206657600080fd5b61207284828501611eac565b60c08301525060e082013567ffffffffffffffff81111561209257600080fd5b61209e84828501611eac565b60e0830152506101006120b384828501611daf565b6101008301525092915050565b600061010082840312156120d357600080fd5b6120de61010061264f565b905060006120ee848285016121fe565b600083015250602082013567ffffffffffffffff81111561210e57600080fd5b61211a84828501611eac565b602083015250604082013567ffffffffffffffff81111561213a57600080fd5b61214684828501611eac565b604083015250606082013567ffffffffffffffff81111561216657600080fd5b61217284828501611eac565b6060830152506080612186848285016121fe565b60808301525060a082013567ffffffffffffffff8111156121a657600080fd5b6121b284828501611eac565b60a08301525060c082013567ffffffffffffffff8111156121d257600080fd5b6121de84828501611eac565b60c08301525060e06121f284828501611daf565b60e08301525092915050565b60008135905061220d8161281b565b92915050565b60006020828403121561222557600080fd5b600061223384828501611d9a565b91505092915050565b6000806000806080858703121561225257600080fd5b600085013567ffffffffffffffff81111561226c57600080fd5b61227887828801611e38565b945050602085013567ffffffffffffffff81111561229557600080fd5b6122a187828801611dc4565b93505060406122b2878288016121fe565b92505060606122c387828801611d9a565b91505092959194509250565b6000602082840312156122e157600080fd5b60006122ef848285016121fe565b91505092915050565b6000806040838503121561230b57600080fd5b6000612319858286016121fe565b925050602061232a858286016121fe565b9150509250929050565b60008060006060848603121561234957600080fd5b6000612357868287016121fe565b9350506020612368868287016121fe565b925050604084013567ffffffffffffffff81111561238557600080fd5b61239186828701611f00565b9150509250925092565b6123a481612740565b82525050565b6123b381612764565b82525050565b60006123c482612724565b6123ce818561272f565b93506123de8185602086016127a9565b6123e7816127dc565b840191505092915050565b60006123ff600e8361272f565b91507f416c726561647920766f7465642e0000000000000000000000000000000000006000830152602082019050919050565b61243b81612790565b82525050565b6000602082019050612456600083018461239b565b92915050565b600060408201905061247160008301856123aa565b61247e60208301846123aa565b9392505050565b6000602082019050818103600083015261249e816123f2565b9050919050565b60006020820190506124ba6000830184612432565b92915050565b6000610100820190506124d6600083018b612432565b81810360208301526124e8818a6123b9565b905081810360408301526124fc81896123b9565b9050818103606083015261251081886123b9565b905061251f6080830187612432565b81810360a083015261253181866123b9565b905081810360c083015261254581856123b9565b905061255460e083018461239b565b9998505050505050505050565b600061012082019050612577600083018c612432565b8181036020830152612589818b6123b9565b9050818103604083015261259d818a6123b9565b905081810360608301526125b181896123b9565b90506125c06080830188612432565b81810360a08301526125d281876123b9565b905081810360c08301526125e681866123b9565b905081810360e08301526125fa81856123b9565b905061260a61010083018461239b565b9a9950505050505050505050565b600060608201905061262d6000830186612432565b61263a6020830185612432565b6126476040830184612432565b949350505050565b6000604051905081810181811067ffffffffffffffff8211171561267257600080fd5b8060405250919050565b600067ffffffffffffffff82111561269357600080fd5b602082029050602081019050919050565b600067ffffffffffffffff8211156126bb57600080fd5b602082029050602081019050919050565b600067ffffffffffffffff8211156126e357600080fd5b601f19601f8301169050602081019050919050565b600067ffffffffffffffff82111561270f57600080fd5b601f19601f8301169050602081019050919050565b600081519050919050565b600082825260208201905092915050565b600061274b82612770565b9050919050565b600061275d82612770565b9050919050565b60008115159050919050565b600073ffffffffffffffffffffffffffffffffffffffff82169050919050565b6000819050919050565b82818337600083830152505050565b60005b838110156127c75780820151818401526020810190506127ac565b838111156127d6576000848401525b50505050565b6000601f19601f8301169050919050565b6127f681612740565b811461280157600080fd5b50565b61280d81612752565b811461281857600080fd5b50565b61282481612790565b811461282f57600080fd5b5056fea365627a7a72315820aa6b220fe4df69b46f46dc30e933ee6c2f9bb5ec6bd123ddb3c06a4b57e5a2496c6578706572696d656e74616cf564736f6c63430005100040",
  "source": "pragma solidity >=0.4.22 <0.6.0;\npragma experimental ABIEncoderV2;\n\n\ncontract ElectionCreation {\nuint public candidateCount = 0;\nuint public parl_candidateCount= 0;\nuint public districtVoteCount = 0;\nmapping(uint=>Ballot) public deployedBallots;\nmapping(address=>vote_right) public voters;\naddress public manager;\n\nstruct vote_right{\n    bool pres;\n    bool parl;\n}\nstruct Ballot{\n        uint ballotid;\n        mapping(uint=>Presidential) presidentialCandidates;\n        mapping(uint=>Parliamentary) parliamentaryCandidates;\n        mapping(uint=>district) districts;\n        uint creationDate;\n        uint expirationDate;\n}\n struct Presidential{\n     uint id;\n     string name;\n     string party;\n     string manifesto;\n     uint voteCount;\n     string imgURL;\n     string partyImg;\n     address payable cand_address;\n\n }\n\n struct Parliamentary{\n     uint id;\n     string manifesto;\n     string name;\n     string party;\n     string district;\n     uint voteCount;\n     string imgURL;\n     string partyImg;\n     address payable cand_address;\n     \n }\nstruct district{\n    uint id;\n    string district;\n    uint voteCount;\n}\nmodifier restricted() { \n    require(msg.sender == manager); _;\n}\nconstructor () public { \n    \n   voters[msg.sender].pres = false;\n   voters[msg.sender].parl = false;\n}\n\nfunction CreateElection(Presidential[] memory presCands,Parliamentary[] memory parlCands,\nuint amounthours, address creator)public {\n    uint ballotid = 0;\n    uint ballotCount = 0;\n    manager = creator;\n    \n    deployedBallots[ballotCount].ballotid = ballotid;\n    deployedBallots[ballotCount].creationDate = now;\n    deployedBallots[ballotCount].expirationDate = now + amounthours;\n    \n\n    for (uint i = 0;i < presCands.length; i++){\n        deployedBallots[ballotCount].presidentialCandidates[presCands[i].id].id = presCands[i].id;\n        deployedBallots[ballotCount].presidentialCandidates[presCands[i].id].name = presCands[i].name;\n        deployedBallots[ballotCount].presidentialCandidates[presCands[i].id].party = presCands[i].party;\n        deployedBallots[ballotCount].presidentialCandidates[presCands[i].id].manifesto = presCands[i].manifesto;\n        deployedBallots[ballotCount].presidentialCandidates[presCands[i].id].voteCount = presCands[i].voteCount;\n        deployedBallots[ballotCount].presidentialCandidates[presCands[i].id].imgURL = presCands[i].imgURL;\n        deployedBallots[ballotCount].presidentialCandidates[presCands[i].id].partyImg = presCands[i].partyImg;\n        deployedBallots[ballotCount].presidentialCandidates[presCands[i].id].cand_address = presCands[i].cand_address;\n        candidateCount++;\n\n    }\n\n    for (uint i = 0;i < parlCands.length; i++){\n        deployedBallots[ballotCount].parliamentaryCandidates[parlCands[i].id].id = parlCands[i].id;\n        deployedBallots[ballotCount].parliamentaryCandidates[parlCands[i].id].name = parlCands[i].name;\n        deployedBallots[ballotCount].parliamentaryCandidates[parlCands[i].id].manifesto = parlCands[i].manifesto;\n        deployedBallots[ballotCount].parliamentaryCandidates[parlCands[i].id].party = parlCands[i].party;\n        deployedBallots[ballotCount].parliamentaryCandidates[parlCands[i].id].district = parlCands[i].district;\n        deployedBallots[ballotCount].parliamentaryCandidates[parlCands[i].id].voteCount = parlCands[i].voteCount;\n        deployedBallots[ballotCount].districts[parlCands[i].id].district = parlCands[i].district;\n        deployedBallots[ballotCount].presidentialCandidates[presCands[i].id].imgURL = presCands[i].imgURL;\n        deployedBallots[ballotCount].presidentialCandidates[presCands[i].id].partyImg = presCands[i].partyImg;\n        deployedBallots[ballotCount].districts[parlCands[i].id].voteCount = parlCands[i].voteCount;\n        deployedBallots[ballotCount].parliamentaryCandidates[parlCands[i].id].cand_address = parlCands[i].cand_address;\n        parl_candidateCount++;\n    \n    }\n\n    \n\n\nballotCount++;\nballotid++;\n\n     \n\n}\n\n\nfunction voteForPresident(uint candidateid, uint electionid)public { \n\n   require(!voters[msg.sender].pres, \"Already voted.\"); \n\n\n    if(now > deployedBallots[electionid].expirationDate){ \n        revert();\n } \ndeployedBallots[electionid].presidentialCandidates[candidateid].voteCount += 1;\nvoters[msg.sender].pres = true; \n}\n\nfunction voteForParliament(uint candidateid, uint electionid,string memory districtname)public { \n\n    require(!voters[msg.sender].parl); \n\n    if(now > deployedBallots[electionid].expirationDate){ \n        revert();\n} \n\ndeployedBallots[electionid].districts[districtVoteCount].id = candidateid;\ndeployedBallots[electionid].districts[districtVoteCount].district = districtname;\ndeployedBallots[electionid].districts[districtVoteCount].voteCount += 1;\nvoters[msg.sender].parl = true; \n}\n\n\n\n\n\n function getDeployedBallots(uint id) public view returns(uint ballotid,uint creationDate,uint expirationDate) { \n     return (deployedBallots[id].ballotid,deployedBallots[id].creationDate,deployedBallots[id].expirationDate);\n }\n\n function getPresidentialCount() public view returns(uint count){\n     return candidateCount;\n }\n function getParliamentaryCount() public view returns(uint count){\n     return parl_candidateCount;\n }\n function getVoteCountForDistrict(uint candid,uint electionid,string memory district) public view returns(uint count) {\n     uint counter = 0;\n   \n       for (uint i = 0;i < districtVoteCount ; i++){\n             uint cid = deployedBallots[electionid].districts[i].id;\n             string memory dist = deployedBallots[electionid].districts[i].district;\n           if(cid==candid && keccak256(bytes(dist))==keccak256(bytes(district))){\n               counter++;\n           }\n       }\n       return counter;\n     \n }\n function sumAllParlCandidateVotesFromAllDistricts(uint candid,uint electionid)public view returns(uint count){\n uint counter = 0;\n       for (uint i = 0;i < districtVoteCount; i++){\n           if(deployedBallots[electionid].districts[i].id==candid){\n               counter++;\n           }\n       }\n       return counter;\n }\n function getPresidentialVoteCount(uint candidateid,uint electionid) public view returns(uint){\n    return deployedBallots[electionid].presidentialCandidates[candidateid].voteCount;\n}\n\nfunction getParliamentaryVoteCount(uint candidateid,uint electionid) public view returns(uint) {\n    return deployedBallots[electionid].districts[candidateid].voteCount;\n    \n}\nfunction getPresidentialCandidates(uint electionid,uint i) public view returns(uint id,string memory name,\n string memory party, string memory manifesto,uint count, string memory imgURL, string memory partyImg,address cand_addr){\n Presidential memory p = deployedBallots[electionid].presidentialCandidates[i];\n return(p.id,p.name,p.party,p.manifesto,p.voteCount,p.imgURL,p.partyImg,p.cand_address);\n    \n\n }\n\n function getParliamentaryCandidates(uint electionid,uint i) public view returns(uint id,string memory name,\n string memory party, string memory manifesto,uint count, string memory imgURL, string memory partyImg,string memory district,address cand_addr){\n Parliamentary memory p = deployedBallots[electionid].parliamentaryCandidates[i];\n return(p.id,p.name,p.party,p.manifesto,p.voteCount,p.imgURL,p.partyImg,p.district,p.cand_address);\n    \n\n }\n\n}\n",
  "sourcePath": "/home/deedat5/Desktop/Blockchain-based-e-voting/contracts/ElectionCreation.sol",
  "compiler": {
    "name": "solc",
    "version": "0.5.16+commit.9c3226ce.Emscripten.clang"
  },
  "schemaVersion": "3.1.0",
  "updatedAt": "2020-05-18T14:32:25.068Z",
  "networkType": "ethereum",
  "devdoc": {
    "methods": {}
  },
  "userdoc": {
    "methods": {}
  }
}