{
  "contractName": "ElectionCreation",
  "abi": [
    {
      "inputs": [],
      "payable": false,
      "stateMutability": "nonpayable",
      "type": "constructor"
    },
    {
      "constant": true,
      "inputs": [
        {
          "internalType": "uint256",
          "name": "",
          "type": "uint256"
        }
      ],
      "name": "deployedBallots",
      "outputs": [
        {
          "internalType": "uint256",
          "name": "ballotid",
          "type": "uint256"
        },
        {
          "internalType": "uint256",
          "name": "creationDate",
          "type": "uint256"
        },
        {
          "internalType": "uint256",
          "name": "expirationDate",
          "type": "uint256"
        }
      ],
      "payable": false,
      "stateMutability": "view",
      "type": "function"
    },
    {
      "constant": false,
      "inputs": [
        {
          "components": [
            {
              "internalType": "uint256",
              "name": "id",
              "type": "uint256"
            },
            {
              "internalType": "string",
              "name": "presname",
              "type": "string"
            },
            {
              "internalType": "string",
              "name": "party",
              "type": "string"
            },
            {
              "internalType": "uint256",
              "name": "voteCount",
              "type": "uint256"
            }
          ],
          "internalType": "struct ElectionCreation.Presidential[]",
          "name": "presCands",
          "type": "tuple[]"
        },
        {
          "components": [
            {
              "internalType": "uint256",
              "name": "id",
              "type": "uint256"
            },
            {
              "internalType": "string",
              "name": "parlname",
              "type": "string"
            },
            {
              "internalType": "string",
              "name": "party",
              "type": "string"
            },
            {
              "internalType": "uint256",
              "name": "voteCount",
              "type": "uint256"
            },
            {
              "internalType": "string",
              "name": "district",
              "type": "string"
            }
          ],
          "internalType": "struct ElectionCreation.Parliamentary[]",
          "name": "parlCands",
          "type": "tuple[]"
        },
        {
          "internalType": "uint256",
          "name": "amounthours",
          "type": "uint256"
        }
      ],
      "name": "CreateElection",
      "outputs": [],
      "payable": false,
      "stateMutability": "nonpayable",
      "type": "function"
    },
    {
      "constant": true,
      "inputs": [
        {
          "internalType": "uint256",
          "name": "id",
          "type": "uint256"
        }
      ],
      "name": "getDeployedBallots",
      "outputs": [
        {
          "components": [
            {
              "internalType": "uint256",
              "name": "id",
              "type": "uint256"
            },
            {
              "internalType": "string",
              "name": "presname",
              "type": "string"
            },
            {
              "internalType": "string",
              "name": "party",
              "type": "string"
            },
            {
              "internalType": "uint256",
              "name": "voteCount",
              "type": "uint256"
            }
          ],
          "internalType": "struct ElectionCreation.Presidential[]",
          "name": "",
          "type": "tuple[]"
        }
      ],
      "payable": false,
      "stateMutability": "view",
      "type": "function"
    }
  ],
  "bytecode": "0x608060405234801561001057600080fd5b50610d25806100206000396000f3fe608060405234801561001057600080fd5b50600436106100415760003560e01c80636abfe4c9146100465780639bc1b6dd14610076578063cdf74c3e14610092575b600080fd5b610060600480360361005b91908101906109a4565b6100c4565b60405161006d9190610b17565b60405180910390f35b610090600480360361008b9190810190610925565b610290565b005b6100ac60048036036100a791908101906109a4565b610591565b6040516100bb93929190610b39565b60405180910390f35b6060600080838152602001908152602001600020600101805480602002602001604051908101604052809291908181526020016000905b82821015610285578382906000526020600020906004020160405180608001604052908160008201548152602001600182018054600181600116156101000203166002900480601f0160208091040260200160405190810160405280929190818152602001828054600181600116156101000203166002900480156101c15780601f10610196576101008083540402835291602001916101c1565b820191906000526020600020905b8154815290600101906020018083116101a457829003601f168201915b50505050508152602001600282018054600181600116156101000203166002900480601f0160208091040260200160405190810160405280929190818152602001828054600181600116156101000203166002900480156102635780601f1061023857610100808354040283529160200191610263565b820191906000526020600020905b81548152906001019060200180831161024657829003601f168201915b50505050508152602001600382015481525050815260200190600101906100fb565b505050509050919050565b60008090506000809050816000808381526020019081526020016000206000018190555042600080838152602001908152602001600020600301819055508242016000808381526020019081526020016000206004018190555060008090505b855181101561058957600080838152602001908152602001600020600101604051806080016040528088848151811061032557fe5b602002602001015160000151815260200188848151811061034257fe5b602002602001015160200151815260200188848151811061035f57fe5b602002602001015160400151815260200188848151811061037c57fe5b602002602001015160600151815250908060018154018082558091505090600182039060005260206000209060040201600090919290919091506000820151816000015560208201518160010190805190602001906103dc9291906105bb565b5060408201518160020190805190602001906103f99291906105bb565b506060820151816003015550505060008090505b855181101561056b576000808481526020019081526020016000206002016040518060a0016040528088848151811061044257fe5b602002602001015160000151815260200188848151811061045f57fe5b602002602001015160200151815260200188848151811061047c57fe5b602002602001015160400151815260200188848151811061049957fe5b60200260200101516060015181526020018884815181106104b657fe5b602002602001015160800151815250908060018154018082558091505090600182039060005260206000209060050201600090919290919091506000820151816000015560208201518160010190805190602001906105169291906105bb565b5060408201518160020190805190602001906105339291906105bb565b5060608201518160030155608082015181600401908051906020019061055a9291906105bb565b50505050808060010191505061040d565b508180600101925050828060010193505080806001019150506102f0565b505050505050565b60006020528060005260406000206000915090508060000154908060030154908060040154905083565b828054600181600116156101000203166002900490600052602060002090601f016020900481019282601f106105fc57805160ff191683800117855561062a565b8280016001018555821561062a579182015b8281111561062957825182559160200191906001019061060e565b5b509050610637919061063b565b5090565b61065d91905b80821115610659576000816000905550600101610641565b5090565b90565b600082601f83011261067157600080fd5b813561068461067f82610b9d565b610b70565b9150818183526020840193506020810190508360005b838110156106ca57813586016106b0888261079c565b84526020840193506020830192505060018101905061069a565b5050505092915050565b600082601f8301126106e557600080fd5b81356106f86106f382610bc5565b610b70565b9150818183526020840193506020810190508360005b8381101561073e5781358601610724888261086c565b84526020840193506020830192505060018101905061070e565b5050505092915050565b600082601f83011261075957600080fd5b813561076c61076782610bed565b610b70565b9150808252602083016020830185838301111561078857600080fd5b610793838284610c78565b50505092915050565b600060a082840312156107ae57600080fd5b6107b860a0610b70565b905060006107c884828501610910565b600083015250602082013567ffffffffffffffff8111156107e857600080fd5b6107f484828501610748565b602083015250604082013567ffffffffffffffff81111561081457600080fd5b61082084828501610748565b604083015250606061083484828501610910565b606083015250608082013567ffffffffffffffff81111561085457600080fd5b61086084828501610748565b60808301525092915050565b60006080828403121561087e57600080fd5b6108886080610b70565b9050600061089884828501610910565b600083015250602082013567ffffffffffffffff8111156108b857600080fd5b6108c484828501610748565b602083015250604082013567ffffffffffffffff8111156108e457600080fd5b6108f084828501610748565b604083015250606061090484828501610910565b60608301525092915050565b60008135905061091f81610ccb565b92915050565b60008060006060848603121561093a57600080fd5b600084013567ffffffffffffffff81111561095457600080fd5b610960868287016106d4565b935050602084013567ffffffffffffffff81111561097d57600080fd5b61098986828701610660565b925050604061099a86828701610910565b9150509250925092565b6000602082840312156109b657600080fd5b60006109c484828501610910565b91505092915050565b60006109d98383610a8f565b905092915050565b60006109ec82610c29565b6109f68185610c4c565b935083602082028501610a0885610c19565b8060005b85811015610a445784840389528151610a2585826109cd565b9450610a3083610c3f565b925060208a01995050600181019050610a0c565b50829750879550505050505092915050565b6000610a6182610c34565b610a6b8185610c5d565b9350610a7b818560208601610c87565b610a8481610cba565b840191505092915050565b6000608083016000830151610aa76000860182610af9565b5060208301518482036020860152610abf8282610a56565b91505060408301518482036040860152610ad98282610a56565b9150506060830151610aee6060860182610af9565b508091505092915050565b610b0281610c6e565b82525050565b610b1181610c6e565b82525050565b60006020820190508181036000830152610b3181846109e1565b905092915050565b6000606082019050610b4e6000830186610b08565b610b5b6020830185610b08565b610b686040830184610b08565b949350505050565b6000604051905081810181811067ffffffffffffffff82111715610b9357600080fd5b8060405250919050565b600067ffffffffffffffff821115610bb457600080fd5b602082029050602081019050919050565b600067ffffffffffffffff821115610bdc57600080fd5b602082029050602081019050919050565b600067ffffffffffffffff821115610c0457600080fd5b601f19601f8301169050602081019050919050565b6000819050602082019050919050565b600081519050919050565b600081519050919050565b6000602082019050919050565b600082825260208201905092915050565b600082825260208201905092915050565b6000819050919050565b82818337600083830152505050565b60005b83811015610ca5578082015181840152602081019050610c8a565b83811115610cb4576000848401525b50505050565b6000601f19601f8301169050919050565b610cd481610c6e565b8114610cdf57600080fd5b5056fea365627a7a7231582024acac2671945d1d98479325d11811efcb9393b58b4c59265289faf2559e6f6b6c6578706572696d656e74616cf564736f6c634300050c0040",
  "source": "pragma solidity >=0.4.22 <0.6.0;\r\npragma experimental ABIEncoderV2;\r\n\r\n\r\ncontract ElectionCreation {\r\n\r\nmapping(uint=>Ballot) public deployedBallots;\r\nstruct Ballot{\r\n        uint ballotid;\r\n        Presidential[] presidentialCandidates;\r\n        Parliamentary[] parliamentaryCandidates;\r\n        uint creationDate;\r\n        uint expirationDate;\r\n}\r\n struct Presidential{\r\n     uint id;\r\n     string presname;\r\n     string party;\r\n     uint voteCount;\r\n\r\n }\r\n\r\n struct Parliamentary{\r\n     uint id;\r\n     string parlname;\r\n     string party;\r\n     uint voteCount;\r\n     string district;\r\n }\r\n\r\nconstructor () public { \r\n   \r\n}\r\n\r\nfunction CreateElection(Presidential[] memory presCands,Parliamentary[] memory parlCands,\r\nuint amounthours)public {\r\n    uint ballotid = 0;\r\n    uint ballotCount = 0;\r\n    \r\n    deployedBallots[ballotCount].ballotid = ballotid;\r\n    deployedBallots[ballotCount].creationDate = now;\r\n    deployedBallots[ballotCount].expirationDate = now + amounthours;\r\n    for (uint i = 0;i < presCands.length; i++){\r\n    deployedBallots[ballotCount].presidentialCandidates.push(Presidential(\r\n        {\r\n            id:presCands[i].id,\r\n            presname:presCands[i].presname,\r\n            party: presCands[i].party,\r\n            voteCount: presCands[i].voteCount\r\n        }\r\n    ));\r\n\r\n    for (uint i = 0;i < parlCands.length; i++){\r\n    deployedBallots[ballotCount].parliamentaryCandidates.push(Parliamentary(\r\n        {\r\n            id:parlCands[i].id,\r\n            parlname:parlCands[i].parlname,\r\n            party: parlCands[i].party,\r\n            voteCount: parlCands[i].voteCount ,\r\n            district: parlCands[i].district\r\n        }\r\n    ));\r\n    \r\n    \r\n    }\r\n\r\n    ballotCount++;\r\n    ballotid++;\r\n     \r\n}\r\n\r\n\r\n\r\n}\r\n\r\n function getDeployedBallots(uint id) public view returns(Presidential[] memory) { \r\n     return deployedBallots[id].presidentialCandidates;\r\n }\r\n// function getallCandidates() public view returns(Candidate[] memory){\r\n//      return allCandidates;\r\n\r\n//  }\r\n\r\n}\r\n",
  "sourcePath": "C:/Users/deedat/Desktop/myfinalyearproject/contracts/ElectionCreation.sol",
  "compiler": {
    "name": "solc",
    "version": "0.5.12+commit.7709ece9.Emscripten.clang"
  },
  "schemaVersion": "3.0.20",
  "updatedAt": "2020-01-07T07:40:40.006Z",
  "networkType": "ethereum",
  "devdoc": {
    "methods": {}
  },
  "userdoc": {
    "methods": {}
  }
}