{
  "contractName": "ElectionCreation",
  "abi": [
    {
      "constant": true,
      "inputs": [
        {
          "name": "",
          "type": "address"
        }
      ],
      "name": "voters",
      "outputs": [
        {
          "name": "",
          "type": "bool"
        }
      ],
      "payable": false,
      "stateMutability": "view",
      "type": "function"
    },
    {
      "constant": true,
      "inputs": [],
      "name": "electionAdministrator",
      "outputs": [
        {
          "name": "",
          "type": "address"
        }
      ],
      "payable": false,
      "stateMutability": "view",
      "type": "function"
    },
    {
      "constant": true,
      "inputs": [
        {
          "name": "",
          "type": "uint256"
        }
      ],
      "name": "allCandidates",
      "outputs": [
        {
          "name": "name",
          "type": "string"
        },
        {
          "name": "voteCount",
          "type": "uint256"
        },
        {
          "name": "creationDate",
          "type": "uint256"
        },
        {
          "name": "expirationDate",
          "type": "uint256"
        }
      ],
      "payable": false,
      "stateMutability": "view",
      "type": "function"
    },
    {
      "inputs": [],
      "payable": false,
      "stateMutability": "nonpayable",
      "type": "constructor"
    },
    {
      "constant": false,
      "inputs": [
        {
          "name": "candidateNames",
          "type": "string[]"
        },
        {
          "name": "amountofHours",
          "type": "uint256"
        }
      ],
      "name": "addCandidates",
      "outputs": [],
      "payable": false,
      "stateMutability": "nonpayable",
      "type": "function"
    },
    {
      "constant": false,
      "inputs": [
        {
          "name": "candidate",
          "type": "uint256"
        }
      ],
      "name": "vote",
      "outputs": [],
      "payable": false,
      "stateMutability": "nonpayable",
      "type": "function"
    },
    {
      "constant": true,
      "inputs": [
        {
          "name": "index",
          "type": "uint256"
        }
      ],
      "name": "getCandidateName",
      "outputs": [
        {
          "name": "",
          "type": "string"
        }
      ],
      "payable": false,
      "stateMutability": "view",
      "type": "function"
    },
    {
      "constant": true,
      "inputs": [
        {
          "name": "index",
          "type": "uint256"
        }
      ],
      "name": "getVoteCount",
      "outputs": [
        {
          "name": "",
          "type": "uint256"
        }
      ],
      "payable": false,
      "stateMutability": "view",
      "type": "function"
    },
    {
      "constant": true,
      "inputs": [],
      "name": "getallCandidates",
      "outputs": [
        {
          "components": [
            {
              "name": "name",
              "type": "string"
            },
            {
              "name": "voteCount",
              "type": "uint256"
            },
            {
              "name": "creationDate",
              "type": "uint256"
            },
            {
              "name": "expirationDate",
              "type": "uint256"
            }
          ],
          "name": "",
          "type": "tuple[]"
        }
      ],
      "payable": false,
      "stateMutability": "view",
      "type": "function"
    }
  ],
  "bytecode": "0x608060405260008060006101000a81548160ff021916908315150217905550600060045534801561002f57600080fd5b5033600360006101000a81548173ffffffffffffffffffffffffffffffffffffffff021916908373ffffffffffffffffffffffffffffffffffffffff160217905550610f90806100806000396000f3fe608060405234801561001057600080fd5b50600436106100885760003560e01c8063b2c2f2e81161005b578063b2c2f2e814610113578063bf19cef414610143578063e13804a714610161578063fc60c8b31461019157610088565b80630121b93f1461008d57806383e7f291146100a9578063a3ea80fc146100c7578063a3ec138d146100e3575b600080fd5b6100a760048036036100a29190810190610a3b565b6101c4565b005b6100b16102cd565b6040516100be9190610cb8565b60405180910390f35b6100e160048036036100dc91908101906109e7565b6103ec565b005b6100fd60048036036100f891908101906109be565b61051c565b60405161010a9190610cda565b60405180910390f35b61012d60048036036101289190810190610a3b565b61053c565b60405161013a9190610d83565b60405180910390f35b61014b6105e8565b6040516101589190610c9d565b60405180910390f35b61017b60048036036101769190810190610a3b565b61060e565b6040516101889190610cf5565b60405180910390f35b6101ab60048036036101a69190810190610a3b565b610752565b6040516101bb9493929190610d17565b60405180910390f35b600260003373ffffffffffffffffffffffffffffffffffffffff1673ffffffffffffffffffffffffffffffffffffffff16815260200190815260200160002060009054906101000a900460ff161561021b57600080fd5b6001818154811061022857fe5b90600052602060002090600402016003015442111561024657600080fd5b600180828154811061025457fe5b9060005260206000209060040201600101600082825401925050819055506001600260003373ffffffffffffffffffffffffffffffffffffffff1673ffffffffffffffffffffffffffffffffffffffff16815260200190815260200160002060006101000a81548160ff02191690831515021790555050565b60606001805480602002602001604051908101604052809291908181526020016000905b828210156103e35783829060005260206000209060040201604051806080016040529081600082018054600181600116156101000203166002900480601f0160208091040260200160405190810160405280929190818152602001828054600181600116156101000203166002900480156103ad5780601f10610382576101008083540402835291602001916103ad565b820191906000526020600020905b81548152906001019060200180831161039057829003601f168201915b505050505081526020016001820154815260200160028201548152602001600382015481525050815260200190600101906102f1565b50505050905090565b6000809054906101000a900460ff166104c35760008090505b82518110156104bd576001604051806080016040528085848151811061042757fe5b602002602001015181526020016000815260200142815260200184420181525090806001815401808255809150509060018203906000526020600020906004020160009091929091909150600082015181600001908051906020019061048e929190610827565b506020820151816001015560408201518160020155606082015181600301555050508080600101915050610405565b506104fe565b6040517f08c379a00000000000000000000000000000000000000000000000000000000081526004016104f590610d63565b60405180910390fd5b60016000806101000a81548160ff0219169083151502179055505050565b60026020528060005260406000206000915054906101000a900460ff1681565b6000600360009054906101000a900473ffffffffffffffffffffffffffffffffffffffff1673ffffffffffffffffffffffffffffffffffffffff163373ffffffffffffffffffffffffffffffffffffffff161461059857600080fd5b600182815481106105a557fe5b90600052602060002090600402016003015442116105c257600080fd5b600182815481106105cf57fe5b9060005260206000209060040201600101549050919050565b600360009054906101000a900473ffffffffffffffffffffffffffffffffffffffff1681565b6060600360009054906101000a900473ffffffffffffffffffffffffffffffffffffffff1673ffffffffffffffffffffffffffffffffffffffff163373ffffffffffffffffffffffffffffffffffffffff161461066a57600080fd5b6001828154811061067757fe5b906000526020600020906004020160030154421161069457600080fd5b600182815481106106a157fe5b90600052602060002090600402016000018054600181600116156101000203166002900480601f0160208091040260200160405190810160405280929190818152602001828054600181600116156101000203166002900480156107465780601f1061071b57610100808354040283529160200191610746565b820191906000526020600020905b81548152906001019060200180831161072957829003601f168201915b50505050509050919050565b6001818154811061075f57fe5b9060005260206000209060040201600091509050806000018054600181600116156101000203166002900480601f01602080910402602001604051908101604052809291908181526020018280546001816001161561010002031660029004801561080b5780601f106107e05761010080835404028352916020019161080b565b820191906000526020600020905b8154815290600101906020018083116107ee57829003601f168201915b5050505050908060010154908060020154908060030154905084565b828054600181600116156101000203166002900490600052602060002090601f016020900481019282601f1061086857805160ff1916838001178555610896565b82800160010185558215610896579182015b8281111561089557825182559160200191906001019061087a565b5b5090506108a391906108a7565b5090565b6108c991905b808211156108c55760008160009055506001016108ad565b5090565b90565b6000813590506108db81610f28565b92915050565b600082601f8301126108f257600080fd5b813561090561090082610dcb565b610d9e565b9150818183526020840193506020810190508360005b8381101561094b57813586016109318882610955565b84526020840193506020830192505060018101905061091b565b5050505092915050565b600082601f83011261096657600080fd5b813561097961097482610df3565b610d9e565b9150808252602083016020830185838301111561099557600080fd5b6109a0838284610ed5565b50505092915050565b6000813590506109b881610f3f565b92915050565b6000602082840312156109d057600080fd5b60006109de848285016108cc565b91505092915050565b600080604083850312156109fa57600080fd5b600083013567ffffffffffffffff811115610a1457600080fd5b610a20858286016108e1565b9250506020610a31858286016109a9565b9150509250929050565b600060208284031215610a4d57600080fd5b6000610a5b848285016109a9565b91505092915050565b6000610a708383610c1c565b905092915050565b610a8181610e8d565b82525050565b6000610a9282610e2c565b610a9c8185610e5a565b935083602082028501610aae85610e1f565b8060005b85811015610aea5784840389528151610acb8582610a64565b9450610ad683610e4d565b925060208a01995050600181019050610ab2565b50829750879550505050505092915050565b610b0581610e9f565b82525050565b6000610b1682610e42565b610b208185610e7c565b9350610b30818560208601610ee4565b610b3981610f17565b840191505092915050565b6000610b4f82610e37565b610b598185610e6b565b9350610b69818560208601610ee4565b610b7281610f17565b840191505092915050565b6000610b8882610e37565b610b928185610e7c565b9350610ba2818560208601610ee4565b610bab81610f17565b840191505092915050565b6000610bc3602183610e7c565b91507f796f75206861766520616c72656164792061646465642063616e64696461746560008301527f73000000000000000000000000000000000000000000000000000000000000006020830152604082019050919050565b60006080830160008301518482036000860152610c398282610b44565b9150506020830151610c4e6020860182610c7f565b506040830151610c616040860182610c7f565b506060830151610c746060860182610c7f565b508091505092915050565b610c8881610ecb565b82525050565b610c9781610ecb565b82525050565b6000602082019050610cb26000830184610a78565b92915050565b60006020820190508181036000830152610cd28184610a87565b905092915050565b6000602082019050610cef6000830184610afc565b92915050565b60006020820190508181036000830152610d0f8184610b0b565b905092915050565b60006080820190508181036000830152610d318187610b7d565b9050610d406020830186610c8e565b610d4d6040830185610c8e565b610d5a6060830184610c8e565b95945050505050565b60006020820190508181036000830152610d7c81610bb6565b9050919050565b6000602082019050610d986000830184610c8e565b92915050565b6000604051905081810181811067ffffffffffffffff82111715610dc157600080fd5b8060405250919050565b600067ffffffffffffffff821115610de257600080fd5b602082029050602081019050919050565b600067ffffffffffffffff821115610e0a57600080fd5b601f19601f8301169050602081019050919050565b6000602082019050919050565b600081519050919050565b600081519050919050565b600081519050919050565b6000602082019050919050565b600082825260208201905092915050565b600082825260208201905092915050565b600082825260208201905092915050565b6000610e9882610eab565b9050919050565b60008115159050919050565b600073ffffffffffffffffffffffffffffffffffffffff82169050919050565b6000819050919050565b82818337600083830152505050565b60005b83811015610f02578082015181840152602081019050610ee7565b83811115610f11576000848401525b50505050565b6000601f19601f8301169050919050565b610f3181610e8d565b8114610f3c57600080fd5b50565b610f4881610ecb565b8114610f5357600080fd5b5056fea265627a7a72305820d6b0c6c1bc3a32c3b91e1ddad4b0e6fb9245de46f0692379c5118685d1be256d6c6578706572696d656e74616cf50037",
  "source": "pragma solidity >=0.4.21 <0.7.0;\r\npragma experimental ABIEncoderV2;\r\n\r\ncontract ElectionCreation {\r\n\r\n    bool proceed=false;\r\n    Candidate[] public allCandidates;\r\n    mapping(address => bool) public voters;\r\n    address public electionAdministrator;\r\n    uint candidateCount=0;\r\n    struct Candidate{\r\n        string name;\r\n        uint voteCount;\r\n        uint creationDate;\r\n        uint expirationDate;\r\n    }\r\n\r\nmodifier restricted(){ \r\n    require(msg.sender == electionAdministrator);\r\n    _;\r\n    }\r\nconstructor () public {\r\n    electionAdministrator = msg.sender;\r\n} \r\n\r\n\r\n\r\nfunction addCandidates(string[] memory candidateNames, uint amountofHours)public {\r\n    if(!proceed){\r\n    for (uint i = 0;i < candidateNames.length; i++){\r\n        allCandidates.push(Candidate({\r\n            name: candidateNames[i],\r\n            voteCount : 0, \r\n            creationDate : now, \r\n            expirationDate: now + amountofHours\r\n        }));\r\n\r\n    }\r\n    }\r\n    else {\r\n        revert(\"you have already added candidates\");\r\n    }\r\n    proceed = true;\r\n}\r\n\r\nfunction vote(uint candidate)public { \r\n\r\n    require(!voters[msg.sender]); \r\n\r\n    if(now > allCandidates[candidate].expirationDate){ \r\n        revert();\r\n} \r\nallCandidates[candidate].voteCount += 1;\r\nvoters[msg.sender] = true; \r\n}\r\n\r\n\r\nfunction getCandidateName(uint index) public restricted view returns (string memory){ \r\n    require(now > allCandidates[index] .expirationDate);\r\n    return allCandidates[index].name;\r\n    \r\n     }\r\n \r\n\r\n\r\n\r\nfunction getVoteCount(uint index) public restricted view returns (uint){ \r\n    require(now > allCandidates[index] .expirationDate);\r\n    return allCandidates[index].voteCount;\r\n} \r\nfunction getallCandidates() public view returns(Candidate[] memory){\r\n    return allCandidates;\r\n\r\n}\r\n\r\n\r\n}\r\n",
  "sourcePath": "C:/Users/deedat/Desktop/myfinalyearproject/contracts/ElectionCreation.sol",
  "compiler": {
    "name": "solc",
    "version": "0.5.8+commit.23d335f2.Emscripten.clang"
  },
  "schemaVersion": "3.0.16",
  "updatedAt": "2020-01-02T07:14:12.234Z",
  "devdoc": {
    "methods": {}
  },
  "userdoc": {
    "methods": {}
  }
}