{
  "contractName": "ElectionCreation",
  "abi": [
    {
      "inputs": [],
      "payable": false,
      "stateMutability": "nonpayable",
      "type": "constructor"
    },
    {
      "constant": true,
      "inputs": [
        {
          "internalType": "uint256",
          "name": "",
          "type": "uint256"
        }
      ],
      "name": "deployedBallots",
      "outputs": [
        {
          "internalType": "uint256",
          "name": "ballotid",
          "type": "uint256"
        },
        {
          "internalType": "uint256",
          "name": "creationDate",
          "type": "uint256"
        },
        {
          "internalType": "uint256",
          "name": "expirationDate",
          "type": "uint256"
        }
      ],
      "payable": false,
      "stateMutability": "view",
      "type": "function"
    },
    {
      "constant": true,
      "inputs": [
        {
          "internalType": "address",
          "name": "",
          "type": "address"
        }
      ],
      "name": "voters",
      "outputs": [
        {
          "internalType": "bool",
          "name": "pres",
          "type": "bool"
        },
        {
          "internalType": "bool",
          "name": "parl",
          "type": "bool"
        }
      ],
      "payable": false,
      "stateMutability": "view",
      "type": "function"
    },
    {
      "constant": false,
      "inputs": [
        {
          "components": [
            {
              "internalType": "uint256",
              "name": "id",
              "type": "uint256"
            },
            {
              "internalType": "string",
              "name": "presname",
              "type": "string"
            },
            {
              "internalType": "string",
              "name": "party",
              "type": "string"
            },
            {
              "internalType": "uint256",
              "name": "voteCount",
              "type": "uint256"
            }
          ],
          "internalType": "struct ElectionCreation.Presidential[]",
          "name": "presCands",
          "type": "tuple[]"
        },
        {
          "components": [
            {
              "internalType": "uint256",
              "name": "id",
              "type": "uint256"
            },
            {
              "internalType": "string",
              "name": "parlname",
              "type": "string"
            },
            {
              "internalType": "string",
              "name": "party",
              "type": "string"
            },
            {
              "internalType": "string",
              "name": "districtname",
              "type": "string"
            },
            {
              "internalType": "uint256",
              "name": "voteCount",
              "type": "uint256"
            }
          ],
          "internalType": "struct ElectionCreation.Parliamentary[]",
          "name": "parlCands",
          "type": "tuple[]"
        },
        {
          "internalType": "uint256",
          "name": "amounthours",
          "type": "uint256"
        }
      ],
      "name": "CreateElection",
      "outputs": [],
      "payable": false,
      "stateMutability": "nonpayable",
      "type": "function"
    },
    {
      "constant": false,
      "inputs": [
        {
          "internalType": "uint256",
          "name": "candidateid",
          "type": "uint256"
        },
        {
          "internalType": "uint256",
          "name": "electionid",
          "type": "uint256"
        }
      ],
      "name": "voteForPresident",
      "outputs": [],
      "payable": false,
      "stateMutability": "nonpayable",
      "type": "function"
    },
    {
      "constant": false,
      "inputs": [
        {
          "internalType": "uint256",
          "name": "candidateid",
          "type": "uint256"
        },
        {
          "internalType": "uint256",
          "name": "electionid",
          "type": "uint256"
        }
      ],
      "name": "voteForParliament",
      "outputs": [],
      "payable": false,
      "stateMutability": "nonpayable",
      "type": "function"
    },
    {
      "constant": true,
      "inputs": [
        {
          "internalType": "uint256",
          "name": "id",
          "type": "uint256"
        }
      ],
      "name": "getDeployedBallots",
      "outputs": [
        {
          "components": [
            {
              "internalType": "uint256",
              "name": "id",
              "type": "uint256"
            },
            {
              "internalType": "string",
              "name": "parlname",
              "type": "string"
            },
            {
              "internalType": "string",
              "name": "party",
              "type": "string"
            },
            {
              "internalType": "string",
              "name": "districtname",
              "type": "string"
            },
            {
              "internalType": "uint256",
              "name": "voteCount",
              "type": "uint256"
            }
          ],
          "internalType": "struct ElectionCreation.Parliamentary[]",
          "name": "",
          "type": "tuple[]"
        }
      ],
      "payable": false,
      "stateMutability": "view",
      "type": "function"
    }
  ],
  "bytecode": "0x608060405234801561001057600080fd5b506000600160003373ffffffffffffffffffffffffffffffffffffffff1673ffffffffffffffffffffffffffffffffffffffff16815260200190815260200160002060000160006101000a81548160ff0219169083151502179055506000600160003373ffffffffffffffffffffffffffffffffffffffff1673ffffffffffffffffffffffffffffffffffffffff16815260200190815260200160002060000160016101000a81548160ff021916908315150217905550611324806100d66000396000f3fe608060405234801561001057600080fd5b50600436106100625760003560e01c80634854c3b8146100675780636abfe4c914610083578063a3ec138d146100b3578063cdf74c3e146100e4578063d9635e0c14610116578063de257af314610132575b600080fd5b610081600480360361007c9190810190610e41565b61014e565b005b61009d60048036036100989190810190610ec0565b610517565b6040516100aa9190611098565b60405180910390f35b6100cd60048036036100c89190810190610e18565b610785565b6040516100db9291906110ba565b60405180910390f35b6100fe60048036036100f99190810190610ec0565b6107c3565b60405161010d939291906110e3565b60405180910390f35b610130600480360361012b9190810190610ee9565b6107ed565b005b61014c60048036036101479190810190610ee9565b610907565b005b60008090506000809050816000808381526020019081526020016000206000018190555042600080838152602001908152602001600020600401819055508242016000808381526020019081526020016000206005018190555060008090505b855181101561050f5760008083815260200190815260200160002060010160405180608001604052808884815181106101e357fe5b602002602001015160000151815260200188848151811061020057fe5b602002602001015160200151815260200188848151811061021d57fe5b602002602001015160400151815260200188848151811061023a57fe5b6020026020010151606001518152509080600181540180825580915050906001820390600052602060002090600402016000909192909190915060008201518160000155602082015181600101908051906020019061029a929190610a19565b5060408201518160020190805190602001906102b7929190610a19565b506060820151816003015550505060008090505b85518110156104f1576000808481526020019081526020016000206002016040518060a0016040528088848151811061030057fe5b602002602001015160000151815260200188848151811061031d57fe5b602002602001015160200151815260200188848151811061033a57fe5b602002602001015160400151815260200188848151811061035757fe5b602002602001015160600151815260200188848151811061037457fe5b602002602001015160800151815250908060018154018082558091505090600182039060005260206000209060050201600090919290919091506000820151816000015560208201518160010190805190602001906103d4929190610a19565b5060408201518160020190805190602001906103f1929190610a19565b50606082015181600301908051906020019061040e929190610a19565b506080820151816004015550505085818151811061042857fe5b602002602001015160600151600080858152602001908152602001600020600301600088848151811061045757fe5b60200260200101516000015181526020019081526020016000206000019080519060200190610487929190610a99565b5085818151811061049457fe5b60200260200101516080015160008085815260200190815260200160002060030160008884815181106104c357fe5b60200260200101516000015181526020019081526020016000206001018190555080806001019150506102cb565b508180600101925050828060010193505080806001019150506101ae565b505050505050565b6060600080838152602001908152602001600020600201805480602002602001604051908101604052809291908181526020016000905b8282101561077a57838290600052602060002090600502016040518060a001604052908160008201548152602001600182018054600181600116156101000203166002900480601f0160208091040260200160405190810160405280929190818152602001828054600181600116156101000203166002900480156106145780601f106105e957610100808354040283529160200191610614565b820191906000526020600020905b8154815290600101906020018083116105f757829003601f168201915b50505050508152602001600282018054600181600116156101000203166002900480601f0160208091040260200160405190810160405280929190818152602001828054600181600116156101000203166002900480156106b65780601f1061068b576101008083540402835291602001916106b6565b820191906000526020600020905b81548152906001019060200180831161069957829003601f168201915b50505050508152602001600382018054600181600116156101000203166002900480601f0160208091040260200160405190810160405280929190818152602001828054600181600116156101000203166002900480156107585780601f1061072d57610100808354040283529160200191610758565b820191906000526020600020905b81548152906001019060200180831161073b57829003601f168201915b505050505081526020016004820154815250508152602001906001019061054e565b505050509050919050565b60016020528060005260406000206000915090508060000160009054906101000a900460ff16908060000160019054906101000a900460ff16905082565b60006020528060005260406000206000915090508060000154908060040154908060050154905083565b600160003373ffffffffffffffffffffffffffffffffffffffff1673ffffffffffffffffffffffffffffffffffffffff16815260200190815260200160002060000160009054906101000a900460ff161561084757600080fd5b6000808281526020019081526020016000206005015442111561086957600080fd5b6001600080838152602001908152602001600020600101838154811061088b57fe5b90600052602060002090600402016003016000828254019250508190555060018060003373ffffffffffffffffffffffffffffffffffffffff1673ffffffffffffffffffffffffffffffffffffffff16815260200190815260200160002060000160006101000a81548160ff0219169083151502179055505050565b600160003373ffffffffffffffffffffffffffffffffffffffff1673ffffffffffffffffffffffffffffffffffffffff16815260200190815260200160002060000160019054906101000a900460ff161561096157600080fd5b6000808281526020019081526020016000206005015442111561098357600080fd5b600160008083815260200190815260200160002060030160008481526020019081526020016000206001016000828254019250508190555060018060003373ffffffffffffffffffffffffffffffffffffffff1673ffffffffffffffffffffffffffffffffffffffff16815260200190815260200160002060000160016101000a81548160ff0219169083151502179055505050565b828054600181600116156101000203166002900490600052602060002090601f016020900481019282601f10610a5a57805160ff1916838001178555610a88565b82800160010185558215610a88579182015b82811115610a87578251825591602001919060010190610a6c565b5b509050610a959190610b19565b5090565b828054600181600116156101000203166002900490600052602060002090601f016020900481019282601f10610ada57805160ff1916838001178555610b08565b82800160010185558215610b08579182015b82811115610b07578251825591602001919060010190610aec565b5b509050610b159190610b19565b5090565b610b3b91905b80821115610b37576000816000905550600101610b1f565b5090565b90565b600081359050610b4d816112b3565b92915050565b600082601f830112610b6457600080fd5b8135610b77610b7282611147565b61111a565b9150818183526020840193506020810190508360005b83811015610bbd5781358601610ba38882610c8f565b845260208401935060208301925050600181019050610b8d565b5050505092915050565b600082601f830112610bd857600080fd5b8135610beb610be68261116f565b61111a565b9150818183526020840193506020810190508360005b83811015610c315781358601610c178882610d5f565b845260208401935060208301925050600181019050610c01565b5050505092915050565b600082601f830112610c4c57600080fd5b8135610c5f610c5a82611197565b61111a565b91508082526020830160208301858383011115610c7b57600080fd5b610c86838284611260565b50505092915050565b600060a08284031215610ca157600080fd5b610cab60a061111a565b90506000610cbb84828501610e03565b600083015250602082013567ffffffffffffffff811115610cdb57600080fd5b610ce784828501610c3b565b602083015250604082013567ffffffffffffffff811115610d0757600080fd5b610d1384828501610c3b565b604083015250606082013567ffffffffffffffff811115610d3357600080fd5b610d3f84828501610c3b565b6060830152506080610d5384828501610e03565b60808301525092915050565b600060808284031215610d7157600080fd5b610d7b608061111a565b90506000610d8b84828501610e03565b600083015250602082013567ffffffffffffffff811115610dab57600080fd5b610db784828501610c3b565b602083015250604082013567ffffffffffffffff811115610dd757600080fd5b610de384828501610c3b565b6040830152506060610df784828501610e03565b60608301525092915050565b600081359050610e12816112ca565b92915050565b600060208284031215610e2a57600080fd5b6000610e3884828501610b3e565b91505092915050565b600080600060608486031215610e5657600080fd5b600084013567ffffffffffffffff811115610e7057600080fd5b610e7c86828701610bc7565b935050602084013567ffffffffffffffff811115610e9957600080fd5b610ea586828701610b53565b9250506040610eb686828701610e03565b9150509250925092565b600060208284031215610ed257600080fd5b6000610ee084828501610e03565b91505092915050565b60008060408385031215610efc57600080fd5b6000610f0a85828601610e03565b9250506020610f1b85828601610e03565b9150509250929050565b6000610f318383610ff6565b905092915050565b6000610f44826111d3565b610f4e81856111f6565b935083602082028501610f60856111c3565b8060005b85811015610f9c5784840389528151610f7d8582610f25565b9450610f88836111e9565b925060208a01995050600181019050610f64565b50829750879550505050505092915050565b610fb78161122a565b82525050565b6000610fc8826111de565b610fd28185611207565b9350610fe281856020860161126f565b610feb816112a2565b840191505092915050565b600060a08301600083015161100e600086018261107a565b50602083015184820360208601526110268282610fbd565b915050604083015184820360408601526110408282610fbd565b9150506060830151848203606086015261105a8282610fbd565b915050608083015161106f608086018261107a565b508091505092915050565b61108381611256565b82525050565b61109281611256565b82525050565b600060208201905081810360008301526110b28184610f39565b905092915050565b60006040820190506110cf6000830185610fae565b6110dc6020830184610fae565b9392505050565b60006060820190506110f86000830186611089565b6111056020830185611089565b6111126040830184611089565b949350505050565b6000604051905081810181811067ffffffffffffffff8211171561113d57600080fd5b8060405250919050565b600067ffffffffffffffff82111561115e57600080fd5b602082029050602081019050919050565b600067ffffffffffffffff82111561118657600080fd5b602082029050602081019050919050565b600067ffffffffffffffff8211156111ae57600080fd5b601f19601f8301169050602081019050919050565b6000819050602082019050919050565b600081519050919050565b600081519050919050565b6000602082019050919050565b600082825260208201905092915050565b600082825260208201905092915050565b600061122382611236565b9050919050565b60008115159050919050565b600073ffffffffffffffffffffffffffffffffffffffff82169050919050565b6000819050919050565b82818337600083830152505050565b60005b8381101561128d578082015181840152602081019050611272565b8381111561129c576000848401525b50505050565b6000601f19601f8301169050919050565b6112bc81611218565b81146112c757600080fd5b50565b6112d381611256565b81146112de57600080fd5b5056fea365627a7a723158204a24b212f6adc037458e6c9cd3bda201577d462f1bbd75e9c002d784f83e96d16c6578706572696d656e74616cf564736f6c634300050c0040",
  "source": "pragma solidity >=0.4.22 <0.6.0;\r\npragma experimental ABIEncoderV2;\r\n\r\n\r\ncontract ElectionCreation {\r\n\r\nmapping(uint=>Ballot) public deployedBallots;\r\nmapping(address=>vote_right) public voters;\r\n\r\nstruct vote_right{\r\n    bool pres;\r\n    bool parl;\r\n}\r\nstruct Ballot{\r\n        uint ballotid;\r\n        Presidential[] presidentialCandidates;\r\n        Parliamentary[] parliamentaryCandidates;\r\n        mapping(uint=>district) districts;\r\n        uint creationDate;\r\n        uint expirationDate;\r\n}\r\n struct Presidential{\r\n     uint id;\r\n     string presname;\r\n     string party;\r\n     uint voteCount;\r\n\r\n }\r\n\r\n struct Parliamentary{\r\n     uint id;\r\n     string parlname;\r\n     string party;\r\n     string districtname;\r\n     uint voteCount;\r\n     \r\n }\r\nstruct district{\r\n    string districtname;\r\n    uint voteCount;\r\n}\r\nconstructor () public { \r\n   voters[msg.sender].pres = false;\r\n   voters[msg.sender].parl = false;\r\n}\r\n\r\nfunction CreateElection(Presidential[] memory presCands,Parliamentary[] memory parlCands,\r\nuint amounthours)public {\r\n    uint ballotid = 0;\r\n    uint ballotCount = 0;\r\n    \r\n    \r\n    deployedBallots[ballotCount].ballotid = ballotid;\r\n    deployedBallots[ballotCount].creationDate = now;\r\n    deployedBallots[ballotCount].expirationDate = now + amounthours;\r\n    for (uint i = 0;i < presCands.length; i++){\r\n    deployedBallots[ballotCount].presidentialCandidates.push(Presidential(\r\n        {\r\n            id:presCands[i].id,\r\n            presname:presCands[i].presname,\r\n            party: presCands[i].party,\r\n            voteCount: presCands[i].voteCount\r\n        }\r\n    ));\r\n\r\n    for (uint i = 0;i < parlCands.length; i++){\r\n    deployedBallots[ballotCount].parliamentaryCandidates.push(Parliamentary(\r\n        {\r\n            id:parlCands[i].id,\r\n            parlname:parlCands[i].parlname,\r\n            party: parlCands[i].party,\r\n            districtname:parlCands[i].districtname,\r\n            voteCount:parlCands[i].voteCount\r\n           \r\n        }\r\n    ));\r\n    deployedBallots[ballotCount].districts[parlCands[i].id].districtname = parlCands[i].districtname;\r\n    deployedBallots[ballotCount].districts[parlCands[i].id].voteCount = parlCands[i].voteCount;\r\n\r\n    \r\n    \r\n    }\r\n\r\n    ballotCount++;\r\n    ballotid++;\r\n     \r\n}\r\n\r\n\r\n\r\n}\r\n\r\nfunction voteForPresident(uint candidateid, uint electionid)public { \r\n\r\n    require(!voters[msg.sender].pres); \r\n\r\n    if(now > deployedBallots[electionid].expirationDate){ \r\n        revert();\r\n} \r\ndeployedBallots[electionid].presidentialCandidates[candidateid].voteCount += 1;\r\nvoters[msg.sender].pres = true; \r\n}\r\n\r\nfunction voteForParliament(uint candidateid, uint electionid)public { \r\n\r\n    require(!voters[msg.sender].parl); \r\n\r\n    if(now > deployedBallots[electionid].expirationDate){ \r\n        revert();\r\n} \r\ndeployedBallots[electionid].districts[candidateid].voteCount += 1;\r\nvoters[msg.sender].parl = true; \r\n}\r\n\r\n\r\n\r\n function getDeployedBallots(uint id) public view returns(Parliamentary[] memory) { \r\n     return deployedBallots[id].parliamentaryCandidates;\r\n }\r\n// function getallCandidates() public view returns(Candidate[] memory){\r\n//      return allCandidates;\r\n\r\n//  }\r\n\r\n}\r\n",
  "sourcePath": "C:/Users/deedat/Desktop/myfinalyearproject/contracts/ElectionCreation.sol",
  "compiler": {
    "name": "solc",
    "version": "0.5.12+commit.7709ece9.Emscripten.clang"
  },
  "schemaVersion": "3.0.20",
  "updatedAt": "2020-01-07T11:46:35.382Z",
  "networkType": "ethereum",
  "devdoc": {
    "methods": {}
  },
  "userdoc": {
    "methods": {}
  }
}