{
  "contractName": "ElectionCreation",
  "abi": [
    {
      "constant": true,
      "inputs": [
        {
          "name": "",
          "type": "uint256"
        }
      ],
      "name": "deployedBallots",
      "outputs": [
        {
          "name": "ballotid",
          "type": "uint256"
        },
        {
          "name": "creationDate",
          "type": "uint256"
        },
        {
          "name": "expirationDate",
          "type": "uint256"
        }
      ],
      "payable": false,
      "stateMutability": "view",
      "type": "function"
    },
    {
      "inputs": [],
      "payable": false,
      "stateMutability": "nonpayable",
      "type": "constructor"
    },
    {
      "constant": false,
      "inputs": [
        {
          "components": [
            {
              "name": "id",
              "type": "uint256"
            },
            {
              "name": "name",
              "type": "string"
            },
            {
              "name": "partyName",
              "type": "string"
            },
            {
              "name": "voteCount",
              "type": "uint256"
            }
          ],
          "name": "presCands",
          "type": "tuple[]"
        },
        {
          "components": [
            {
              "name": "id",
              "type": "uint256"
            },
            {
              "name": "name",
              "type": "string"
            },
            {
              "name": "partyName",
              "type": "string"
            },
            {
              "name": "voteCount",
              "type": "uint256"
            },
            {
              "name": "district",
              "type": "string"
            }
          ],
          "name": "parlCands",
          "type": "tuple[]"
        },
        {
          "name": "amounthours",
          "type": "uint256"
        }
      ],
      "name": "CreateElection",
      "outputs": [],
      "payable": false,
      "stateMutability": "nonpayable",
      "type": "function"
    }
  ],
  "bytecode": "0x608060405234801561001057600080fd5b506108f3806100206000396000f3fe608060405234801561001057600080fd5b50600436106100365760003560e01c80639bc1b6dd1461003b578063cdf74c3e14610057575b600080fd5b610055600480360361005091908101906106f2565b610089565b005b610071600480360361006c9190810190610771565b61035e565b604051610080939291906107a9565b60405180910390f35b60008090506000809050816000808381526020019081526020016000206000018190555042600080838152602001908152602001600020600301819055508242016000808381526020019081526020016000206004018190555060008090505b855181101561035657600080838152602001908152602001600020600101604051806080016040528088848151811061011e57fe5b602002602001015160000151815260200188848151811061013b57fe5b602002602001015160200151815260200188848151811061015857fe5b60200260200101516040015181526020016000815250908060018154018082558091505090600182039060005260206000209060040201600090919290919091506000820151816000015560208201518160010190805190602001906101bf929190610388565b5060408201518160020190805190602001906101dc929190610388565b506060820151816003015550505060008090505b8551811015610338576000808481526020019081526020016000206002016040518060a0016040528088848151811061022557fe5b602002602001015160000151815260200188848151811061024257fe5b602002602001015160200151815260200188848151811061025f57fe5b60200260200101516040015181526020016000815260200188848151811061028357fe5b602002602001015160800151815250908060018154018082558091505090600182039060005260206000209060050201600090919290919091506000820151816000015560208201518160010190805190602001906102e3929190610388565b506040820151816002019080519060200190610300929190610388565b50606082015181600301556080820151816004019080519060200190610327929190610388565b5050505080806001019150506101f0565b508180600101925050828060010193505080806001019150506100e9565b505050505050565b60006020528060005260406000206000915090508060000154908060030154908060040154905083565b828054600181600116156101000203166002900490600052602060002090601f016020900481019282601f106103c957805160ff19168380011785556103f7565b828001600101855582156103f7579182015b828111156103f65782518255916020019190600101906103db565b5b5090506104049190610408565b5090565b61042a91905b8082111561042657600081600090555060010161040e565b5090565b90565b600082601f83011261043e57600080fd5b813561045161044c8261080d565b6107e0565b9150818183526020840193506020810190508360005b83811015610497578135860161047d8882610569565b845260208401935060208301925050600181019050610467565b5050505092915050565b600082601f8301126104b257600080fd5b81356104c56104c082610835565b6107e0565b9150818183526020840193506020810190508360005b8381101561050b57813586016104f18882610639565b8452602084019350602083019250506001810190506104db565b5050505092915050565b600082601f83011261052657600080fd5b81356105396105348261085d565b6107e0565b9150808252602083016020830185838301111561055557600080fd5b610560838284610893565b50505092915050565b600060a0828403121561057b57600080fd5b61058560a06107e0565b90506000610595848285016106dd565b600083015250602082013567ffffffffffffffff8111156105b557600080fd5b6105c184828501610515565b602083015250604082013567ffffffffffffffff8111156105e157600080fd5b6105ed84828501610515565b6040830152506060610601848285016106dd565b606083015250608082013567ffffffffffffffff81111561062157600080fd5b61062d84828501610515565b60808301525092915050565b60006080828403121561064b57600080fd5b61065560806107e0565b90506000610665848285016106dd565b600083015250602082013567ffffffffffffffff81111561068557600080fd5b61069184828501610515565b602083015250604082013567ffffffffffffffff8111156106b157600080fd5b6106bd84828501610515565b60408301525060606106d1848285016106dd565b60608301525092915050565b6000813590506106ec816108a2565b92915050565b60008060006060848603121561070757600080fd5b600084013567ffffffffffffffff81111561072157600080fd5b61072d868287016104a1565b935050602084013567ffffffffffffffff81111561074a57600080fd5b6107568682870161042d565b9250506040610767868287016106dd565b9150509250925092565b60006020828403121561078357600080fd5b6000610791848285016106dd565b91505092915050565b6107a381610889565b82525050565b60006060820190506107be600083018661079a565b6107cb602083018561079a565b6107d8604083018461079a565b949350505050565b6000604051905081810181811067ffffffffffffffff8211171561080357600080fd5b8060405250919050565b600067ffffffffffffffff82111561082457600080fd5b602082029050602081019050919050565b600067ffffffffffffffff82111561084c57600080fd5b602082029050602081019050919050565b600067ffffffffffffffff82111561087457600080fd5b601f19601f8301169050602081019050919050565b6000819050919050565b82818337600083830152505050565b6108ab81610889565b81146108b657600080fd5b5056fea265627a7a723058200bd9ca3a4c6feb0a688b3c1f0931205f084acc44120516ccd6bc251290d406436c6578706572696d656e74616cf50037",
  "source": "pragma solidity >=0.4.22 <0.6.0;\r\npragma experimental ABIEncoderV2;\r\n\r\n\r\ncontract ElectionCreation {\r\n\r\nmapping(uint=>Ballot) public deployedBallots;\r\nstruct Ballot{\r\n        uint ballotid;\r\n        Presidential[] presidentialCandidates;\r\n        Parliamentary[] parliamentaryCandidates;\r\n        uint creationDate;\r\n        uint expirationDate;\r\n}\r\n struct Presidential{\r\n     uint id;\r\n     string name;\r\n     string partyName;\r\n     uint voteCount;\r\n\r\n }\r\n\r\n struct Parliamentary{\r\n     uint id;\r\n     string name;\r\n     string partyName;\r\n     uint voteCount;\r\n     string district;\r\n }\r\n\r\nconstructor () public { \r\n   \r\n}\r\n\r\nfunction CreateElection(Presidential[] memory presCands,Parliamentary[] memory parlCands,\r\nuint amounthours)public {\r\n    uint ballotid = 0;\r\n    uint ballotCount=0;\r\n    deployedBallots[ballotCount].ballotid = ballotid;\r\n    deployedBallots[ballotCount].creationDate = now;\r\n    deployedBallots[ballotCount].expirationDate = now + amounthours;\r\n    for (uint i = 0;i < presCands.length; i++){\r\n    deployedBallots[ballotCount].presidentialCandidates.push(Presidential(\r\n        {\r\n            id:presCands[i].id,\r\n            name:presCands[i].name,\r\n            partyName: presCands[i].partyName,\r\n            voteCount: 0\r\n        }\r\n    ));\r\n\r\n    for (uint i = 0;i < parlCands.length; i++){\r\n    deployedBallots[ballotCount].parliamentaryCandidates.push(Parliamentary(\r\n        {\r\n            id:parlCands[i].id,\r\n            name:parlCands[i].name,\r\n            partyName: parlCands[i].partyName,\r\n            voteCount: 0,\r\n            district: parlCands[i].district\r\n        }\r\n    ));\r\n    \r\n    \r\n    }\r\n\r\n    ballotCount++;\r\n    ballotid++;\r\n     \r\n}\r\n\r\n// function getDeployedBallots() public view returns(mapping(uint=>Ballot) ) { \r\n//     return deployedBallots;\r\n// }\r\n\r\n}\r\n\r\n\r\n}\r\n",
  "sourcePath": "C:/Users/deedat/Desktop/myfinalyearproject/contracts/ElectionCreation.sol",
  "compiler": {
    "name": "solc",
    "version": "0.5.8+commit.23d335f2.Emscripten.clang"
  },
  "schemaVersion": "3.0.16",
  "updatedAt": "2020-01-05T17:53:02.684Z",
  "devdoc": {
    "methods": {}
  },
  "userdoc": {
    "methods": {}
  }
}